:020000040800F2
:1000000000000520211D0008551D0008AD06000850
:10001000B5060008BD060008C5060008000000007F
:10002000000000000000000000000000AD3F0008DC
:10003000551D000800000000693F0008A93E0008A7
:10004000551D0008551D0008551D0008551D0008C8
:10005000551D0008551D0008551D0008551D0008B8
:10006000551D0008551D0008551D0008551D0008A8
:10007000551D0008551D0008551D0008551D000898
:10008000551D0008551D0008551D00089106000863
:1000900085060008551D000895060008551D000836
:1000A000551D0008551D0008551D0008551D000868
:1000B000551D0008551D0008551D0008551D000858
:1000C000551D0008551D0008551D0008551D000848
:1000D000551D0008551D0008551D0008551D000838
:1000E000551D0008551D0008551D0008551D000828
:1000F000551D0008551D0008551D0008551D000818
:10010000551D0008551D0008551D0008551D000807
:10011000551D0008551D0008551D0008551D0008F7
:10012000551D0008551D0008551D0008551D0008E7
:10013000551D0008551D0008551D0008A50600089E
:1001400099060008551D0008A9060008551D00085D
:10015000551D0008551D0008551D0008551D0008B7
:10016000551D0008551D0008551D0008551D0008A7
:10017000551D0008551D0008551D00080000000011
:10018000551D0008551D0008551D0008551D000887
:10019000551D0008551D0008551D0008551D000877
:1001A000551D0008551D0008551D0008551D000867
:1001B000551D0008551D0008551D0008551D000857
:1001C000551D0008551D00080348044B834202D00A
:1001D000034B03B118477047280C0020280C00205F
:1001E000000000000548064B1B1AD90F01EBA301C4
:1001F000491002D0034B03B118477047280C002068
:10020000280C00200000000010B5064C237843B9EC
:10021000FFF7DAFF044B13B10448AFF3008001236A
:10022000237010BD280C0020000000003C5D000879
:1002300008B5054B1BB105490548AFF30080BDE883
:100240000840FFF7CFBF00BF000000002C0C0020CB
:100250003C5D0008A3F5803A704700BF174B002BA8
:1002600008BF134B9D46FFF7F5FF00218B460F4655
:100270001348144A121A04F0D7FE0E4B002B00D07C
:1002800098470D4B002B00D0984700200021040018
:100290000D000D48002802D00C48AFF3008004F098
:1002A00027FF2000290003F093FB04F06DFA00BF44
:1002B00000000800000000000D14000800000520E8
:1002C000280C00201813002000000000000000008F
:1002D000704710B50446502101F07EF8204610BD4D
:1002E00037B50546044655F8043B9B6898472846B1
:1002F00000F064F823688DED010A2046DB6898471A
:100300009DED010A03B030BD0346006818B91868B6
:1003100008B9181D1860704708B50248FFF7F4FFC8
:1003200008BD00BF440C002008B50248FFF7ECFFF1
:1003300008BD00BF440C002073B50A4B05460A4EA9
:10034000044645F8043B30460191FFF7DDFF019973
:10035000284600F041F83046FFF7D6FF204602B0AD
:1003600070BD00BFE4550008440C00200020704719
:100370000368012200211B691847036800221B69DA
:10038000114618476FF01500704703681B6918473E
:1003900003689B69184703689B6A184700290CBFCC
:1003A0006FF0180000207047012070476FF01500B3
:1003B00070476FF0150070477047000008B500F0F7
:1003C00083F807EE900AB8EE670ADFED027A20EEB6
:1003D000270A08BD010880397FB5A1F1F003044662
:1003E0000D469BB20F2B39D93149284600F00CFE3F
:1003F0002F492060284600F027FE2D490646284652
:1004000000F0BEFD00234FF48032C6F38436A4F81A
:10041000485023642361A361E3602363636184F82C
:100420004A60C4E901230122C4E90833C4E90A335C
:10043000E26123681F4A93421BD11F4B5A6C42F45E
:1004400080725A645B6C03F480730193019B2046B5
:1004500001F09AFC50B3194800F0DEFB1849284619
:1004600000F0D2FD16492060284600F0EDFD06465A
:10047000C8E7144A93420ED002F580729342E6D147
:100480000D4B5A6C42F480625A645B6C03F48063D7
:100490000393039BDBE7084B5A6C42F400725A64E7
:1004A0005B6C03F400730293029BD0E704B070BD51
:1004B000F45500080020014000380240C0590008EF
:1004C000405800080021014030B5012285B00446A3
:1004D0000323002190F84A00CDE90123039112285B
:1004E0004FD8DFE800F00A2628292B2D2F3133358D
:1004F00037393B3D3F4143484A000091224D694610
:1005000020466B6823F440036B6001F095FD2046A4
:1005100001F0DEFC0A21204601F03AFD78BB2046BE
:1005200001F086FD80B26B6823F440036B6005B078
:1005300030BD0092E2E702230093DFE70423FBE7EC
:100540000523F9E70623F7E70723F5E70823F3E791
:100550000923F1E70A23EFE70B23EDE70C23EBE791
:100560000D23E9E70E23E7E70F23E5E7074B0093A9
:1005700007230293C2E71123F9E71223F7E70020CC
:10058000D1E70020D3E700BF002301401200001094
:1005900043692DE9F0410D46D907044629D58768FE
:1005A000334E826807EA060C3248A368BE433249DC
:1005B00002EA000203EA010301D10126A660824299
:1005C00002D14FF48070A0608B4202D14FF4803191
:1005D000A16027498C4505D026498A4202D0264A87
:1005E000934206D1254B0121254A1B6852F825006C
:1005F0009847E2686369920708D09F0706D51F4BAA
:1006000000211F4A1B6852F825009847A1696269BA
:100610008E0763690AD5900508D5190406D5174BCE
:100620000521174A1B6852F825009847A769666993
:1006300017F00407626906F4806609D046B1120417
:1006400006D50E4B07210E4A1B6852F82500984725
:1006500063695FB156B11B0408D5084B0221084AF3
:100660001B6852F82500BDE8F0411847BDE8F0814D
:10067000030000040003000800000310540C0020D5
:100680004C0C002000210148FFF782BF00640040AD
:10069000FFF7F8BFFFF7F6BF01210148FFF778BF6A
:1006A00000680040FFF7F8BFFFF7F6BF4FF01003F8
:1006B00000F00CB84FF0200300F008B84FF0300302
:1006C00000F004B84FF0400300F000B8EFF30880EA
:1006D0004FF0040172460A4201D0EFF309809C46B4
:1006E000254B196802680A60043142680A600431C7
:1006F00082680A600431C2680A600431F0C147466A
:100700000F6004314F460F60043157460F600431CB
:100710005F460F60043102690A60083142690A606D
:10072000043182690A600431C2690A6004310346F7
:1007300020334FF40076324200D0043375464FF038
:100740001006354200D148330C46103C2360EFF3CD
:1007500009820A600431EFF308820A6004317246AC
:100760000A600431EFF314820A606046024B196894
:1007700000F026FBFEE70000BC5B000891FAA1F345
:10078000B3FA83F391FAA1F130B55B000325B1FA16
:1007900081F1046805FA03F3490024EA03038A405F
:1007A0001343036030BD000000B5454B8DB00A28EF
:1007B00000F28380DFE800F006131E29343F4A551B
:1007C000606B76001A6B3F4842F001021A631B6BA4
:1007D00003F001030193019B0DB05DF804FB1A6B5C
:1007E000394842F002021A631B6B03F002030293C2
:1007F000029BF1E71A6B354842F004021A631B6B47
:1008000003F004030393039BE6E71A6B304842F0BE
:1008100008021A631B6B03F008030493049BDBE7D5
:100820001A6B2C4842F010021A631B6B03F0100382
:100830000593059BD0E71A6B274842F020021A6304
:100840001B6B03F020030693069BC5E71A6B234836
:1008500042F040021A631B6B03F040030793079BAF
:10086000BAE71A6B1E4842F080021A631B6B03F052
:1008700080030893089BAFE71A6B1A4842F4807212
:100880001A631B6B03F480730993099BA4E71A6B2B
:10089000154842F400721A631B6B03F400730A9349
:1008A0000A9B99E71A6B114842F480621A631B6B2A
:1008B00003F480630B930B9B8EE70D4800F0ACF9BB
:1008C00000380240000002400004024000080240DC
:1008D000000C0240001002400014024000180240C8
:1008E000001C024000200240002402400028024078
:1008F000D659000810B504464FF4707100F0C2FFDD
:10090000012004F00F04A04010BD00004B1C70B586
:1009100004460E46018216D0C1F30310FFF744FFD0
:1009200005463046FFF7E6FF238A074A03F00F0328
:100930006561206052F82330A36105F1100318357A
:100940006360C4E9025570BD485C0008B0F910004E
:1009500001F018B80A46D0E905010AB9FFF70EBF41
:100960000122FBE708B502F071FD002008BD000080
:1009700008B50A4B1B684BB100F03AFF00F026FFA8
:100980004FF47A72002303F081FD08BD044B586ACE
:100990004FF47A73B0FBF3F0F7E700BFF00C0020E0
:1009A000000C004003460122D3E84F0FC3E8412F5B
:1009B000C0B20029F8D17047D0E84F3FC0E8421FCD
:1009C000D8B2704700B589B0144E154D00F078F8D4
:1009D000102101A800F078FA0424039B3046019A04
:1009E0001A6000F013FF019B049A30461B04136049
:1009F00000F00CFF013CF0D10424039B2846019A2F
:100A00001A6000F003FF019B049A28461B04136040
:100A100000F0FCFE013CF0D1DEE700BFF04902002F
:100A2000801A060007B5014600220190022000F05E
:100A30001FFC00F045F80199084604F0DFFB01991E
:100A40000246022000F014FC03B05DF804EB00F055
:100A500041B8000000B5A3B002460B46842101A8AE
:100A600004F0BAFA832806D9074B1A681B79CDF827
:100A700083208DF88730002802DD01A8FFF7D2FF20
:100A800023B05DF804FB00BFF75900080FB407B5A9
:100A900004A951F8040B0191FFF7DCFF03B05DF8E6
:100AA00004EB04B07047EFF31080C04300F0010086
:100AB0007047EFF30580003818BF01207047000031
:100AC00008B500F013F8024A13680133136008BD3B
:100AD000580C0020044A136823B1013B13600BB982
:100AE00000F016B8704700BF580C0020EFF31083D9
:100AF00072B6054A117831B9DB43044903F00103AA
:100B00000B700123137070475D0C00205C0C0020FB
:100B1000034B00221A70034B1B7803B162B6704777
:100B20005D0C00205C0C002008B50B48FFF73AFF75
:100B300028B1FFF7C5FFBFF34F8F20BFFDE7FFF7D9
:100B4000B8FF08B1FFF73EFFFFF7ADFF0028F9D06F
:100B5000012003F019FE00BFAC0C002070B51D4C45
:100B600090B00D46164634EA200428BF04463422CD
:100B7000002103A804F058FA0295CDE90046FFF7DA
:100B80009FFF154A13680133012B13600BD16D468B
:100B9000124C0FCD0FC40FCD0FC40FCD0FC495E86D
:100BA0000F0084E80F006C460D4D0FCC0FC50FCC25
:100BB0000FC50FCC0FC594E80F0085E80F00094B57
:100BC0001B6813B1A5F130009847FFF783FF0020A1
:100BD00010B070BD0101FF80600C00206C0C002083
:100BE000B00C0020640C002030B5034600F13C043A
:100BF000084D002013F8012B80EA0260082200282B
:100C00004FEA4000B8BF6840013AF8D1A342F1D1A1
:100C100030BD00BFB71DC1040FB407B501210648A0
:100C2000CDF804E0FFF7C8FE019A014610B9034869
:100C3000FFF794FFFFF778FF680C00200001FF80AA
:100C4000044601211D487646154608B5FFF7B4FE57
:100C500020B9324629462046FFF780FF1848FFF7A3
:100C6000C3FF184B184CD3F8BC20154D82422046C8
:100C70000ABFD3F8B4300123013363630023A363B5
:100C8000FFF7B2FFE063FFF71BFF0FCC0FC50FCCE0
:100C90000FC50FCC0FC594E80F0085E80F00FFF7D4
:100CA00019FFBFF34F8F0949094BCA6802F4E0628C
:100CB0001343CB60BFF34F8F00BFFDE7680C0020EC
:100CC00048020020C8010020B00C002000ED00E028
:100CD0000400FA05F0B52C4E85B000242B4F3546A4
:100CE0002146013456F8042B3846FFF7CFFE0D2C71
:100CF000F6D1AB6C264C02936B6C264801932B6C9F
:100D00000093696BD5E90E23FFF7C0FE21682248E6
:100D1000FFF7BCFEE16AA26AA36AA06AD2B2266BA0
:100D2000C3F30723E76B000CCDE9016700901B4874
:100D3000FFF7ACFEA36A1E0603D5616B1848FFF7E8
:100D4000A5FEA36A180403D5A16B1648FFF79EFE03
:100D5000EB6C190712D51448FFF798FE2B6DDA07D4
:100D60000FD51248FFF792FEEB6C5B074CBF1048A3
:100D7000104805B0BDE8F040FFF788BE0E48FFF709
:100D800085FE0E48EEE700BFC8010020FC590008B0
:100D900000ED00E00A5A0008595A0008675A000896
:100DA000B65A0008C45A0008D25A0008E15A00088E
:100DB000115B00081D5B0008015B0008EE5A00088B
:100DC00013B504461548FFF761FE302C17D0402CB0
:100DD0001AD0202C1DD1124C1248FFF757FE124892
:100DE000FFF754FEFFF776FF1048FFF74FFE002392
:100DF0000F4A204600930F49D26BFFF721FF0E48A0
:100E00000E4CFFF743FEEAE70D480E4CFFF73EFE9F
:100E1000E5E70D480D4CFFF739FEE0E7295B0008D8
:100E20003E01FF80525B00087F5B00088A5B000880
:100E3000C8010020A95B0008615B00083F01FF803A
:100E40006A5B00084001FF80755B00083D01FF8080
:100E500070B50E4604461546FFF758FD013609D019
:100E600020460021FFF776FD29462046BDE8704068
:100E7000FFF76CBD70BD38B504460D4603685AB126
:100E80008268204601211360FFF764FD2946204651
:100E9000BDE83840FFF75ABDC2681B04F1E70022E5
:100EA000FFF7D6BF37B50D4604460192FFF72EFD7A
:100EB000013507D0019A0021204603B0BDE830403B
:100EC000FFF7D9BF03B030BD0022FFF7EBBF000032
:100ED000294B5A69910370B515D45A6912F400323E
:100EE00011D1BFF34F8FBFF36F8FC3F85022BFF301
:100EF0004F8FBFF36F8F5A6942F400325A61BFF3CC
:100F00004F8FBFF36F8F1C4B5A69D20327D45A6996
:100F100012F4803223D1C3F88420BFF34F8FD3F86B
:100F2000802043F6E074C2F3C900C2F34E3252018E
:100F300002EA0406014646EA81750139C3F86052A7
:100F4000F9D2203A12F1200FF2D1BFF34F8F5A6934
:100F500042F480325A61BFF34F8FBFF36F8F02F0BC
:100F600023FA00F0F9FE02F011FA02F01DFA034B29
:100F700001221A6070BD00BF00ED00E0F00C0020FF
:100F80001FB5431C10D105B05DF804FB83420AD1A4
:100F90008968039000F076FC0021039805B05DF8A5
:100FA00004EB00F0EFBC0C31B1F900305A1CEDD16C
:100FB00000230246024819460093FFF741FE00BF96
:100FC00030010180884207B502460AD0431C08D090
:100FD000013105D00023054819460093FFF730FE84
:100FE0000146084603B05DF804FB00BF30010180F4
:100FF000B1F900305A1C01D118467047834201D123
:10100000486870470C31F3E7421C13B504460AD018
:10101000FFF7EEFF431C06D1002322460348194682
:101020000093FFF70DFE02B010BD00BF300101803C
:10103000B1F900305A1C01D118467047834201D1E2
:10104000886870470C31F3E7421C13B504460AD098
:10105000FFF7EEFF431C06D1002322460348194642
:101060000093FFF7EDFD02B010BD00BF300101801D
:101070006FF01C0070476FF015007047012070473B
:101080000020704770470000F8B515460C468F18D1
:10109000054EBC4205D014F8011B304600F02CFE72
:1010A000F7E72846F8BD00BFFC0E002038B511F068
:1010B00001048DB205D0084800F0A8FC041E18BF3A
:1010C0000124EB0605D5044800F0B0FC08B144F05B
:1010D0001004204638BD00BFFC0E002010B50446A9
:1010E00003F06CFB204610BD10B50C462AB1044835
:1010F00000F0F0FD2070012010BD1046FCE700BF9D
:10110000FC0E002038B51D46074B04460360074B14
:101110001B6833B9064800F0FDFC2946044800F07E
:10112000C1FC204638BD00BFC85B0008400D002050
:10113000FC0E00200020704700207047074A084935
:1011400013681844884283BF064B0C224FF0FF30CF
:1011500010608CBF1A601846704700BFCC03002097
:1011600000FC0420F40E00200120704770477047F7
:1011700008B5FFF7FBFF08BD08B5FFF7F8FF08BD8E
:10118000037803F00303012B09D0037803F0030273
:10119000012A04D043F002030370012070470020AD
:1011A0007047037823F0030343F001030370704793
:1011B0003F2870B504462FDC184D55F820305A1CD6
:1011C00013D1022811DCFFF7B7FF034658B92046B8
:1011D000FFF7B0FF034630B9114E3378BFF35B8F92
:1011E000DB0704D50F4B45F82430184670BD304658
:1011F000FFF7C6FF0028F5D04FF4165339223821E7
:101200000848FFF77FFF3046FFF7CBFF064A074944
:101210000448FFF7A9FFE5E70023E6E7CC0200203A
:10122000F40C0020F80C0020C802002085100008F3
:1012300038B505460024FFF7BBFF0B4B43F82540AC
:1012400030B903F04FFF092303604FF0FF3038BD82
:1012500003685B699847051E04DA6D4203F042FF9C
:101260000560F2E72046F2E7CC020020FFF7E0BF7E
:1012700013B5CDE90021FFF79BFFDDE9002140B95F
:1012800003F030FF092303604FF0FF34204602B023
:1012900010BD0368DB689847041EF7DA644203F068
:1012A00021FF0460F0E708B5131E07DA03F01AFF08
:1012B000162303604FF0FF33184608BDFCD0FFF73C
:1012C000D7FF40EAE073F7E713B5CDE90021FFF758
:1012D0006FFFDDE9002140B903F004FF092303603B
:1012E0004FF0FF34204602B010BD03689B6898475A
:1012F000041EF7DA644203F0F5FE0460F0E7002A0A
:1013000008B503DBBDE80840FFF7DEBF03F0EAFEE7
:10131000162303604FF0FF3008BD13B5CDE900215F
:10132000FFF746FFDDE9002140B903F0DBFE0923AA
:1013300003604FF0FF34204602B010BD03681B6904
:101340009847041EF7DA644203F0CCFE0460F0E72D
:10135000FFF7E3BF10B5FFF72BFF30B903F0C2FE74
:10136000092303604FF0FF3010BD03689B69984765
:10137000041E04DA644203F0B5FE0460F2E70020C4
:10138000F2E700000A4D044608B52B68986803F0A0
:10139000F1FC2B68D86803F0EDFC0120FFF7DAFFC1
:1013A0000220FFF7D7FF0CB1FFF70CFBFEE700BFF1
:1013B000140C00201FB5039003F0F8F9039A0346BC
:1013C00020B9014600900348FFF73AFC05B05DF8EC
:1013D00004FB00BF1F01018003F0F0B9704700005B
:1013E000084B094998684FF00053C21802F1604257
:1013F000126843F8042B8B42F7D1024B4FF0005296
:101400009A60704700ED00E0C801002008B5FFF7C2
:10141000E7FFFFF75DFD02F06FF8FFF7DFFF08BDA4
:101420002DE9F74F4468064694F83A10002955D143
:1014300001684968884771680546096A81424DD04C
:10144000206A4FF0000EE168281AA6682562014064
:10145000374886428C4639D094F83BB00027A1FB30
:101460000001D4E90A5ABBF1000F46D0CBF12008A5
:1014700020FA0BFCABF1200E2D1801FA08F8ABF1A5
:10148000200921FA0EFE4AEB010A4CEA080CCBF1C6
:1014900020084CEA0E0C21FA0BFE0CFA09F90EFAA0
:1014A0000BF12CFA08F80CFA0BF041EA09012B1A9F
:1014B00041EA080100936AEB01030193DDE900238F
:1014C000BB4208BFB2420CD2C4E90A23D4E90C01E2
:1014D00010EB0C0041EB0E01C4E90C0103B0BDE8B8
:1014E000F08F1CF1010C009B4EF1000E9A1B019B2A
:1014F00063EB0703C4E90A23E8E732463B4602F000
:10150000C5FF12EB050884468E4643EB0A09B94530
:1015100008BFB04502D2C4E90A89D7E710F1010C2F
:1015200041F1000EB8EB060269EB0703E2E700BFEA
:1015300040420F00824206D98A420BD9884294BFAA
:10154000002001207047884206D98A428CBF0020C3
:101550000120704701207047002070472DE9F74FA8
:10156000D0F80480074698F83A30002B7ED198F8DE
:101570003930002B7AD1FFF753FF7E683A687368E1
:101580000192002B64D0D6E90C01D3E900239942E3
:1015900008BF904205D3019B5B6903B0BDE8F04FE3
:1015A0001847141AD6F8109063EB0105D6E9062304
:1015B000AB4208BFA24206D3B2682E4B9A4219D161
:1015C000A14528BFA146326A019B9144F2681B697C
:1015D00009EA02021046019298473B685B68984707
:1015E000019A0146D8F82000FFF7A4FF00283DD05B
:1015F0003B68D1E796F83B30EBB1A3F1200CC3F187
:10160000200205FA03F104FA03F004FA0CFC24FAB0
:1016100002F2194C002341EA0C0100194FF00004BA
:1016200041EA0201134A44EB010102F02FFF814518
:1016300028BF8146C7E7A2FB04AB0F480021002367
:1016400002FB05BB1AEB00000A4A4BEB0101ECE779
:10165000D8F81030D8F82000D8F80C201844019B96
:1016600010401B6903B0BDE8F04F184703B0BDE858
:10167000F08F00BF40420F003F420F00436893F8D5
:1016800038202DE9F04F054685B0002A62D193F845
:101690003A30002B5ED103681B6898472B68DB69E2
:1016A000984703682BB91A4619462C480093FFF750
:1016B000C7FA1F21012202FA01F45FFA81FAA3425C
:1016C00002D00139F7D18A464668321F1C2A05D953
:1016D000002323481A4619460093E8E71C460727CB
:1016E0000023204914F1FF3807FA02F7224643F19C
:1016F000FF39C1FB0789404649464FF0000802F018
:10170000C5FE6B682A688946834603935268C3E91D
:10171000008890470122039B002102FA06F6186216
:1017200000206B68013EC3E90A01C3E90C019C601B
:10173000284683F83BA01A8783F83A80C3E90367F9
:10174000C3E906B9FFF76CFE284605B0BDE8F04FC7
:10175000FFF704BF05B0BDE8F08F00BF0E010480A5
:101760000501048040420F0070B50446FFF7A8F958
:101770002368DB689847636893F83A201AB1BDE89C
:101780007040FFF7A7B9012283F8392063685B68CE
:10179000A3B12046FFF744FE65686E68D5E90C01E9
:1017A000D6E90023994208BF904207D3F3686B60E3
:1017B0002B68002BEAD0B0689847E7E763680022FF
:1017C000204683F83920FFF7C9FED8E738B504462C
:1017D000FFF754FFFFF774F92046FFF721FE636817
:1017E000D3E90C45FFF776F92046294638BD704706
:1017F000004870471C5C0008024B1B680BB1024894
:1018000018477047D00300201C5C0008034B596A3E
:101810005A6A521A8242FBD3704700BF000C004044
:1018200091FAA1F3B3FA83F391FAA1F130B55B0019
:101830000325B1FA81F1846805FA03F3490024EA2B
:1018400003038A401343836030BD91FAA1F3B3FAD6
:1018500083F391FAA1F130B55B000325B1FA81F170
:10186000C46805FA03F3490024EA03038A401343DA
:10187000C36030BD012A02D0022A18BF0022FFF740
:10188000E4BF00002DE9F84300F00F02C1F3831814
:101890003B4B1FFA80F9C0F3031001F0070653F821
:1018A00022700D46FEF780FFB8F10F0F394604464F
:1018B0000CBF03224246FFF7B3FF022E2BD0032EAC
:1018C0005BD0711E4B424B4197FAA7F2B2FA82F2FB
:1018D00003202168013E5200012E00FA02F221EAA3
:1018E000020197FAA7F2B2FA82F24FEA420203FA31
:1018F00002F343EA0103236005D863682A074CBF5B
:101900003B43BB436360C5F3011239462046BDE843
:10191000F843FFF7AFBF19F0080FC5F3832217D0C4
:101920003B0A4FF00F0C93FAA3F1B1FA81F1406A30
:1019300093FAA3F38900B3FA83F30CFA01F19B0045
:1019400020EA010102FA03F30B4363620223BBE7BF
:1019500097FAA7F1B1FA81F1036A0F20890000FA22
:1019600001F123EA010197FAA7F3B3FA83F39B008D
:1019700002FA03F30B432362E8E73346A4E700BF10
:10198000485C000800F00F02C0F3031038B51E4B8E
:101990000C4653F82250FEF707FF95FAA5F2B2FA6B
:1019A00082F301685A000323934095FAA5F2B2FA34
:1019B00082F20B405200D340013B012B1AD8E31EA8
:1019C000022B436809D82B43032C43601AD1012210
:1019D0002946BDE83840FFF74DBF23EA0503012C37
:1019E0004360F4D0022C0BD029460022BDE83840D9
:1019F000FFF72BBF04F0FD03012BE8D0052CF1D13C
:101A00000222E5E7052CEEE7485C000842687023F7
:101A10005343054AD358DA69120701D508221A62DE
:101A2000D869C0F340107047480F00204268702307
:101A30005343034AD358D869C0F3C010704700BF5E
:101A4000480F002003464168702210B44A431C68C6
:101A50001349545050189A684260DA6882601A69D3
:101A6000C2605A6902611A6A82610022A0F852209B
:101A7000C261A0F85020A0F85A20A0F85820B3F96D
:101A80001A20013205D108235DF8044B436101F0AF
:101A900096BBB3F9183001330CBF04230C23F3E7D2
:101AA000480F00208160FFF7CDBF0000184B98421F
:101AB0001FD0A3F54C4398421DD003F58063984294
:101AC0001BD003F58063984219D003F580639842D8
:101AD00017D003F54443984215D0A3F51C43984210
:101AE00013D003F58063984214BF4FF0FF300720F6
:101AF0007047002070470120704702207047032084
:101B0000704704207047052070470620704700BFCB
:101B100000100140F0B50E46154689B004466049F4
:101B20003046FFF771FA07465E492846FFF76CFA20
:101B300001463846FFF746FA382E20600AD0392D84
:101B400008D057493820FFF75FFAB84220D15648ED
:101B5000FFF762F801272068544B98421AD103F529
:101B600094335A6C42F010025A645B6C03F0100319
:101B70000093009B4E4B984269D14E4B5A6C42F0F9
:101B800020025A645B6C03F020030593059B18E068
:101B90000027E0E7484B984244D003F58063984221
:101BA0004BD0464B984260D0454B9842E2D1414BD6
:101BB0001A6C42F480121A641B6C03F480130493B1
:101BC000049BFFF773FF364960603046FFF7D8F992
:101BD00028463449FFF7D4F9701C03D00121304660
:101BE000FFF7D0FE691C03D001212846FFF7CAFE8B
:101BF00000234FF416522046268323626583C4E9EE
:101C00000223C4E90433FFF71DFF002F45D02D4BFD
:101C1000012221462C481A604C2209B0BDE8F04050
:101C200003F0DEBA234B1A6C42F400321A641B6CC8
:101C300003F400330193019B9CE71E4B1A6C42F4A2
:101C400080221A641B6C03F480230293029B1F4BB7
:101C5000984214D1174B1A6C42F080421A641B6CE4
:101C600003F080430693069BABE7124B1A6C42F4D9
:101C700000221A641B6C03F400230393039B144B90
:101C800098429ED10B4B1A6C42F000421A641B6CB6
:101C900003F000430793079B93E709B0F0BD00BF33
:101CA0001859000870580008885C000800100140AE
:101CB000001401400038024000440040004C004045
:101CC00000500040400D0020FC0E00200078004035
:101CD000007C004038B5044645682046FFF796FE74
:101CE0000028FAD07023034A6B43D358586AC0F3D4
:101CF000080038BD480F002070B505460C46466800
:101D00002846FFF793FE0028FAD07023034AC4F355
:101D100008047343D3589C6270BD00BF480F002075
:101D2000DFF820D0002103E0074B5B58435004311B
:101D30000648074B42189A42F6D301F093FAFEF791
:101D40008DFA704700000520485D0008C802002099
:101D5000280C0020FEE7704708B5094B03201A68DD
:101D600042F400721A601A6842F480721A6000F03D
:101D7000FFF90F20FEF7F6FDFFF7EDFF002008BD8D
:101D8000003C02407047000010B50446002800F0F7
:101D90009980036C23B9436480F83C30FFF7F2FF6D
:101DA000236CDB0600F18C80236C23F4885323F032
:101DB000020343F002032364434B5A6822F4403287
:101DC0005A605A6861680A435A60236821695A68F0
:101DD00022F480725A605A6842EA0122A1685A606D
:101DE0005A6822F040725A605A680A43E1685A60A1
:101DF0009A6822F400629A609A680A4333499A60AA
:101E0000A26A8A4250D0996821F0706199609968FD
:101E10000A43E16A9A609A6822F040529A609A688E
:101E20000A439A609A68A16922F002029A609A684D
:101E300042EA41029A60226A002A3DD05A68616AE9
:101E400042F4006201395A605A6822F460425A60D2
:101E50005A6842EA41325A600020DA6AE16922F4A3
:101E600070020139DA62DA6A42EA0152216BDA62FF
:101E70009A6822F400729A609A6842EA4122616983
:101E80009A609A6822F480629A609A6842EA812293
:101E90009A606064236C23F0030343F0010323641E
:101EA000002384F83C3010BD9A6822F070629A607A
:101EB0009A6822F04052B4E75A6822F40062CAE7F6
:101EC0000120EDE70120EEE7002301400100000FB3
:101ED000002382B0019390F83C30012B4ED00123B7
:101EE00080F83C3003689A68D10705D59A68D20714
:101EF00014D4002002B070479A68214942F00102D0
:101F00009A60204A1268B2FBF1F202EB420201929F
:101F1000019A002AEAD0019A013AF8E7026C22F409
:101F2000E06222F0010242F4807202645A685105B4
:101F300005D5026C22F4405242F480520264026CD5
:101F400012F4805202D0426C22F006024264002257
:101F500080F83C206FF022021A600B4A5268D206C9
:101F600008D1986810F04050C3D19A6842F080427E
:101F70009A60BFE7054A9342BBD1F2E70220B9E776
:101F800040420F00D4030020002301400020014004
:101F900003689A6870B5560504460D460BD59B68D4
:101FA000D80508D5236C012043F0200323640023C7
:101FB00084F83C3070BDFEF7DBFC064623681A68E7
:101FC00092070CD56FF012021A60226C42F4007274
:101FD00022649A6812F0405F13D00020EAE7691C7F
:101FE000EDD045B9236C032043F0040323640023A0
:101FF00084F83C30DEE7FEF7BBFC801BA842DDD94D
:10200000F0E7A269002AE8D1DA6A12F4700F02D070
:102010009B685B05E1D4236C23F480732364206CFC
:1020200010F48050D9D1236C43F001032364C1E73D
:102030000368D86C704700000023F7B5019390F84F
:102040003C30012B6DD0012380F83C300C680368D4
:10205000092C8E68A5B238D905EB45024FF0070C64
:10206000DF681E3A0CFA02FC27EA0C07DF603B4FE0
:10207000BC4225D1DA6842EA0662DA60496806297C
:1020800001EB810231D8053A1F26596B964005FABB
:1020900002F221EA06015963596B0A435A63304A36
:1020A000934207D1122C3ED1D2F8043343F480037B
:1020B000C2F80433002380F83C30184603B0F0BD6A
:1020C000DF6806FA02F23A43D7E704EB44024FF026
:1020D000070C1F690CFA02FC06FA02F227EA0C0749
:1020E0001F611F693A431A61C8E70C294FF01F01AD
:1020F0000BD8233A1E6B914005FA02F226EA010141
:102100001963196B0A431A63C9E7413ADE6A9140C1
:1021100005FA02F226EA0101D962D96A0A43DA62B3
:10212000BDE70220CAE70D4B9C4201D0112CC1D162
:102130000C499C424A6842F400024A60BAD10A4BF8
:102140000A4A1B68B3FBF2F20A2353430193019B33
:10215000002BAFD0019B013BF8E700BF120000103D
:102160000020014000230140D403002040420F0022
:1021700007490302CA6803F4E06322F4E062120430
:10218000120C134343F0BF6343F40033CB6070473A
:1021900000ED00E0194B37B51A6C194C42F0805233
:1021A0001A641B6C03F080530193019B236843F472
:1021B00080332360FEF7DCFB05466368DA030CD549
:1021C00023680F4D43F400332360FEF7D1FB044630
:1021D0006B689B030AD5002006E0FEF7C9FB401B95
:1021E000B0F57A7FE9D9032003B030BDFEF7C0FB1C
:1021F000001BB0F57A7FEBD9F5E700BF003802404D
:10220000007000402DE9F341044618B9012002B0E6
:10221000BDE8F0810368D80710D42368990761D41A
:102220002368190700F1A88023685A0700F1C980C4
:10223000A269002A40F032810020E8E7954B9A68B5
:1022400002F00C02042A07D09A6802F00C02082A55
:102250000AD15A68520207D58E4B1B689B03DCD506
:102260006368002BD9D1D1E76268B2F5803F11D104
:102270001A6842F480321A60FEF77AFB854E0546F2
:1022800033689F03C9D4FEF773FB401BC828F7D9F6
:102290000320BCE77F4D2B6892B923F480332B6079
:1022A0002B6823F480232B60FEF762FB06462B6825
:1022B0009803B2D5FEF75CFB801BC828F7D9E7E787
:1022C000B2F5A02F07D143F480232B602B6843F491
:1022D00080332B60D0E723F480332B602B6823F40A
:1022E0008023F6E76B4B9A6812F00C0F07D09A68C0
:1022F00002F00C02082A12D15A6851020FD4654B21
:102300001A68920703D5E268012A7FF47FAF1A6842
:10231000216922F0F80242EAC1021A6080E7E2680D
:10232000C2B11A685B4D42F001021A60FEF720FB51
:1023300006462B689F0707D52B68226923F0F80310
:1023400043EAC2032B606BE7FEF712FB801B0228F7
:10235000EFD99DE71A684F4E22F001021A60FEF78E
:1023600007FB0546336898077FF55AAFFEF700FB79
:10237000401B0228F6D98BE76369464D83B16B6F2A
:1023800043F001036B67FEF7F3FA06466B6F9B079A
:102390003FF54AAFFEF7ECFA801B0228F6D977E743
:1023A0006B6F23F001036B67FEF7E2FA06466B6F73
:1023B0009F077FF539AFFEF7DBFA801B0228F6D9BD
:1023C00066E7344B1A6CD00027D41A6C012742F010
:1023D00080521A641B6C03F080530193019B2E4DB5
:1023E0002B68D9051BD5A3682A4D012B27D12B6F4C
:1023F00043F001032B6741F28838FEF7B9FA254E06
:102400000546336F9B073FD5002F3FF411AF214A9C
:10241000136C23F0805313640AE70027DFE72B686F
:1024200043F480732B60FEF7A3FA06462B68DA05A7
:10243000D9D4FEF79DFA801B6428F7D928E7ABB9F9
:102440002B6F41F2883823F001032B672B6F23F0A9
:1024500004032B67FEF78CFA06462B6F9807D3D53B
:10246000FEF786FA801B4045F7D911E7052B2B6F45
:1024700003D143F004032B67B9E723F001032B6773
:102480002B6F23F00403B5E7FEF772FA401B4045BB
:10249000B7D9FDE60038024000700040244DAB681B
:1024A00003F00C03082B3FF4B1AE2B68022A23F093
:1024B00080732B602ED1FEF75BFA06462B689901DC
:1024C00022D4A36A5B085A1ED4E907310B4343EABE
:1024D0000243626A43EA8213E26A43EA026343F018
:1024E00000536B602B6843F080732B60FEF740FA5B
:1024F0000F4D04462B689A013FF59EAEFEF738FA61
:10250000001B0228F6D9C3E6FEF732FA801B022828
:10251000D4D9BDE6FEF72CFA04462B689B017FF563
:102520008BAEFEF725FA001B0228F6D9B0E600BFF5
:1025300000380240134908B58B6803F00C03042BE4
:102540001BD0082B1BD14A684B68496802F03F0238
:1025500013F48003C1F388111ABF0B4800230B4802
:10256000A1FB000101F092FF064B5B68C3F301433E
:1025700001335B00B0FBF3F008BD0348FCE7034800
:10258000FAE700BF0038024000127A000024F4008D
:102590002DE9F0410D46044610B90120BDE8F08157
:1025A000454A136803F00F038B4227D3226897072D
:1025B0002FD4D00743D4404A136803F00F03AB4233
:1025C00066D8226851076FD4130707D53B4A2169A3
:1025D000936823F4604343EAC1039360FFF7AAFFC3
:1025E000364B374A9B68C3F30313D35CD840354B53
:1025F00018600F20FEF7B6F90020CFE7136823F02C
:102600000F030B431360136803F00F038B42C4D115
:10261000CCE712F0040F294B03D0996841F4E05144
:102620009960160703D5996841F460419960234980
:10263000A0688B6823F0F00303438B60B9E76168FF
:102640001E4B01291A681BD112F4003FA5D09A68CD
:1026500041F28838194F22F003020A439A60FEF7CC
:1026600087F90646BB68626803F00C03B3EB820F80
:10267000A1D0FEF77DF9801B4045F3D903208DE7FB
:10268000022902D112F0007FE0E712F0020FDDE72D
:10269000136823F00F032B431360136803F00F0339
:1026A000AB427FF47AAF8CE70449E0688B6823F48F
:1026B000E05303438B6087E7003C02400038024050
:1026C000E15C0008D4030020044B054A9B68C3F377
:1026D0008223D35C034A1068D84070470038024018
:1026E000F15C0008D4030020044B054A9B68C3F347
:1026F0004233D35C034A1068D84070470038024028
:10270000F15C0008D40300200F2303600B4B9A6890
:1027100002F0030242609A6802F0F00282609A6856
:1027200002F4E052C2609B68DB0803F4E0530361EB
:10273000034B1B6803F00F030B6070470038024027
:10274000003C024003682DE9F74313F001060446FC
:102750000BD0AB4A916821F400019160466B9168FF
:102760003143B6FA86F67609916013F4002512D04B
:10277000A349E56BD1F88C20B5F5801F22F44012F7
:1027800008BF012642EA050216BFB5FA85F5002505
:102790006D09C1F88C20D80210D59948216CD0F869
:1027A0008C20B1F5800F22F4400242EA0102C0F809
:1027B0008C2000F08681002908BF012513F0807F5E
:1027C00018BF0126990631D58D4B8E4F1A6C42F0F9
:1027D00080521A641B6C03F080530193019B3B6889
:1027E00043F480733B60FEF7C3F880463B68DA052C
:1027F00040F16981824F3B6F13F4407340F06E816A
:10280000236B03F44072B2F5407F7D4A40F08C8127
:10281000916823F0704021F4F81120F440700143D6
:102820009160C3F30B03116F0B4313672368D90641
:102830000CD5734AD2F88C1021F08071C2F88C103C
:10284000D2F88C10A06B0143C2F88C105A0408D542
:102850006B49606ED1F8902022F440320243C1F8F7
:1028600090201F0408D56649A06ED1F8902022F46C
:1028700040220243C1F89020D80308D56049E06E99
:10288000D1F8902022F440120243C1F8902099031D
:1028900008D55B49206FD1F8902022F44002024312
:1028A000C1F890205A0608D55549606CD1F890209F
:1028B00022F003020243C1F890201F0608D55049B8
:1028C000A06CD1F8902022F00C020243C1F89020B5
:1028D000D80508D54A49E06CD1F8902022F03002A2
:1028E0000243C1F89020990508D54549206DD1F8DB
:1028F000902022F0C0020243C1F890205A0508D56A
:102900003F49606DD1F8902022F440720243C1F833
:1029100090201F0508D53A49A06DD1F8902022F4E7
:1029200040620243C1F89020D80408D53449E06DD4
:10293000D1F8902022F440520243C1F8902099042B
:1029400008D52F49206ED1F8902022F4404202434E
:10295000C1F890205A0208D52949A06FD1F89020DB
:1029600022F080620243C1F890209F020CD52448D7
:10297000E16FD0F89020B1F1006F22F0006208BF43
:1029800001250A43C0F8902013F0080F18BF012555
:10299000580308D51A49606FD1F8902022F0407290
:1029A0000243C1F89020190209D51549D4F88000D6
:1029B000D1F8902022F080520243C1F89020012EDD
:1029C00000F0B680B3F1007F00F0B280012D76D127
:1029D0000B4D2B682E4623F080532B60FDF7C8FF6C
:1029E00007462B689B0000F127812268150301D55B
:1029F000E36B4BB1D00222D5236C03BB04E000BFD4
:102A00000038024000700040D6F88830D6F88810B0
:102A100003F4403301F0E0410B43616943EA811361
:102A2000A16943EA0163C6F88830D6F88C30A16A00
:102A300023F4F853013943EA0123C6F88C3091029C
:102A400015D5E36FB3F1006F11D18249D1F8883009
:102A5000D1F8880003F0706300F0E0400343606940
:102A600043EA8013206A43EA0043C1F88830120722
:102A700019D5784AD2F88810D2F8883001F0706100
:102A800003F440330B43616943EA8113E16943EA8C
:102A90000173C2F88830D2F88C30E16A23F44033F5
:102AA0000B43C2F88C306B4C236843F08053236097
:102AB000FDF75EFF054623689B0040F1C4800020BF
:102AC00009E001267AE6FDF753FFA0EB0800642831
:102AD0007FF68CAE032003B0BDE8F083226B02F4D6
:102AE000407293423FF48CAE3B6F3A6F23F44073D5
:102AF00042F480323A673A6F22F480323A673B6799
:102B00003B6FDB077FF57CAEFDF732FF41F2883982
:102B100080463B6F98073FF573AEFDF729FFA0EBAA
:102B200008004845F5D9D5E7916821F4F81177E612
:102B3000484E336823F080633360FDF719FF074682
:102B400033681A0172D42268D30712D5636B83B934
:102B5000D6F88430D6F8841003F4403301F0706165
:102B60000B43616843EA8113A16843EA0173C6F825
:102B70008430170303D5E36BB3F5801F05D0D6026D
:102B80001ED5236CB3F5800F1AD13249D1F88430A9
:102B9000D1F8840003F4403300F0E0400343606860
:102BA00043EA8013E06843EA0063C1F88430D1F857
:102BB0008C00636A20F01F00013B0343C1F88C3096
:102BC000D00111D52349D1F88430D1F8840003F025
:102BD000706300F0E0400343606843EA80132069BB
:102BE00043EA0043C1F8843091010DD5236962683E
:102BF0001B0443EA8213E26843EA0263A26843EAE1
:102C00000273144AC2F88430124E336843F0806372
:102C10003360FDF7ADFE074633681A013FF5D6AEC7
:102C2000FDF7A6FEC01B6428F6D953E7FDF7A0FE0A
:102C3000C01B642884D94DE7FDF79AFEC01B6428A9
:102C40007FF6CFAE46E7FDF793FE401B64287FF684
:102C500032AF3FE70038024070470000304A036857
:102C6000904212D0B0F1804F0FD0A2F57C4290423A
:102C70000BD002F58062904207D002F5806290424C
:102C800003D002F57842904219D14A6823F07003CC
:102C90001343234A904229D0B0F1804F26D0A2F5A9
:102CA0007C42904222D002F5806290421ED002F512
:102CB000806290421AD002F57842904216D0194AAA
:102CC000904213D002F5806290420FD002F58062EC
:102CD00090420BD0A2F59832904207D002F5806264
:102CE000904203D002F58062904203D123F44073F6
:102CF000CA6813434A6923F08003134303608B6857
:102D0000C3620B688362064B984203D003F580636D
:102D1000984201D10B69036301234361704700BFEF
:102D2000000001400040014010B50446A0B190F8F9
:102D30003D3003F0FF021BB980F83C20FFF78CFF09
:102D400002232068211D84F83D30FFF787FF01230F
:102D5000002084F83D3010BD0120FCE710B50124AF
:102D6000036A8C4002FA01F123EA04030362036A56
:102D70000B43036210BD000010B504460122006839
:102D8000FFF7ECFF2368084A934203D002F5806204
:102D9000934203D15A6C42F400425A641A680020EC
:102DA00042F001021A6010BD0000014070472DE999
:102DB000F041DDF8188004460E4615461F4622688D
:102DC000D36936EA03030CBF01230023AB4201D0D1
:102DD000002017E0B8F1FF3FF2D0B8F1000F13D197
:102DE000236803201A6822F4D0721A609A6822F0CD
:102DF00001029A60202384F8693084F86A30002345
:102E000084F86830BDE8F081FDF7B2FDC01B404595
:102E1000D5D3E5E738B5C26904460368816800691F
:102E20001D680143606901439E4811432840256A9B
:102E30000143E0681960596821F440510143596029
:102E4000A1699868294320F430600143996096494C
:102E50008B421DD101F59431D1F8901001F003019E
:102E60000139022900F2FF809048B2F5004F415C21
:102E700040F0AB80082900F2A580DFE811F0E20005
:102E8000F700FD00A3000901A300A300A300320086
:102E900087498B4207D101F5FA318648D1F8901065
:102EA00001F00C01E1E784498B421FD101F5F831B3
:102EB000D1F8901001F03001202900F0DA800AD812
:102EC000002900F0BB80102900F0DF80B2F5004F30
:102ED00078D00120C6E03029F8D1B2F5004F40F09B
:102EE000A8806268530803F58033CBE073498B42B6
:102EF00010D101F5F631D1F8901001F0C001802910
:102F000000F0B78004D8002900F098804029DBE762
:102F1000C029E1E76A498B4213D101F5F431D1F8B8
:102F2000901001F44071B1F5007F00F0A28005D847
:102F3000002900F08380B1F5807FC5E7B1F5407FBF
:102F4000CAE760498B4213D101F59231D1F8901054
:102F500001F44061B1F5006F00F08B8005D80029C5
:102F600000F08180B1F5806FAEE7B1F5406FB3E757
:102F700055498B4211D101F5E031D1F8901001F49F
:102F80004051B1F5005F74D004D8002956D0B1F596
:102F9000805F99E7B1F5405F9EE74C498B4295D140
:102FA00001F5DE31D1F8901001F44041B1F5004F48
:102FB0005FD004D8002941D0B1F5804F84E7B1F546
:102FC000404F89E70120002345E0082981D801A26C
:102FD00052F821F0F92F00081130000817300008CE
:102FE000D32E00082D300008D32E0008D32E000861
:102FF000D32E000833300008FFF766FBD4E9002326
:1030000000EB5300B0FBF3F080B2D060002029E069
:10301000FFF76AFBF2E761684A0802F5740202F5FD
:103020001052B2FBF1F292B2DA60EFE7FFF782FAE8
:10303000E4E761684A0802F50042F2E7B2F5004FA2
:10304000DAD1FFF741FB63685A0802EB4000B0FB9E
:10305000F3F39BB2002023F00F02C3F34203216875
:103060001343CB6038BDB2F5004FD1D1FFF73CFB25
:10307000E9E7B2F5004FCED16268530803F1F4736B
:1030800003F59043B3FBF2F3E3E7B2F5004FCDD184
:10309000FFF750FA61684A0802EB4003B3FBF1F313
:1030A000D7E700BFF369FFEF00100140BD5C0008E7
:1030B00000440040C05C000800480040004C004054
:1030C000005000400014014000780040007C0040A7
:1030D000436ADA0710B506D50168846A4A6822F4A3
:1030E000003222434A609C0706D50168C46A4A68D8
:1030F00022F4803222434A60590706D50168046BE6
:103100004A6822F4802222434A601A0706D50168E1
:10311000446B4A6822F4004222434A60DC0606D52A
:103120000168846B8A6822F4805222438A6099067F
:1031300006D50168C46B8A6822F4005222438A6073
:103140005A0610D50168046C4A68B4F5801F22F451
:10315000801242EA04024A6005D14A68446C22F4B3
:10316000C00222434A601B0606D50268816C536880
:1031700023F400230B43536010BD37B500250446EC
:10318000C566FDF7F5FB226803461268120709D4ED
:103190002023002084F8693084F8680084F86A30BD
:1031A00003B030BD6FF07E424FF400112046009214
:1031B0002A46FFF7FCFD0028EAD00320F0E710B50F
:1031C000044660B390F8693003F0FF021BB980F841
:1031D0006820FFF7EBFD22682423204684F869303D
:1031E000136823F001031360FFF714FE012816D0C3
:1031F000636A13B12046FFF76BFF236820465A68C5
:1032000022F490425A609A6822F02A029A601A6860
:1032100042F00102BDE810401A60FFF7AEBF012086
:1032200010BD10B50223A6B00F2200240721684666
:10323000CDE900234FF4A053CDE902434FF480536E
:103240000493FFF7A5F958B94FF40013249005A88B
:103250000593FFF777FAB0FA80F0400926B010BD69
:103260002046FBE70E490020D1F8883043F4700374
:10327000C1F888300B4B1A6842F001021A6098605E
:103280001A6822F0847222F480321A60064A5A6068
:103290001A6822F480221A60D860044B8B60704751
:1032A00000ED00E00038024010300024000000086B
:1032B0001D4B00284FF004011A6C42F0805200B5FB
:1032C0001A648FB01B6C02A803F080530093009B1C
:1032D000164B1A6842F440421A604FF480021B6891
:1032E00003F440430193019B4FF0010302930CBF91
:1032F0004FF480334FF4A02303930223CDE9083227
:103300000C93D8220923CDE90A120D93FEF77AFF18
:1033100018B100200FB05DF804FBFEF73BFF00285A
:10332000F7D1FFF77EFFF5E700380240007000405C
:10333000154B082010211A6C42F0805200B51A6417
:103340008FB01B6C0122069103F08053059200227E
:103350000193019B0223039202930C93CDE908325F
:10336000D8220923CDE90A0202A80D93FEF74AFFED
:1033700018B100200FB05DF804FBFEF70BFF00282A
:10338000F7D1FFF74EFFF5E70038024008B50120FE
:10339000FFF78EFF28B9FFF7CBFF10B90148FDF703
:1033A0003BFC08BDCD5C0008174A1849936803F040
:1033B0000C03042B10B50DD0082B0DD0144B0B6053
:1033C000114B144A9B68C3F30313D25C0B68D340C0
:1033D0000B6010BD104BF2E75468506863025268EE
:1033E00000F03F0048BF0C4BC2F3881258BF084B97
:1033F000B3FBF0F35343044A5268C2F30142013273
:103400005200B3FBF2F3DAE700380240D4030020A5
:103410000024F400E15C000800127A00074B084A1F
:1034200013601A69910707D5DA68920704D56FF01F
:1034300002021A61FEF7E0B9704700BF000C0040BD
:10344000C812002000487047FC5C000830B589B005
:10345000234C01A903A8FFF757F9FFF735F9214BD2
:1034600001901A6C42F008021A641A6C02F0080209
:103470000292029A1A6A42F008021A621A6A22F04A
:1034800008021A62A3F50B33069A23604FF0FF334C
:10349000E360154B0ABB0025B0FBF3F00138256152
:1034A000A56060600E48C4E90555FFF73DFC0F4B71
:1034B0000F4A9B68C3F80821BFF34F8F0D4B4FF4A1
:1034C00080225A6006482946FFF756FC2268D368D6
:1034D00023F00203D36009B030BD4000DBE700BF3A
:1034E000C81200200038024040420F0000ED00E00A
:1034F0001D34000800E100E0044800210268D368A0
:1035000023F00203D360FFF737BC00BFC8120020CE
:10351000014B586A704700BF000C0040054B6FF02C
:1035200002021B6858631A61DA6842F00202DA602C
:10353000704700BFC8120020064B6FF002021B68E4
:103540001A615A6942F002025A61DA6842F00202D4
:10355000DA607047C8120020034B1A68D36823F062
:103560000203D360704700BFC8120020024B6FF007
:1035700002021B681A617047C812002010B584B09F
:1035800001902949019A13465B0013449B000B44A8
:1035900008331B78002B2DD15020FDF70BFF03467D
:1035A0001C462149019A13465B0013449B000B44BF
:1035B000B3F9003019462046FCF7BEFE1A49019ABD
:1035C00013465B0013449B000B4404331C601649F4
:1035D000019A13465B0013449B000B4408330322FB
:1035E0001A70019A13465B0013449B000E4A134461
:1035F000039315E00C49019A13465B0013449B00AA
:103600000B4408331B78032B08D1019A13465B0047
:1036100013449B00044A1344039301E000230393E3
:10362000039B184604B010BD0004002084B0039032
:103630000B4601928DF80B3000BF04B0704700B507
:1036400089B00390029113468DF80730039B0593D0
:10365000059B002B0ED0059B5B681846FCF740FECF
:1036600010EE103A184600F031FE02460B46CDE946
:10367000062305E04FF000024FF00003CDE90623DA
:103680000299DDE90623C1E9002300BF09B05DF816
:1036900004FB82B0019000BF02B0704782B001907D
:1036A00000BF02B0704700B585B00190019B039345
:1036B000039B002B0ED0039B5B68002B04D01A6881
:1036C0000432126818469047039B00225A60039BFD
:1036D00000221A7200BF05B05DF804FB82B00190B1
:1036E0000091009B002B05D0019B9B68019A1268FA
:1036F0001A6005E0019B1A68019BDB6812041A60DE
:1037000000BF02B0704700B583B001900B46ADF822
:103710000230019B1A460023136053609360D3600C
:10372000136153619361019BBDF902201146184654
:10373000FDF7B5FB019B184603B05DF804FB00B52F
:1037400083B001900B46ADF80230019B1A4600236E
:10375000136053609360D360136153619361019B65
:10376000BDF9022011461846FDF7AEFB019B184635
:1037700003B05DF804FB00B583B001900091019B9C
:1037800000991846FFF7AAFF00BF03B05DF804FBDD
:1037900010B584B001900B468DF8033000230393DD
:1037A0005849019A13465B0013449B000B440833AD
:1037B0001B78002B5BD19DF80330002B25D11C20FA
:1037C000FDF7F8FD03461C464E49019A13465B007F
:1037D00013449B000B44B3F9003019462046FFF711
:1037E00092FF4849019A13465B0013449B000B4427
:1037F00004331C604349019A13465B0013449B0049
:103800000B44083301221A7028E09DF80330012B85
:1038100024D11C20FDF7CEFD03461C463949019AF0
:1038200013465B0013449B000B44B3F90030194668
:103830002046FFF784FF3349019A13465B00134487
:103840009B000B4404331C602E49019A13465B0015
:1038500013449B000B44083302221A70019A13464A
:103860005B0013449B00274A1344039345E025491A
:10387000019A13465B0013449B000B4408331B78EA
:10388000012B0CD19DF80330002B08D1019A13466F
:103890005B0013449B001B4A134403932DE019491A
:1038A000019A13465B0013449B000B4408331B78BA
:1038B000022B0CD19DF80330012B08D1019A13463D
:1038C0005B0013449B000F4A1344039315E00D491A
:1038D000019A13465B0013449B000B4408331B788A
:1038E0000A2B08D1019A13465B0013449B00054A3A
:1038F0001344039301E000230393039B184604B091
:1039000010BD00BF0004002000B585B001900B463B
:103910008DF80330019B0393019B002B07D0039B81
:103920005B689DF8032011461846FFF724FF00BF8F
:1039300005B05DF804FB00B585B00190019B0393D1
:10394000039B1B7A022B0BD1039B5B68002B03D0DC
:103950001C211846FDF740FD039B00221A720EE061
:10396000039B1B7A012B0AD1039B5B68002B03D0BE
:103970001C211846FDF730FD039B00221A7200BF80
:1039800005B05DF804FB000008B50F4B1B785A1C0E
:10399000D1B20D4A1170002B09D00C4B01221A60D4
:1039A000094B1B78013BDAB2074B1A700BE062B689
:1039B00000BF00F05FF872B600BF034B1B78013BFD
:1039C000DAB2014B1A7008BD480D0020440D0020EA
:1039D00000B583B0224B0193224B0093224B00226F
:1039E0001A70224B00221A7001DFFEF7B5F9FFF7BB
:1039F000DBFC00F0E3F91E4B1B6800221A6000F0AC
:103A0000CFF872B600BF9DED010A00F057FA184BCF
:103A10001B681B68002B0CBF01230023DBB21A4676
:103A2000124B1A7062B600BF62B600BF0AE0104BBC
:103A30001B681B68002B14BF01230023DBB21A464E
:103A4000094B1A70094B1B78DBB2002BEFD100F049
:103A50002BF972B600BF0023184603B05DF804FBD3
:103A6000CDCCCC3D00005843490D00204A0D00202C
:103A7000045D000830B583B0464BD3E90401464BE2
:103A8000D3E9002300F0D0FC0346002B05D1424BC4
:103A9000D3E900233F49C1E904233E4BDB681846C4
:103AA000FFF7F7FD3B4BDB68694607221846FFF737
:103AB000C6FD384B9B6C184600F0F6FB364BD3E93D
:103AC000062300F0BBFC0346002B07D0314B9B6C58
:103AD000002B03DB304BD3E9022303E04FF000025D
:103AE0004FF00003CDE900232A4B9B6C184600F0F1
:103AF000DBFB04460D46284BD3E904014FF00002DE
:103B0000264B00F083FA02460B462046294600F079
:103B1000A9FC0346002B03D01E4B00229A6404E04C
:103B20001C4B9B6C01331B4A93641A4B5C6CDDE9A4
:103B3000000101231D464FF000024FF0000300F08A
:103B400073FC0346002B01D000231D46EBB219463F
:103B50002046FFF7D9FE0F4B5C6BDDE90001012326
:103B60001D464FF000024FF0000300F05DFC0346DD
:103B7000002B01D000231D46EBB219462046FFF76B
:103B8000C3FE044B5B6A00211846FFF7BDFE00BF71
:103B900003B030BD500D0020D80300200000F03FDE
:103BA00000B583B03D4B00221A60502200213C48F2
:103BB00001F03AFA3A4B00221A70394B012283F88D
:103BC0004F20384BD3E900233549C1E90423344B56
:103BD00001225A60102301930198FFF7CFFC03469E
:103BE0002F4AD36000238DF803302D4BDB689DF8FE
:103BF000031000221846FFF719FD294B01221A7203
:103C0000274B002283F83820254B012283F84E20D1
:103C1000234B0122DA634223019301210198FFF72C
:103C2000B7FD03461E4A53641D4B012283F8402012
:103C30001B4B002283F82820194B012283F84D20CA
:103C4000174B0122DA624B23019301210198FFF700
:103C50009FFD0346124A5363114B012283F8302023
:103C60000F4B00221A760E4B012283F84C200C4B8E
:103C70000122DA613223019301210198FFF788FDC7
:103C80000346074A5362064B012283F82020044B67
:103C900000229A6400BF03B05DF804FBA00D002071
:103CA000500D0020D803002008B52F4B1B78002BA7
:103CB00014D12D4B01221A702B4B5B68012B0DD1B7
:103CC000294B1B7A002B09D0274BDB681846FFF7DE
:103CD000E5FC254BDB681846FFF7E5FC224B93F823
:103CE0003830002B11D1204B012283F838201E4B95
:103CF000DB6B012B09D11C4B93F84030002B04D017
:103D0000194B5B6C1846FFF716FE174B93F82830DB
:103D1000002B11D1144B012283F82820124BDB6AAF
:103D2000012B09D1104B93F83030002B04D00E4BEF
:103D30005B6B1846FFF7FFFD0B4B1B7E002B10D172
:103D4000094B01221A76084BDB69012B09D1064B7E
:103D500093F82030002B04D0034B5B6A1846FFF722
:103D6000EAFD00BF08BD00BF500D002082B0034631
:103D700000918DF807309DF90730002B0ADB009B7E
:103D8000DAB20C499DF907301201D2B20B4483F824
:103D900000230BE0009BDAB207499DF8073003F0DF
:103DA0000F03043B1201D2B20B441A7600BF02B0DB
:103DB000704700BF00E100E000ED00E008B5FDF74E
:103DC000CBFF00216FF00400FFF7D0FF00BF08BD5C
:103DD00082B0034600918DF807309DF90730002B23
:103DE0000ADB009BDAB20C499DF907301201D2B20E
:103DF0000B4483F800230BE0009BDAB207499DF8DF
:103E0000073003F00F03043B1201D2B20B441A76C1
:103E100000BF02B0704700BF00E100E000ED00E02D
:103E200000B583B00190019B013BB3F1807F01D3CA
:103E300001230FE0094A019B013B53600F214FF022
:103E4000FF30FFF7C5FF054B00229A60034B0722A6
:103E50001A600023184603B05DF804FB10E000E090
:103E600008B5BFF34F8F00BFBFF36F8F00BF0C4B80
:103E70001A680C4B1B689A4202D3094B00221A6045
:103E8000074B1B685A1C06490A60002B05D172B605
:103E900000BFFFF779FD62B600BF00BF08BD00BFDD
:103EA000A40D0020A80D0020034B5B68024A43F0DC
:103EB0008053536000BF704700ED00E000B585B04F
:103EC0008DED010A224B1B6807EE903AB8EE677A37
:103ED000DDED017A67EE277AFCEEE77A17EE903A8D
:103EE0000393039BB3F1807F18D3039B07EE903AB3
:103EF000B8EE677ADFED176AC7EE267AFCEEE77A4E
:103F000017EE903A0133144A1360134B1B68039A5F
:103F1000B2FBF3F31846FFF783FF05E00E4B0022D8
:103F20001A600398FFF77CFF0C4B00221A600C4AC2
:103F30000C4B1A600F216FF00400FFF749FF0F21AF
:103F40006FF00100FFF744FF00BF05B05DF804FB10
:103F5000D4030020FFFF7F4BA80D0020A40D0020FC
:103F6000613E0008AC0D0020EFF3008001B5EFF3D7
:103F7000118003B41EF0100F08BFB0EE400A0A48CB
:103F8000006803B488B004A006904FF080700790DA
:103F90006FF006008646704703BC8047BFF36F8F03
:103FA00000DFFEE700BF0000AC0D00201EF0100F88
:103FB00008BFB0EE400A1EF0040F0CBFEFF30880FC
:103FC000EFF30980816911F8020C10B101280DD0BE
:103FD0000BE01EF0100F0CBF1AB008B003BC80F34A
:103FE000118803BC80F300880847FEE74EF61451A1
:103FF000CEF200010A6842F001020A607047F4E75D
:1040000000BF00BF81F0004102E000BF83F0004329
:1040100030B54FEA41044FEA430594EA050F08BF63
:1040200090EA020F1FBF54EA000C55EA020C7FEA27
:10403000645C7FEA655C00F0E2804FEA5454D4EBA4
:104040005555B8BF6D420CDD2C4480EA020281EA6E
:10405000030382EA000083EA010180EA020281EAA6
:104060000303362D88BF30BD11F0004F4FEA0131F8
:104070004FF4801C4CEA113102D0404261EB410107
:1040800013F0004F4FEA03334CEA133302D052428D
:1040900063EB430394EA050F00F0A780A4F1010449
:1040A000D5F1200E0DDB02FA0EFC22FA05F2801883
:1040B00041F1000103FA0EF2801843FA05F3594169
:1040C0000EE0A5F120050EF1200E012A03FA0EFCE8
:1040D00028BF4CF0020C43FA05F3C01851EBE37112
:1040E00001F0004507D54FF0000EDCF1000C7EEB2F
:1040F00000006EEB0101B1F5801F1BD3B1F5001F6D
:104100000CD349085FEA30004FEA3C0C04F101048B
:104110004FEA445212F5800F80F09A80BCF1004FB4
:1041200008BF5FEA500C50F1000041EB045141EA36
:10413000050130BD5FEA4C0C404141EB0101013CFF
:1041400028BFB1F5801FE9D291F0000F04BF0146EE
:104150000020B1FA81F308BF2033A3F10B03B3F1C0
:1041600020020CDA0C3208DD02F1140CC2F10C0250
:1041700001FA0CF021FA02F10CE002F11402D8BFAE
:10418000C2F1200C01FA02F120FA0CFCDCBF41EA7A
:104190000C019040E41AA2BF01EB0451294330BD49
:1041A0006FEA04041F3C1CDA0C340EDC04F1140426
:1041B000C4F1200220FA04F001FA02F340EA0300FD
:1041C00021FA04F345EA030130BDC4F10C04C4F143
:1041D000200220FA02F001FA04F340EA0300294623
:1041E00030BD21FA04F0294630BD94F0000F83F46D
:1041F000801306BF81F480110134013D4EE77FEA50
:10420000645C18BF7FEA655C29D094EA050F08BF9B
:1042100090EA020F05D054EA000C04BF194610467C
:1042200030BD91EA030F1EBF0021002030BD5FEAC0
:10423000545C05D14000494128BF41F0004130BDE8
:1042400014F580043CBF01F5801130BD01F000453C
:1042500045F0FE4141F470014FF0000030BD7FEAAF
:10426000645C1ABF194610467FEA655C1CBF0B46AA
:10427000024650EA013406BF52EA033591EA030FC1
:1042800041F4002130BD00BF90F0000F04BF0021B9
:10429000704730B54FF4806404F132044FF00005EC
:1042A0004FF0000150E700BF90F0000F04BF002165
:1042B000704730B54FF4806404F1320410F00045CB
:1042C00048BF40424FF000013EE700BF42004FEAC6
:1042D000E2014FEA31014FEA02701FBF12F07F4343
:1042E00093F07F4F81F06051704732F07F4208BFFA
:1042F000704793F07F4F04BF41F40021704730B501
:104300004FF4607401F0004521F000411CE700BF4C
:1043100050EA010208BF704730B54FF000050AE0CF
:1043200050EA010208BF704730B511F0004502D5D0
:10433000404261EB41014FF4806404F132045FEAD2
:10434000915C3FF4D8AE4FF003025FEADC0C18BF7B
:1043500003325FEADC0C18BF033202EBDC02C2F16D
:10436000200300FA03FC20FA02F001FA03FE40EAFF
:104370000E0021FA02F11444BDE600BF4FF0FF3CED
:1043800006E000BF4FF0010C02E000BF4FF0010C4F
:104390004DF804CD4FEA410C7FEA6C5C4FEA430CC8
:1043A00018BF7FEA6C5C1BD001B050EA410C0CBF17
:1043B00052EA430C91EA030F02BF90EA020F002079
:1043C000704710F1000F91EA030F58BF994208BFE0
:1043D00090422CBFD8176FEAE37040F0010070479D
:1043E0004FEA410C7FEA6C5C02D150EA013C07D1F4
:1043F0004FEA430C7FEA6C5CD6D152EA033CD3D03F
:104400005DF8040B704700BF8446104662468C4638
:104410001946634600E000BF01B5FFF7B7FF00286B
:1044200048BF10F1000F01BD4DF808EDFFF7F4FF94
:104430000CBF012000205DF808FB00BF4DF808ED1F
:10444000FFF7EAFF34BF012000205DF808FB00BF42
:104450004DF808EDFFF7E0FF94BF012000205DF864
:1044600008FB00BF4DF808EDFFF7CEFF94BF012019
:1044700000205DF808FB00BF4DF808EDFFF7C4FF12
:1044800034BF012000205DF808FB00BF53B94AB9D2
:10449000002908BF00281CBF4FF0FF314FF0FF304C
:1044A00000F070B9ADF1080C6DE904CE00F006F82B
:1044B000DDF804E0DDE9022304B070472DE9F047A0
:1044C000089E0D4604460F46002B4AD18A42944668
:1044D00065D9B2FA82F343B102FA03FCC3F12002B8
:1044E0009F4020FA02F217439C404FEA1C4E1FFAED
:1044F0008CF5B7FBFEF1220C0EFB117742EA074266
:1045000001FB05F090420AD91CEB020201F1FF37D2
:1045100080F01C81904240F2198102396244121AE3
:10452000A4B2B2FBFEF00EFB102244EA024400FBF0
:1045300005F5A5420AD91CEB040400F1FF3280F016
:104540000781A54240F204816444023840EA0140F8
:10455000641B00211EB1DC400023C6E90043BDE816
:10456000F0878B4208D9002E00F0ED800021C6E9CB
:1045700000050846BDE8F087B3FA83F1002949D168
:10458000AB4202D3824200F2F880841A65EB030248
:1045900001201746002EE2D0C6E90047DFE702B946
:1045A000FFDEB2FA82F3002B40F090808A1A4FEAC5
:1045B0001C471FFA8CFE0121B2FBF7F507FB152003
:1045C000220C42EA00420EFB05F0904208D91CEB97
:1045D000020205F1FF3802D2904200F2CB8045463C
:1045E000121AA4B2B2FBF7F007FB102244EA02440D
:1045F0000EFB00FEA64508D91CEB040400F1FF32B7
:1046000002D2A64500F2BB801046A4EB0E0440EA9D
:1046100005409FE7C1F120078B4022FA07FC4CEAD6
:10462000030C05FA01F420FA07F3FD404FEA1C4998
:104630002343B5FBF9F81FFA8CFE09FB18551C0C37
:1046400044EA054408FB0EF5A54202FA01F200FA1D
:1046500001F00BD91CEB040408F1FF3A80F08880CC
:10466000A54240F28580A8F102086444641B9DB213
:10467000B4FBF9F309FB134445EA044403FB0EFEC3
:10468000A64508D91CEB040403F1FF356CD2A645FE
:104690006AD9023B644443EA0843A3FB0295A4EBB6
:1046A0000E04AC42C846AE4656D353D056B1B0EB1A
:1046B000080264EB0E0404FA07F7CA40CC40174323
:1046C000C6E9007418460021BDE8F087C3F1200157
:1046D00002FA03FC20FA01F225FA01F19D402A4377
:1046E0004FEA1C471FFA8CFEB1FBF7F007FB1015D1
:1046F000110C41EA054100FB0EF58D4204FA03F46A
:1047000008D91CEB010100F1FF382FD28D422DD9C1
:1047100002386144491B92B2B1FBF7F507FB151152
:1047200042EA014205FB0EF1914208D91CEB02025C
:1047300005F1FF3816D2914214D9023D6244521A53
:1047400045EA004138E73146304608E73946E6E6B3
:104750001046FBE64845A9D2B9EB020865EB0C0E02
:10476000013BA3E74546EAE72B4694E74046D1E7FD
:10477000D0467BE7023D624432E708460AE76444DC
:10478000023842E7704700BF08B5064B044613B134
:104790000021AFF30080044B1B6803B1984720460B
:1047A000FCF7F0FD00000000F00E0020024B014677
:1047B000186800F02BB800BF140C0020024B014613
:1047C000186800F023BD00BF140C002070B50E4E19
:1047D0000C463168054611B900F062FC3060214694
:1047E000284600F05DFC431C0AD0C41C24F00304DE
:1047F000A04207D0211A284600F052FC013001D116
:104800004FF0FF34204670BDB40D00202DE9F0417B
:10481000CD1C25F0030508350C2D38BF0C25002DC7
:10482000074601DBA94205D90C233B600026304630
:10483000BDE8F0812F4EFCF79BFC33681C4644BB5F
:1048400029463846FFF7C2FF431C04464FD134685F
:104850002646002E42D1002C43D0236831463846EC
:1048600004EB030800F01CFC80453AD123680335B3
:10487000ED1A25F0030508350C2D38BF0C25294607
:104880003846FFF7A3FF01302BD023682B44236069
:104890000EE02268521B1ED40B2A16D96119A342BE
:1048A000256018BF5960636808BF316062514B6072
:1048B000384604F10B06FCF75FFC26F00706231DC3
:1048C000F21AB4D09B1BA350B1E76268A3420CBF9D
:1048D00032605A60ECE723466468B0E73446766895
:1048E000B7E70C233B603846FCF746FC9FE72560A2
:1048F000DEE700BFB00D00202DE9F04716469946CF
:104900008A680B69DDF820809342B8BF1346336094
:1049100091F8432007460C460AB1013333602368FF
:10492000990642BF336802333360256815F00605E7
:1049300006D104F1190AE36832689B1AAB4226DCFF
:1049400094F84320131E226818BF012392062BD42B
:1049500004F1430249463846C04701301ED023685F
:10496000226903F00603042B02BFE5683368ED1AE1
:10497000A3680CBF25EAE57500259342C4BF9B1AC6
:10498000ED1800261A34B5421AD1002008E00123A0
:10499000524649463846C047013003D14FF0FF30F8
:1049A000BDE8F0870135C6E7E1185A1C302081F8D0
:1049B0004300224494F8451082F843100233C7E7BD
:1049C0000123224649463846C0470130E6D0013629
:1049D000D9E700002DE9FF470F7E0C9D782F914607
:1049E00080460C469A4601F1430207D8622F0AD846
:1049F000002F00F0D480582F00F0C08004F1420551
:104A000084F842703AE0A7F16303152BF6D801A1B0
:104A100051F823F06D4A0008814A0008FD4900085A
:104A2000FD490008FD490008FD490008814A0008C9
:104A3000FD490008FD490008FD490008FD4900083E
:104A4000854B0008AD4A00083F4B0008FD490008AF
:104A5000FD490008A74B0008FD490008AD4A0008C1
:104A6000FD490008FD490008474B00082B681A1D46
:104A70001B682A6004F1420584F8423001239FE05C
:104A800020682B68070603F10401296001D51E6820
:104A900003E04606FBD5B3F90060002E03DA2D23B0
:104AA000764284F843305A480A2312E02B68206883
:104AB000191D2960050601D51E6802E04106FBD5D7
:104AC0001E8853486F2F0CBF08230A23002184F847
:104AD00043106568A560002DA2BF216821F0040184
:104AE00021600EB9002D4BD01546B6FBF3F103FB48
:104AF0001167C75D05F8017D3746BB420E46F4D904
:104B0000082B0BD12368DE0708D523696168994219
:104B1000DEBF302305F8013C05F1FF35521B226151
:104B2000CDF800A04B4603AA21464046FFF7E4FE1D
:104B300001304AD14FF0FF3004B0BDE8F087236860
:104B400043F0200323603348782784F845702368B6
:104B500029681F0651F8046B02D45F0648BFB6B23D
:104B6000DF0748BF43F02003296048BF23601EB918
:104B7000236823F0200323601023A7E72448E4E7F9
:104B80001546BDE72B6826686169181D2860350643
:104B90001B6801D5196002E07006FBD5198000235F
:104BA00023611546BCE72B681A1D2A601D686268E0
:104BB0000021284600F0C4FA08B1401B6060636819
:104BC0002361002384F84330AAE723692A46494633
:104BD0004046D0470130ADD023689B0713D4E0682E
:104BE000039B9842B8BF1846A6E7012332464946C0
:104BF0004046D04701309DD00135E36803995B1AE8
:104C0000AB42F2DCEBE7002504F11906F5E700BF43
:104C1000085D0008195D00088A892DE9F041054604
:104C200010070C4658D44B68002B05DC0B6C002B8E
:104C300002DC0020BDE8F081E66A002EF9D00023F6
:104C400012F480522F68216A2B6032D0606DA389E4
:104C50005A0705D56368C01A636B0BB1236CC01A81
:104C600000230246E66A216A2846B047431CA3890E
:104C700006D129681D292BD8294A0A41D60727D4ED
:104C800000226260D9042269226004D5421C01D14D
:104C90002B6803B96065616B2F600029C9D004F1EE
:104CA0004403994202D0284600F0B0FA0020606325
:104CB000C0E701232846B047411CC8D12B68002B10
:104CC000C5D01D2B01D0162B01D12F60B1E7A389D0
:104CD00043F04003A381ADE70F69002FA9D09307EC
:104CE0000E6808BF4B690F6018BF0023A6EB0708CA
:104CF0008B60B8F1000F9CDD216AA66A43463A46F4
:104D00002846B047002806DCA38943F04003A3816E
:104D10004FF0FF308EE70744A8EB0008E9E700BF3B
:104D2000FEFFBFDF38B50B6905460C4613B90025F9
:104D3000284638BD18B1036A0BB900F0A9F8B4F9D8
:104D40000C30002BF3D0626ED00704D4990502D446
:104D5000A06D00F0F1F928462146FFF75DFF636E74
:104D6000DA070546E4D4A3899B05E1D4A06D00F0E1
:104D7000E4F9DDE7014620B9044A0549054800F099
:104D80009FB8054B1868FFF7CDBF00BFBC0B0020D4
:104D9000254D0008C80B0020140C0020002310B57E
:104DA0000446C0E90033C0E904338360818143666F
:104DB000C2818361194608225C3000F035F9054B49
:104DC0006362054BA362054BE362054B24622363D8
:104DD00010BD00BFFD4E00081F4F0008574F0008D0
:104DE0007B4F0008024A0349034800F069B800BF3E
:104DF000BC0B0020254D0008C80B002041680C4B5F
:104E0000994210B5044601D0FFF78CFFA168094B09
:104E1000994202D02046FFF785FFE168064B994290
:104E200004D02046BDE81040FFF77CBF10BD00BF96
:104E3000B80D0020200E0020880E002010B50B4B6E
:104E40000B4C0C4A1A60204600220421FFF7A6FFF3
:104E500004F1680001220921FFF7A0FF04F1D0004E
:104E60000222BDE810401221FFF798BFF00E00208B
:104E7000B80D0020E54D0008014800F05DB900BF05
:104E8000F80E0020014800F058B900BFF80E0020CD
:104E900010B50446FFF7F0FF236A1BB1BDE81040D0
:104EA000FFF7F0BF044B2362044B1B68002BF5D1C6
:104EB000FFF7C4FFF2E700BFFD4D0008F00E002031
:104EC0002DE9F8430746884614460026D4E90195A3
:104ED000B9F1010905D52468002CF7D13046BDE8A9
:104EE000F883AB89012B07D9B5F90E30013303D014
:104EF00029463846C04706436835E9E710B50C46F1
:104F0000B1F90E1000F0BAF80028ABBF636DA389A9
:104F10001B1823F48053ACBF6365A38110BD2DE93A
:104F2000F0411F468B89DB0505460C46164605D524
:104F3000B1F90E100223002200F08EF8A389B4F913
:104F40000E1023F48053A38132463B462846BDE829
:104F5000F04100F0B5B810B50C46B1F90E1000F0F4
:104F60007BF8431CA38915BF606523F4805343F489
:104F70008053A38118BFA38110BDB1F90E1000F0BA
:104F80005BB830B51446002C9BB005461A4605DACE
:104F90008B2303604FF0FF301BB030BD4FF4027322
:104FA000ADF80C3014BF04F1FF3323460293059390
:104FB0004FF6FF7300910491ADF80E3069461E9BC9
:104FC00000F0FAF9431CBCBF8B232B60002CE3D00C
:104FD000009B00221A70DFE707B5009313460A46CC
:104FE000014603480068FFF7CCFF03B05DF804FBFF
:104FF000140C0020884210B501EB020402D984424F
:10500000234607D8431EA14208D011F8012B03F80C
:10501000012FF8E7024401468A4200D110BD13F87F
:10502000014D02F8014DF7E702440346934200D1D7
:10503000704703F8011BF9E738B5064D0023044615
:1050400008462B60FCF712F9431C02D12B6803B110
:10505000236038BDF40E002038B5074D04460846DD
:10506000114600222A601A46FCF772F9431C02D14D
:105070002B6803B1236038BDF40E002038B5074D0E
:1050800004460846114600222A601A46FCF737F902
:10509000431C02D12B6803B1236038BDF40E0020FD
:1050A00038B5064D0023044608462B60FCF746F849
:1050B000431C02D12B6803B1236038BDF40E0020DD
:1050C00038B5074D04460846114600222A601A46A4
:1050D000FCF7E9F8431C02D12B6803B1236038BD0B
:1050E000F40E0020014B1868704700BF140C00201C
:1050F00070B50D4D0D4C641BA4100026A64209D1BD
:105100000B4D0C4C00F05EFA641BA4100026A64266
:1051100005D170BD55F8043B98470136EEE755F8C8
:10512000043B98470136F2E7180C0020180C0020C9
:10513000180C00201C0C0020704770470000000075
:1051400001F0FF01102A2BDB10F0070F08D010F838
:10515000013B013A8B422DD010F0070F42B3F6D13C
:10516000F0B441EA012141EA014122F007047FF055
:1051700000070023F0E80256083C85EA010586EAAC
:10518000010685FA47F5A3FA87F586FA47F6A5FAE8
:1051900087F68EB9EED1F0BC01F0FF0102F00702F4
:1051A00032B110F8013B013A83EA010313B1F8D19F
:1051B0000020704701387047002D06BF3546033880
:1051C000073815F0010F07D1013015F4807F02BFB9
:1051D000013015F4C03F0130F0BC0138704700BF0A
:1051E0000A44914200F1FF3300D1704710B511F825
:1051F000014B03F8014F9142F9D110BD034613F85A
:10520000012B002AFBD1181A0138704737B5002945
:1052100044D051F8043C0190002BA1F10404B8BF24
:10522000E418FBF7A5FF1E4A0198136833B96360C1
:10523000146003B0BDE83040FBF79EBFA34208D91D
:10524000256861198B4201BF19685B6849192160A3
:10525000EDE71A465B680BB1A342FAD911685518FD
:10526000A5420BD1246821445418A3421160E0D117
:105270001C685B6853600C441460DAE702D90C23A5
:105280000360D6E7256861198B4204BF19685B6823
:10529000636004BF491921605460CAE703B030BDA0
:1052A000B00D00202DE9F041804614460E4621B98C
:1052B000BDE8F0411146FFF7A9BA2AB9FFF7A6FFEA
:1052C00025462846BDE8F08100F074F9844207467F
:1052D00002D8B4EB500F12D821464046FFF796FA99
:1052E00005460028EDD0BC422246314628BF3A464A
:1052F000FFF776FF31464046FFF788FFE1E7354686
:10530000DFE72DE9F0478E681F46BE420B688246F4
:105310000C4690462CD88A8912F4906F26D0656985
:10532000096905EB4505A3EB010905EBD5757B1C68
:105330004B446D109D4238BF1D46530527D5294665
:10534000FFF764FA064660B321694A46FFF748FF53
:10535000A38923F4906343F08003A38126616561F0
:105360004E44A5EB09052660A5603E46BE4200D925
:105370003E46206832464146FFF73CFEA3689B1B31
:10538000A3602368334423600020BDE8F0872A46E9
:10539000FFF788FF06460028E0D121695046FFF755
:1053A00035FF0C23CAF80030A38943F04003A381E2
:1053B0004FF0FF30E9E700002DE9F04F98468B8968
:1053C0001B069DB007460D4614460ED50B6963B902
:1053D0004021FFF71BFA2860286120B90C233B60AD
:1053E0004FF0FF30D0E040236B610023099320236E
:1053F0008DF82930CDF80C803023DFF8A4818DF8AA
:105400002A304FF0010923469A4613F8012B0AB1BE
:10541000252AF9D1BAEB040B0BD05B46224629466C
:105420003846FFF76EFF013000F0A980099A5A4410
:1054300009929AF80030002B00F0A18000234FF071
:10544000FF32CDE905230AF1010A049307938DF891
:1054500053301A935446052214F8011B5048FFF7A5
:105460006FFE049AD8B9D00644BF20238DF853307C
:10547000110744BF2B238DF853309AF800302A2BA4
:1054800015D0079A544600204FF00A0C214611F817
:10549000013B303B092B4DD9B0B1079214E0A0EB92
:1054A000080309FA03F313430493A246D2E7039BCC
:1054B000191D1B680391002BBBBF5B4242F0020227
:1054C00007930793B8BF049223782E2B0CD16378EF
:1054D0002A2B34D1039B1A1D1B680392002BB8BFE3
:1054E0004FF0FF3302340593DFF8C4A02178032284
:1054F0005046FFF725FE38B1049BA0EB0A0040227E
:10550000824013430134049314F8011B25488DF89D
:1055100028100622FFF714FE002838D0224B1BBBB0
:10552000039B073323F0070308330393099B33449A
:10553000099368E70CFB02320C460120A6E7002322
:105540000134059319464FF00A0C204610F8012B40
:10555000303A092A03D9002BC6D00591C4E70CFBC9
:10556000012104460123F0E703AB00932A460F4BC9
:1055700004A93846AFF30080421C0646D6D1AB8959
:105580005B063FF52DAF09981DB0BDE8F08F03AB6A
:1055900000932A46054B04A93846FFF71BFAEBE7B0
:1055A0002A5D0008345D0008000000000353000875
:1055B000305D000851F8043C181F002BBCBF0B588D
:1055C000C0187047F8B500BFF8BC08BC9E467047CD
:1055D000F8B500BFF8BC08BC9E467047000000004C
:1055E00000000000D1020008D302000819030008DF
:1055F000290300080000000000200140C303000050
:105600000001000000210140C3030000000200006F
:1056100000220140C30300000100000000200140FF
:10562000C34300000101000000210140C34300000A
:105630000102000000220140C343000002000000FC
:1056400000200140C383000002010000002101404E
:10565000C38300000202000000220140C383000057
:105660000300000000200140C3C30000030100004C
:1056700000210140C3C300000302000000220140DA
:10568000C3C300000400000000200140C303010068
:105690000401000000210140C303010005000000D7
:1056A00000200140C343010005010000002101402A
:1056B000C34301000600000000200140C383010035
:1056C0000601000000210140C38301000700000023
:1056D00000200140C3C30100070100000021014078
:1056E000C3C301001000000000200140C3030200FA
:1056F0001001000000210140C3030200110000005E
:1057000000200140C34302001101000000210140BC
:10571000C34302002000000000200140C3830200B8
:105720002001000000210140C3830200200200008C
:1057300000220140C383020021000000002001403C
:10574000C3C302002101000000210140C3C30200C5
:105750002102000000220140C3C302002200000019
:1057600000200140C303030022010000002101408A
:10577000C30303002202000000220140C303030010
:105780002300000000200140C34303002301000068
:1057900000210140C3430300230200000022014016
:1057A000C34303002400000000200140C383030022
:1057B0002401000000210140C383030025000000F4
:1057C00000200140C3C30300250100000021014067
:1057D000C3C303005300000000220140C343020082
:1057E0005400000000220140C38303005500000064
:1057F00000220140C3C30300560000000022014004
:10580000C30301005700000000220140C343010010
:105810005800000000220140C3830100590000002D
:1058200000220140C3C301005A00000000220140D1
:10583000C3030200FFFF0000FFFFFFFF00000000A6
:10584000F000000000200140C3030400F10000004C
:1058500000200140C3430400F2000000002001408A
:10586000C3830400FFFF0000FFFFFFFF00000000F4
:1058700001000000004C0040D223000003000000A3
:1058800000440040D21F00000A0000000010014048
:10589000D21F00001700000000100140D21F0000BE
:1058A0002700000000140140D22300002B0000005C
:1058B000004C0040D22300003200000000500040A5
:1058C000D22300003600000000440040D21F000038
:1058D0003900000000480040D21F000040000000D6
:1058E000007C0040D2230000470000000078004008
:1058F000D22300005600000000780040D2230000B0
:105900006900000000140140D2230000FFFF0000E6
:10591000FFFFFFFF0000000000000000004C0040FF
:10592000D22300000200000000440040D21F00000B
:105930000900000000100140D21F00001600000006
:1059400000100140D21F000026000000001401409A
:10595000D22300002A000000004C0040D2230000A7
:105960002C00000000500040D22300003500000051
:1059700000440040D21F00003800000000480040F2
:10598000D21F000041000000007C0040D223000034
:105990004800000000780040D223000057000000BB
:1059A00000780040D22300006E0000000014014087
:1059B000D2230000FFFF0000FFFFFFFF00000000F8
:1059C00043616E6E6F7420696E697469616C697A87
:1059D00065204144430050696E6D617020657272AC
:1059E0006F723A2077726F6E6720706F7274206EDC
:1059F000756D6265722E002E2E2E0A000A52252D1C
:105A000034643A202530386C58000A535020202046
:105A10003A202530386C580A4C522020203A202554
:105A200030386C580A50432020203A202530386CFA
:105A3000580A78505352203A202530386C580A5072
:105A4000535020203A202530386C580A4D535020AE
:105A5000203A202530386C58000A43505549443AC2
:105A6000202530386C58000A48465352203A2025E9
:105A700030386C580A4D4D4653523A202530386C18
:105A8000580A42465352203A202530386C580A555D
:105A9000465352203A202530386C580A4446535217
:105AA000203A202530386C580A41465352203A207B
:105AB0002530386C58000A4D4D4641523A20253069
:105AC000386C58000A42464152203A202530386C42
:105AD00058000A4D6F6465203A205468726561640D
