:020000040800F2
:10000000000005200D2D0008412D0008F50C00080A
:10001000FD0C0008050D00080D0D00080000000093
:10002000000000000000000000000000CDC000083B
:10003000412D00080000000089C00008C9BF000869
:10004000412D0008412D0008412D0008412D0008D8
:10005000412D0008412D0008412D0008412D0008C8
:10006000412D0008412D0008412D0008412D0008B8
:10007000412D0008412D0008412D0008412D0008A8
:10008000412D0008412D0008412D0008D90C000821
:10009000CD0C0008412D0008DD0C0008412D0008A2
:1000A000412D0008412D0008412D0008412D000878
:1000B000412D0008412D0008412D0008412D000868
:1000C000412D0008412D0008412D0008412D000858
:1000D000412D0008412D0008412D0008412D000848
:1000E000412D0008412D0008412D0008412D000838
:1000F000412D0008412D0008412D0008412D000828
:10010000412D0008412D0008412D0008412D000817
:10011000412D0008412D0008412D0008412D000807
:10012000412D0008412D0008412D0008412D0008F7
:10013000412D0008412D0008412D0008ED0C00085C
:10014000E10C0008412D0008F10C0008412D0008C9
:10015000412D0008412D0008412D0008412D0008C7
:10016000412D0008412D0008412D0008412D0008B7
:10017000412D0008412D0008412D0008000000001D
:10018000412D0008412D0008412D0008412D000897
:10019000412D0008412D0008412D0008412D000887
:1001A000412D0008412D0008412D0008412D000877
:1001B000412D0008412D0008412D0008412D000867
:1001C000412D0008412D00080348044B834202D012
:1001D000034B03B118477047C80C0020C80C00201F
:1001E000000000000548064B1B1AD90F01EBA301C4
:1001F000491002D0034B03B118477047C80C0020C8
:10020000C80C00200000000010B5064C237843B94C
:10021000FFF7DAFF044B13B10448AFF3008001236A
:10022000237010BDC80C002000000000D4F90008A5
:1002300008B5054B1BB105490548AFF30080BDE883
:100240000840FFF7CFBF00BF00000000CC0C00202B
:10025000D4F90008A3F5803A704700BF174B002B74
:1002600008BF134B9D46FFF7F5FF00218B460F4655
:100270001348144A121A0EF02FF90E4B002B00D01F
:1002800098470D4B002B00D0984700200021040018
:100290000D000D48002802D00C48AFF300800EF08E
:1002A000A1F92000290004F0DDFF0DF04DF900BF99
:1002B0000000080000000000551D00080000052097
:1002C000C80C00209824002000000000000000005E
:1002D0000346006818B9186808B9181D18607047F7
:1002E00037B5054604468DED010A55F8043B9B6879
:1002F000984728469DED010A00F0EAFB2368204656
:10030000DB6803B0BDE830401847036818470B6846
:10031000036070477047C36810B504460BB19B6813
:100320009847204610BD884238B504460D460ED089
:10033000FFF7F1FF1022002120460EF0CDF8EB6808
:100340001BB15B68294620469847EB68E36020466E
:1003500038BD0000024B1B6803B11847704700BF4F
:10036000E40C0020007B704738B50B4B0D4604466B
:10037000027303600023C0E901310848FFF7A8FFBA
:1003800045B1074B1A681C6062600448FFF7A0FF84
:10039000204638BD6560F8E770EC0008EC0C0020E2
:1003A000E80C0020124B10B5044603601148FFF71B
:1003B0008FFFA3682BB1104962680B68A34210D16C
:1003C0000A600E4B0B481A68A24204BF00221A6052
:1003D000FFF77EFF237B13B9201F01F0BBFB2046F4
:1003E00010BD19465B68A342FBD14A60E9E700BF34
:1003F00070EC0008EC0C0020E80C0020F40C00204D
:1004000010B50446FFF7CEFF1021204601F09EFBF9
:10041000204610BDF8B5064614480D46FFF758FFB4
:10042000134B1C6894B1A76877B138460EF06EF98B
:10043000A84209D12A46314638460EF023F818B9A9
:100440000A48FFF745FF0FE06468EBE7072DF7D197
:100450002A46314607480EF015F80028F0D1034827
:10046000FFF736FF044B1C682046F8BDEC0C00205B
:10047000E80C002060EC0008F40C0020002070471D
:10048000002070470368012200211B691847036898
:1004900000221B69114618476FF01500704703686A
:1004A0001B69184703689B69184703689B6A1847CC
:1004B00000290CBF6FF01800002070470120704722
:1004C0006FF0150070476FF01500704711207047EE
:1004D00070470368012200211B6970B504469847E4
:1004E000051E0DDB23680222002120461B69984768
:1004F000064623682946354600221B692046984750
:10050000284670BD70B50D46002604460C49C0E96A
:10051000006628460DF0E8FF314628442060236835
:100520001A782F2A06D101332360FFF773FF60602A
:10053000204670BD002AF8D0013301312360EEE778
:10054000D4EC000800687047406808B520B1FFF798
:1005500009FF431E5842584108BD10B50446FFF735
:10056000F3FF10B1606800B1043810BD406808B5F1
:1005700020B1FFF7F7FEB0FA80F0400908BD10B5D2
:100580000446FFF7F3FF10B1606800B1043810BDF6
:100590004068003818BF01207047C36810B5044692
:1005A0000BB19B689847204610BD83681A68436862
:1005B0001A4214BF012000207047000010B5044605
:1005C00021B910220DF088FF204610BD0022034BF8
:1005D000016042608260C360F6E700BFD8EC0008AB
:1005E000002307B503760191009000F09FFDDDE93F
:1005F000000101F0EFFF00F0A3FD009803B05DF8EB
:1006000004FB07B501908DED000A00F08FFD9DED14
:10061000000A019802F0C0F803B05DF804EB00F0A6
:100620008FBD037E10B504461BB901F057F80123B6
:10063000237610BD07B58DED010A009000F076FD20
:100640000098FFF7EEFF9DED010A009801F09AFE79
:1006500003B05DF804EB00F073BD037E10B50446F3
:100660001BB101F04FF80023237610BD07B50190B0
:1006700000F05CFD019801F07FFE0198FFF7EDFFAF
:1006800000F05EFD019803B05DF804FB704700F0D8
:100690008BB8A0F1B400FFF7FABF00F088B8A0F162
:1006A000B400FFF7FABF0000094B03F1080210B5D0
:1006B000026003F1280294330446C0F8B420B43039
:1006C000436000F0C3F9204600F01CF9204610BD3D
:1006D00094F10008A0F1B400E6E7A0F1B800E3E768
:1006E00010B50446FFF7E0FFD021204601F02EFAB6
:1006F000204610BDA0F1B400F2E7A0F1B800EFE78A
:100700007047704738B504461D46049B00F056F804
:10071000294604F1B40000F071F9064B204603F1BC
:100720000802226003F128029433C4F8B420C4F80C
:10073000B83038BD94F10008704701F1090300EBAF
:100740000313DA6832B100EB01111846D1F89C208E
:100750001268104770474168034630B471B1D0E960
:10076000032000F0010402B944B1451001EB600020
:100770000CB149598A58996830BC104730BC704751
:1007800070B506460D46044656F8443B1B6898472C
:100790003046294602F058F823682046C4F8B05085
:1007A0005B68BDE870401847443002F089BA10B564
:1007B0000C46443002F096FA204610BD2DE9F04F69
:1007C00087B0002504461026019388462D4B04F17E
:1007D000440791462946036032462B4B04F1900AA8
:1007E000858304F1A00B43608060C0E90355C0E934
:1007F000055520300DF070FE3246294604F13000D8
:100800000DF06AFE29464C223846A4F840500DF0FF
:1008100063FE3246294650460DF05EFE32462946BA
:1008200058460DF059FE019B32462946C4F8B030B7
:1008300002A80DF051FE02A95046FFF774FD02A870
:10084000FFF769FD3246294602A80DF045FE02A9D0
:100850005846FFF768FD02A8FFF75DFD4A4641468E
:10086000384602F029F8D4F8B010384601F0ECFF11
:1008700038462246054902F091F9204607B0BDE806
:10088000F08F00BF38F20008570700083B07000848
:100890002DE9FF411546036804460F4605F1090698
:1008A0001B68984704F1440800F040FCFA6804EB28
:1008B0000616F368A2B10BB900F010FF39463046B6
:1008C000FFF731FD01222946404602F073F900F09E
:1008D00037FC236820465B68984704B0BDE8F08188
:1008E0000BB100F00FFF1022002168460DF0F4FD5F
:1008F00069463046FFF717FD6846FFF70CFD0022FA
:10090000E1E700001FB51A4B0446102200210360E6
:1009100068460DF0E1FD002269462046FFF7B8FF6A
:100920006846FFF7F8FC1022002168460DF0D4FD60
:10093000012269462046FFF7ABFF6846FFF7EBFC54
:1009400004F1A000FFF7E7FC04F19000FFF7E3FCDF
:1009500004F13000FFF721FE04F12000FFF71DFE37
:10096000A06908B1FFF7F6FC204604B010BD00BF37
:1009700038F2000810B50446FFF7C4FFB421204642
:1009800001F0E4F8204610BD704770470020704722
:10099000F8B50D46036804468F182E46DB6D984760
:1009A000BE42236806D05B6D204616F8011B9847AF
:1009B0000130F5D1236820461B6E9847701BF8BDA7
:1009C000F8B50D46036804468F182E46DB6D984730
:1009D000BE42236807D09B6D20469847431C02D037
:1009E00006F8010BF4E7236820461B6E9847701B3E
:1009F000F8BD002070470020704770470F4B002261
:100A000013B5044640F8043BFFF7AEFC0C4B0D4910
:100A1000204623606C3363600023636101F0E2F8D9
:100A20000346606128B9024601460090064800F07E
:100A30003DFC00F001FF204602B010BD80EC000834
:100A4000C0F2000848F20008190101800A4B03F1C6
:100A50000802743310B504460260436040690DF02B
:100A600013F8064B204623605C3340F8043FFFF741
:100A700099FC204610BD00BFB8F2000854F20008EF
:100A800038B5036804460D46DB6D98470122002106
:100A900060690DF033FA616928460DF025FA236884
:100AA000054620461B6E9847284638BD38B500F1EC
:100AB0000C050446C1F30B0300228168284602F0AE
:100AC000CBF9A1682846BDE8384002F077B90000AC
:100AD000B5EEC00AF1EE10FA02D50021FFF7E6BF2D
:100AE000F7EE007AB4EEE70AF1EE10FAD7BFDFEDC9
:100AF000067A40F6FF7120EE270AFDEEC07AD8BFD5
:100B000017EE901AEAE700BF00F07F450909FFF7EA
:100B1000CDBF00007FB50D46044600262749284674
:100B2000CDE9026600F0A6FD24492060284600F0C9
:100B3000C1FDC0F38430012804D0022808D0204829
:100B400000F0A0FBA6602368013304D11D48F7E73D
:100B50001023A360F7E72846184900F047FD1A4B19
:100B600004F10C051A6B284642F001021A631A6B55
:100B700002F001020092009A1A6C42F000521A64CC
:100B80001B6C03F000530193019B104BE3600023A7
:100B9000237402F000F908B10D48D1E702A9A26858
:100BA000CDE90200284602F036F9014608B10948AD
:100BB000C6E72046FFF7AAFF04B070BDE4EC0008CA
:100BC00034F3000848F30008003802400074004085
:100BD0005FF3000873F3000843692DE9F0410D4607
:100BE000D907044629D58768334E826807EA060C80
:100BF0003248A368BE43324902EA000203EA010315
:100C000001D10126A660824202D14FF48070A0601B
:100C10008B4202D14FF48031A16027498C4505D029
:100C200026498A4202D0264A934206D1254B012109
:100C3000254A1B6852F825009847E26863699207C5
:100C400008D09F0706D51F4B00211F4A1B6852F88A
:100C500025009847A16962698E0763690AD59005E6
:100C600008D5190406D5174B0521174A1B6852F8F9
:100C700025009847A769666917F00407626906F4BA
:100C8000806609D046B1120406D50E4B07210E4AE4
:100C90001B6852F82500984763695FB156B11B0481
:100CA00008D5084B0221084A1B6852F82500BDE808
:100CB000F0411847BDE8F08103000004000300087C
:100CC00000000310000D0020F80C00200021014856
:100CD000FFF782BF00640040FFF7F8BFFFF7F6BFE1
:100CE00001210148FFF778BF00680040FFF7F8BF17
:100CF000FFF7F6BF4FF0100300F00CB84FF02003E1
:100D000000F008B84FF0300300F004B84FF0400393
:100D100000F000B8EFF308804FF0040172460A4279
:100D200001D0EFF309809C46254B196802680A60E0
:100D3000043142680A60043182680A600431C26882
:100D40000A600431F0C147460F6004314F460F601E
:100D5000043157460F6004315F460F600431026969
:100D60000A60083142690A60043182690A6004310C
:100D7000C2690A600431034620334FF400763242E0
:100D800000D0043375464FF01006354200D1483389
:100D90000C46103C2360EFF309820A600431EFF344
:100DA00008820A60043172460A600431EFF314824B
:100DB0000A606046024B196800F038FBFEE700004D
:100DC00074F5000891FAA1F3B3FA83F391FAA1F153
:100DD00030B55B000325B1FA81F1046805FA03F32D
:100DE000490024EA03038A401343036030BD000036
:100DF00000B5454B8DB00A2800F28380DFE800F093
:100E000006131E29343F4A55606B76001A6B3F4823
:100E100042F001021A631B6B03F001030193019B73
:100E20000DB05DF804FB1A6B394842F002021A63F8
:100E30001B6B03F002030293029BF1E71A6B354828
:100E400042F004021A631B6B03F004030393039B39
:100E5000E6E71A6B304842F008021A631B6B03F096
:100E600008030493049BDBE71A6B2C4842F0100242
:100E70001A631B6B03F010030593059BD0E71A6BF5
:100E8000274842F020021A631B6B03F020030693ED
:100E9000069BC5E71A6B234842F040021A631B6B9E
:100EA00003F040030793079BBAE71A6B1E4842F012
:100EB00080021A631B6B03F080030893089BAFE763
:100EC0001A6B1A4842F480721A631B6B03F4807326
:100ED0000993099BA4E71A6B154842F400721A6340
:100EE0001B6B03F400730A930A9B99E71A6B114872
:100EF00042F480621A631B6B03F480630B930B9BB9
:100F00008EE70D4800F0BEF90038024000000240B4
:100F10000004024000080240000C024000100240A1
:100F20000014024000180240001C02400020024051
:100F3000002402400028024090F3000810B5044647
:100F40004FF4707101F042F9012004F00F04A04049
:100F500010BD00004B1C70B504460E46018216D031
:100F6000C1F30310FFF744FF05463046FFF7E6FFE5
:100F7000238A074A03F00F036561206052F823308B
:100F8000A36105F1100318356360C4E9025570BD13
:100F900018F60008B0F9100001F098B90A46D0E937
:100FA00005010AB9FFF70EBF0122FBE708B503F000
:100FB0008DFA002008BD000008B50A4B1B684BB134
:100FC00001F0BAF801F0A6F84FF47A7200230CF0A1
:100FD0003DF908BD044B586A4FF47A73B0FBF3F047
:100FE000F7E700BF9C0D0020000C004003460122E3
:100FF000D3E84F0FC3E8412FC0B20029F8D17047A2
:10100000D0E85F3F5B18C0E8523F002AF8D198B2A1
:101010007047D0E85F3F5B1AC0E8523F002AF8D122
:1010200098B27047D0E84F3FC0E8421FD8B270472F
:1010300000B589B0144E154D00F078F8102101A8C4
:1010400000F078FA0424039B3046019A1A6001F0FC
:1010500081F8019B049A30461B04136001F07AF872
:10106000013CF0D10424039B2846019A1A6001F048
:1010700071F8019B049A28461B04136001F06AF87A
:10108000013CF0D1DEE700BFF0490200801A060003
:1010900007B5014600220190022000F053FC00F049
:1010A00045F8019908460DF031FB019902460220EE
:1010B00000F048FC03B05DF804EB00F041B800001C
:1010C00000B5A3B002460B46842101A80DF096F8A6
:1010D000832806D9074B1A681B79CDF883208DF831
:1010E0008730002802DD01A8FFF7D2FF23B05DF8AA
:1010F00004FB00BFB1F300080FB407B504A951F811
:10110000040B0191FFF7DCFF03B05DF804EB04B0C2
:101110007047EFF31080C04300F001007047EFF319
:101120000580003818BF01207047000008B500F0A6
:1011300013F8024A13680133136008BD040D002040
:10114000044A136823B1013B13600BB900F016B8D1
:10115000704700BF040D0020EFF3108372B6054AFC
:10116000117831B9DB43044903F001030B7001230B
:1011700013707047090D0020080D0020034B00225A
:101180001A70034B1B7803B162B67047090D00203B
:10119000080D002008B50B48FFF728FF28B1FFF71E
:1011A000C5FFBFF34F8F20BFFDE7FFF7B8FF08B1C2
:1011B000FFF73EFFFFF7ADFF0028F9D001200CF04C
:1011C000C3F900BF580D002070B51D4C90B00D46FE
:1011D000164634EA200428BF04463422002103A81E
:1011E0000DF07AF90295CDE90046FFF79FFF154A09
:1011F00013680133012B13600BD16D46124C0FCDD8
:101200000FC40FCD0FC40FCD0FC495E80F0084E8B5
:101210000F006C460D4D0FCC0FC50FCC0FC50FCC7A
:101220000FC594E80F0085E80F00094B1B6813B148
:10123000A5F130009847FFF783FF002010B070BD84
:101240000101FF800C0D0020180D00205C0D002016
:10125000100D002030B5034600F13C04084D00207D
:1012600013F8012B80EA0260082200284FEA4000B0
:10127000B8BF6840013AF8D1A342F1D130BD00BFF8
:10128000B71DC1040FB407B501210648CDF804E02D
:10129000FFF7C8FE019A014610B90348FFF794FF13
:1012A000FFF778FF140D00200001FF8004460121A4
:1012B0001D487646154608B5FFF7B4FE20B93246FC
:1012C00029462046FFF780FF1848FFF7C3FF184B59
:1012D000184CD3F8BC20154D824220460ABFD3F8E3
:1012E000B4300123013363630023A363FFF7B2FF2C
:1012F000E063FFF71BFF0FCC0FC50FCC0FC50FCC62
:101300000FC594E80F0085E80F00FFF719FFBFF342
:101310004F8F0949094BCA6802F4E0621343CB605E
:10132000BFF34F8F00BFFDE7140D002048020020DF
:10133000C80100205C0D002000ED00E00400FA056B
:10134000F0B52C4E85B000242B4F35462146013494
:1013500056F8042B3846FFF7CFFE0D2CF6D1AB6CB8
:10136000264C02936B6C264801932B6C0093696B9F
:10137000D5E90E23FFF7C0FE21682248FFF7BCFE27
:10138000E16AA26AA36AA06AD2B2266BC3F30723FA
:10139000E76B000CCDE9016700901B48FFF7ACFE3E
:1013A000A36A1E0603D5616B1848FFF7A5FEA36A62
:1013B000180403D5A16B1648FFF79EFEEB6C1907C6
:1013C00012D51448FFF798FE2B6DDA070FD5124897
:1013D000FFF792FEEB6C5B074CBF1048104805B05E
:1013E000BDE8F040FFF788BE0E48FFF785FE0E48C7
:1013F000EEE700BFC8010020B6F3000800ED00E0F2
:10140000C4F3000813F4000821F4000870F4000885
:101410007EF400088CF400089BF40008CBF400086C
:10142000D7F40008BBF40008A8F4000813B504467C
:101430001548FFF761FE302C17D0402C1AD0202C15
:101440001DD1124C1248FFF757FE1248FFF754FE09
:10145000FFF776FF1048FFF74FFE00230F4A2046A4
:1014600000930F49D26BFFF721FF0E480E4CFFF798
:1014700043FEEAE70D480E4CFFF73EFEE5E70D4858
:101480000D4CFFF739FEE0E7E3F400083E01FF8072
:101490000CF5000839F5000844F50008C8010020E3
:1014A00063F500081BF500083F01FF8024F50008E4
:1014B0004001FF802FF500083D01FF8070B50E460A
:1014C00004461546FFF746FD013609D020460021A7
:1014D000FFF764FD29462046BDE87040FFF75ABD7E
:1014E00070BD38B504460D4603685AB1826820467F
:1014F00001211360FFF752FD29462046BDE8384020
:10150000FFF748BDC2681B04F1E70022FFF7D6BF12
:1015100037B50D4604460192FFF71CFD013507D093
:10152000019A0021204603B0BDE83040FFF7D9BF43
:1015300003B030BD0022FFF7EBBF0000294B5A6912
:10154000910370B515D45A6912F4003211D1BFF36A
:101550004F8FBFF36F8FC3F85022BFF34F8FBFF38E
:101560006F8F5A6942F400325A61BFF34F8FBFF355
:101570006F8F1C4B5A69D20327D45A6912F48032F8
:1015800023D1C3F88420BFF34F8FD3F8802043F6D4
:10159000E074C2F3C900C2F34E32520102EA0406FB
:1015A000014646EA81750139C3F86052F9D2203A02
:1015B00012F1200FF2D1BFF34F8F5A6942F48032FB
:1015C0005A61BFF34F8FBFF36F8F02F02DFF01F011
:1015D000B9FB02F01BFF02F027FF034B01221A6048
:1015E00070BD00BF00ED00E09C0D00201FB5431C46
:1015F00010D105B05DF804FB83420AD189680390DD
:1016000000F0E4FD0021039805B05DF804EB00F064
:101610005DBE0C31B1F900305A1CEDD100230246F9
:10162000024819460093FFF741FE00BF30010180D8
:10163000884207B502460AD0431C08D0013105D0C4
:101640000023054819460093FFF730FE014608467F
:1016500003B05DF804FB00BF30010180B1F9003038
:101660005A1C01D118467047834201D1486870471F
:101670000C31F3E7421C13B504460AD0FFF7EEFF26
:10168000431C06D100232246034819460093FFF766
:101690000DFE02B010BD00BF30010180B1F9003075
:1016A0005A1C01D118467047834201D1886870479F
:1016B0000C31F3E7421C13B504460AD0FFF7EEFFE6
:1016C000431C06D100232246034819460093FFF726
:1016D000EDFD02B010BD00BF3001018013B5074C15
:1016E00001212046FFF78CFC034628B901460090F3
:1016F00022880348FFF7DAFD02B010BDA00D0020DC
:101700002301048013B5094C01212046FFF781FC19
:101710004FF6FF73984206D10023228804481946E9
:101720000093FFF7C3FD02B010BD00BFA00D002065
:10173000240104806FF01C0070476FF015007047A3
:10174000012070470020704770470000F8B515462B
:101750000C468F18054EBC4205D014F8011B3046CC
:1017600001F0C0FAF7E72846F8BD00BF7C20002052
:1017700038B511F001048DB205D0084801F018F811
:10178000041E18BF0124EB0605D5044801F020F81B
:1017900008B144F01004204638BD00BF7C20002072
:1017A00010B504460BF0EAFE204610BD10B50C46FD
:1017B0002AB1044801F084FA2070012010BD1046BF
:1017C000FCE700BF7C20002038B51D46074B0446CF
:1017D0000360074B1B6833B9064801F06DF82946D2
:1017E000044801F031F8204638BD00BF80F50008FC
:1017F000380E00207C200020002070470020704719
:10180000012008B50BF0A0FE074A084913681844E8
:10181000884283BF064B0C224FF0FF3010608CBF14
:101820001A601846704700BFCC03002000FC04205B
:10183000742000200120704700210CF0BBBB7047D2
:10184000704708B5FFF7FBFF08BD08B5FFF7F8FFC5
:1018500008BD037803F00303012B09D0037803F0DC
:101860000302012A04D043F00203037001207047F1
:1018700000207047037823F0030343F00103037053
:10188000704700003F2870B504462FDC184D55F80E
:1018900020305A1C13D1022811DCFFF7AFFF03469A
:1018A00058B92046FFF7A8FF034630B9114E3378E8
:1018B000BFF35B8FDB0704D50F4B45F82430184688
:1018C00070BD3046FFF7C5FF0028F5D04FF4165322
:1018D000392238210848FFF777FF3046FFF7CAFF63
:1018E000064A07490448FFF7A5FFE5E70023E6E7B6
:1018F000CC020020A40D0020B00D0020C802002062
:101900004917000838B505460024FFF7BBFF0B4B0D
:1019100043F8254030B90CF05FFE092303604FF017
:10192000FF3038BD03685B699847051E04DA6D42D5
:101930000CF052FE0560F2E72046F2E7CC020020F0
:10194000FFF7E0BF13B5CDE90021FFF79BFFDDE90D
:10195000002140B90CF040FE092303604FF0FF3432
:10196000204602B010BD0368DB689847041EF7DA12
:1019700064420CF031FE0460F0E708B5131E07DA8C
:101980000CF02AFE162303604FF0FF33184608BD03
:10199000FCD0FFF7D7FF40EAE073F7E713B5CDE9D6
:1019A0000021FFF76FFFDDE9002140B90CF014FEC4
:1019B000092303604FF0FF34204602B010BD0368D6
:1019C0009B689847041EF7DA64420CF005FE046039
:1019D000F0E7002A08B503DBBDE80840FFF7DEBFEB
:1019E0000CF0FAFD162303604FF0FF3008BD10B570
:1019F000FFF748FF044628B90CF0EEFD0923036009
:101A0000204610BD0368DB699847041EF8DA64427B
:101A10000CF0E2FD04600024F2E7402337B50546F0
:101A2000CDF8010068468DF800300CF031FA04461C
:101A300030B12846FFF7DBFF10B12046FFF7FCFE70
:101A4000204603B030BDFFF7D2BF13B5CDE900216A
:101A5000FFF718FFDDE9002140B90CF0BDFD0923B7
:101A600003604FF0FF34204602B010BD03681B69CD
:101A70009847041EF7DA64420CF0AEFD0460F0E70C
:101A8000FFF7E3BF10B5FFF7FDFE30B90CF0A4FD82
:101A9000092303604FF0FF3010BD03689B6998472E
:101AA000041E04DA64420CF097FD0460F2E70020A3
:101AB000F2E700000A4D044608B52B6898680CF060
:101AC00099F82B68D8680CF095F80120FFF7DAFF39
:101AD0000220FFF7D7FF0CB1FFF7AAFAFEE700BF1D
:101AE000B40C002038B50D46FFF7CCFE044630B9E3
:101AF0000CF072FD092303604FF0FF3038BD03681E
:101B0000DB6998470028204614BF4FF400534FF478
:101B100000436B6023689B6A984728610020EDE7CB
:101B2000FFF7E0BF1FB503900BF020FD039A0346BB
:101B300020B9014600900348FFF7B8FB05B05DF8F7
:101B400004FB00BF1F010180FFF7ECBF0BF016BDC7
:101B50000BF014BD10B504460848FEF7B9FB084A5F
:101B60004023002152F8040BA04208BF42F8041C95
:101B7000013BF7D10148FEF7ABFB10BDA80D0020DB
:101B8000CC02002010B50F480324FEF7A1FB0E4B3A
:101B900053F824206AB10134402CF9D10CF01CFD1B
:101BA00018234FF0FF3403600648FEF791FB2046F0
:101BB00010BD4FF0FF32034843F82420FEF788FBA6
:101BC000F5E700BFA80D0020CC02002010B50446A8
:101BD000FFF7D8FF0028A4BF014B43F8204010BDF9
:101BE000CC02002073B506460191FFF7EFFF051EFA
:101BF00013DB0199FFF711FF044630B9084B53F886
:101C00002520964204D143F82500204602B070BD3D
:101C10000CF0E2FC09230360F7E70024F5E700BFBE
:101C2000CC0200200EB42DE9F04187B00190FFF7FF
:101C3000A9FF041E13DB0023019904A81E4E039381
:101C4000FEF760FC04A8FEF7A3FC054668B90CF09B
:101C5000C3FC1323036046F824504FF0FF342046A2
:101C600007B0BDE8F04103B0704704A8FEF77EFC62
:101C7000074604A837B1FEF782FC0390039B46F8A1
:101C80002430ECE7FEF769FC05460028DFD0036846
:101C900004A8D3F80880FEF755FC0D9B024603A963
:101CA0002846C04705460028E8D06D420CF094FC59
:101CB000056046F82470D0E7CC02002070B50E46CF
:101CC000154905460CF0B6FC044618B9FFF7DAFDD5
:101CD000204670BD114928460CF0ACFC20B901200B
:101CE0000124FFF7CFFDF3E70D4928460CF0A2FCD5
:101CF00020B902200224FFF7C5FDE9E72B78402B2D
:101D000002D1D5F80140E3E726F400412846BDE8BA
:101D10007040FFF787BF00BFDCF50008E3F500085F
:101D2000D4F5000870470000084B094998684FF047
:101D30000053C21802F16042126843F8042B8B4230
:101D4000F7D1024B4FF000529A60704700ED00E06F
:101D5000C801002008B5FFF7E7FFFFF7EFFB02F02F
:101D60000BFCFFF7DFFF08BD2DE9F74F446806467F
:101D700094F83A10002955D101684968884771687C
:101D80000546096A81424DD0206A4FF0000EE16895
:101D9000281AA66825620140374886428C4639D009
:101DA00094F83BB00027A1FB0001D4E90A5ABBF12B
:101DB000000F46D0CBF1200820FA0BFCABF1200E2F
:101DC0002D1801FA08F8ABF1200921FA0EFE4AEBB2
:101DD000010A4CEA080CCBF120084CEA0E0C21FA5F
:101DE0000BFE0CFA09F90EFA0BF12CFA08F80CFAB2
:101DF0000BF041EA09012B1A41EA080100936AEB52
:101E000001030193DDE90023BB4208BFB2420CD2BB
:101E1000C4E90A23D4E90C0110EB0C0041EB0E01DC
:101E2000C4E90C0103B0BDE8F08F1CF1010C009B6C
:101E30004EF1000E9A1B019B63EB0703C4E90A23D2
:101E4000E8E732463B460BF001FA12EB0508844600
:101E50008E4643EB0A09B94508BFB04502D2C4E932
:101E60000A89D7E710F1010C41F1000EB8EB060228
:101E700069EB0703E2E700BF40420F00824206D948
:101E80008A420BD9884294BF0020012070478842C3
:101E900006D98A428CBF002001207047012070477C
:101EA000002070472DE9F74FD0F80480074698F8D6
:101EB0003A30002B7ED198F83930002B7AD1FFF7D9
:101EC00053FF7E683A6873680192002B64D0D6E9AC
:101ED0000C01D3E90023994208BF904205D3019B2E
:101EE0005B6903B0BDE8F04F1847141AD6F810909C
:101EF00063EB0105D6E90623AB4208BFA24206D335
:101F0000B2682E4B9A4219D1A14528BFA146326A28
:101F1000019B9144F2681B6909EA02021046019292
:101F200098473B685B689847019A0146D8F82000BB
:101F3000FFF7A4FF00283DD03B68D1E796F83B307F
:101F4000EBB1A3F1200CC3F1200205FA03F104FA6E
:101F500003F004FA0CFC24FA02F2194C002341EAC3
:101F60000C0100194FF0000441EA0201134A44EB4E
:101F700001010BF06BF9814528BF8146C7E7A2FB41
:101F800004AB0F480021002302FB05BB1AEB000045
:101F90000A4A4BEB0101ECE7D8F81030D8F82000E2
:101FA000D8F80C201844019B10401B6903B0BDE811
:101FB000F04F184703B0BDE8F08F00BF40420F005C
:101FC0003F420F00436893F838202DE9F04F054653
:101FD00085B0002A62D193F83A30002B5ED10368B5
:101FE0001B6898472B68DB69984703682BB91A462A
:101FF00019462C480093FFF759F91F21012202FAD4
:1020000001F45FFA81FAA34202D00139F7D18A467E
:102010004668321F1C2A05D9002323481A46194650
:102020000093E8E71C4607270023204914F1FF38F6
:1020300007FA02F7224643F1FF39C1FB0789404600
:1020400049464FF000080BF001F96B682A68894691
:10205000834603935268C3E9008890470122039B9B
:10206000002102FA06F6186200206B68013EC3E9FF
:102070000A01C3E90C019C60284683F83BA01A873B
:1020800083F83A80C3E90367C3E906B9FFF76CFE3A
:10209000284605B0BDE8F04FFFF704BF05B0BDE826
:1020A000F08F00BF0E0104800501048040420F0044
:1020B00070B50446FFF73AF82368DB689847636811
:1020C00093F83A201AB1BDE87040FFF739B8012201
:1020D00083F8392063685B68A3B12046FFF744FEAC
:1020E00065686E68D5E90C01D6E90023994208BFFE
:1020F000904207D3F3686B602B68002BEAD0B0687E
:102100009847E7E763680022204683F83920FFF705
:10211000C9FED8E738B50446FFF754FFFFF706F8C5
:102120002046FFF721FE6368D3E90C45FFF708F866
:102130002046294638BD704700487047ECF5000836
:10214000024B1B680BB1024818477047D0030020B0
:10215000ECF50008034B596A5A6A521A8242FBD3C3
:10216000704700BF000C004091FAA1F3B3FA83F36B
:1021700091FAA1F130B55B000325B1FA81F18468D1
:1021800005FA03F3490024EA03038A4013438360FA
:1021900030BD91FAA1F3B3FA83F391FAA1F130B50E
:1021A0005B000325B1FA81F1C46805FA03F3490025
:1021B00024EA03038A401343C36030BD012A02D0DE
:1021C000022A18BF0022FFF7E4BF00002DE9F84300
:1021D00000F00F02C1F383183B4B1FFA80F9C0F3E4
:1021E000031001F0070653F822700D46FEF700FEBB
:1021F000B8F10F0F394604460CBF03224246FFF7E1
:10220000B3FF022E2BD0032E5BD0711E4B424B41ED
:1022100097FAA7F2B2FA82F203202168013E520037
:10222000012E00FA02F221EA020197FAA7F2B2FAAD
:1022300082F24FEA420203FA02F343EA0103236007
:1022400005D863682A074CBF3B43BB436360C5F3B3
:10225000011239462046BDE8F843FFF7AFBF19F039
:10226000080FC5F3832217D03B0A4FF00F0C93FAE7
:10227000A3F1B1FA81F1406A93FAA3F38900B3FAAA
:1022800083F30CFA01F19B0020EA010102FA03F347
:102290000B4363620223BBE797FAA7F1B1FA81F11E
:1022A000036A0F20890000FA01F123EA010197FA7D
:1022B000A7F3B3FA83F39B0002FA03F30B43236201
:1022C000E8E73346A4E700BF18F6000800F00F0265
:1022D000C0F3031038B51E4B0C4653F82250FEF7DE
:1022E00087FD95FAA5F2B2FA82F301685A0003233A
:1022F000934095FAA5F2B2FA82F20B405200D34015
:10230000013B012B1AD8E31E022B436809D82B434B
:10231000032C43601AD101222946BDE83840FFF75B
:102320004DBF23EA0503012C4360F4D0022C0BD0EF
:1023300029460022BDE83840FFF72BBF04F0FD031B
:10234000012BE8D0052CF1D10222E5E7052CEEE7C0
:1023500018F600084B7D2BB1082807D8044B33F83A
:10236000100070470C2801D8024BF8E70020704796
:1023700084F6000896F600084FF47071B0F9040076
:10238000FFF724BFB5EEC00A324BF0B5F1EE10FAFC
:10239000076889B006461F603ED4F7EE007AB4EEB7
:1023A000670AF1EE10FA37FE800AD6ED037AF8EEEE
:1023B000677A67EE807A17EE900A0AF0CFFB002268
:1023C000254B0AF06DFA0AF0D1FE60230446327DF7
:1023D000306101930023B068039304930793B4FB27
:1023E000F0F4CDE90533531E0294032B1FD86FF090
:1023F0000305314605EB82052846FFF7ABFF3B6A34
:1024000030EA03030BD02A4601A9124801F087FCE9
:1024100038B11248FEF736FF9FED110AC5E745B9FE
:102420007C63737D29460B488BB101F076FC09B0C3
:10243000F0BD042D01D1BC63F3E7082D01D1FC638D
:10244000EFE70C2D01D13C64EBE7FC65E9E701F017
:10245000F3FBECE7F80D00200000E03F58F6000821
:1024600000000000C36893B190ED047A07EE903A43
:10247000B8EE477AF8EE677A87EE270AF7EE007A29
:10248000B4EE670AF1EE10FA37FE800A70479FED4E
:10249000010A7047000000002DE9F04102680023A6
:1024A000474C0E46054622602DED028B86B0009308
:1024B000FFF7D8FF41F21113116AB0EE408A1942BA
:1024C00008D1116A40F24443194203D1136823F042
:1024D0000103136001A8694600F08AFF2868002202
:1024E000384BD1B2013253F831708742F9D110B96B
:1024F0003548FEF7C7FE03EBC1031B79002B3CD127
:1025000000F056FFDDF810C0009001230099AB6089
:1025100001FA03F02D4BB0FBF3F0B1FBF3F1BCF18A
:10252000000F30D14A1E771E4FF000084FF6FE7E96
:1025300062603B46E760B3F5803F26D2B2F5803F4C
:1025400023D2B8F1000F01D06260E36000231C4881
:102550002361A36001F076FA48BBB0EE480A284632
:10256000EE60FFF70FFF2268136843F0010313606A
:1025700006B0BDEC028BBDE8F08100F029FFDDF86C
:1025800014C00090C1E7421ECDE7AB685B00AB60B2
:10259000BCF1000F0DD101FB03F2013AB7FBF3F3DD
:1025A000734509D8B2F5803F06D36260E3600848FE
:1025B0009FE700FB03F2F0E74FF00108BBE700BF25
:1025C000F80D0020B0F600086FF6000840420F003A
:1025D00058F6000830B50D4604468DB061492846CE
:1025E000FFF748F85F4920602846FFF763F8C0F31B
:1025F00084335D4AC0F3C0402375236860759342FD
:1026000025D102F59C32516C41F001015164526CAC
:1026100002F001020092009A544A934250D1544A67
:10262000516C41F002015164526C02F002020592B9
:10263000059A504A934250D14D4B1A6C42F0800299
:102640001A641B6C03F080030A930A9B78E0B3F1D1
:10265000804F20D0484A934228D0484A93424AD0DB
:10266000474A9342D8D1424A116C41F008011164A3
:10267000126C02F008020492049A424A9342D8D1A2
:102680003B4B1A6C42F040021A641B6C03F040038F
:102690000993099B54E0364A116C41F00101116421
:1026A000126C02F001020192019AB5E7304A116CF6
:1026B00041F002011164126C02F002020292029ACD
:1026C000314A934221D12A4A516C41F480315164FC
:1026D000526C02F480320692069A2C4A93422FD111
:1026E000234B1A6C42F480721A641B6C03F48073DF
:1026F0000B930B9B24E01E4A116C41F00401116402
:10270000126C02F004020392039A214A93420DD004
:10271000204A9342B1D1164B5A6C42F480225A643B
:102720005B6C03F480230893089B09E0104B5A6C00
:1027300042F400325A645B6C03F400330793079B46
:1027400028460849FEF752FF002344F62061204640
:10275000A580C4E903330123A3600DB0BDE8304078
:10276000FFF79ABE08ED0008000001400004014098
:1027700000380240001C00400004004000080040F7
:10278000000C0040001800400040014000200040C4
:102790000044014000480140DFED047A20EE270AA2
:1027A000FDEEC07A17EE901AFFF776BE002474494A
:1027B000426870235343054AD358DA69120701D59A
:1027C00008221A62D869C0F340107047C820002060
:1027D000426870235343034AD358D869C0F3C010EA
:1027E000704700BFC820002003464168702210B423
:1027F0004A431C681349545050189A684260DA687A
:1028000082601A69C2605A6902611A6A8261002292
:10281000A0F85220C261A0F85020A0F85A20A0F8D9
:102820005820B3F91A20013205D108235DF8044B72
:10283000436101F004BDB3F9183001330CBF042328
:102840000C23F3E7C82000208160FFF7CDBF000014
:10285000184B98421FD0A3F54C4398421DD003F566
:10286000806398421BD003F58063984219D003F52A
:102870008063984217D003F54443984215D0A3F5DE
:102880001C43984213D003F58063984214BF4FF065
:10289000FF3007207047002070470120704702205A
:1028A00070470320704704207047052070470620BA
:1028B000704700BF00100140F0B50E46154689B0C4
:1028C000044660493046FEF7D5FE07465E49284675
:1028D000FEF7D0FE01463846FEF7AAFE382E2060ED
:1028E0000AD0392D08D057493820FEF7C3FEB84228
:1028F00020D15648FEF7C6FC01272068544B984269
:102900001AD103F594335A6C42F010025A645B6C8E
:1029100003F010030093009B4E4B984269D14E4B3D
:102920005A6C42F020025A645B6C03F0200305935A
:10293000059B18E00027E0E7484B984244D003F598
:10294000806398424BD0464B984260D0454B9842AA
:10295000E2D1414B1A6C42F480121A641B6C03F4EE
:1029600080130493049BFFF773FF36496060304681
:10297000FEF73CFE28463449FEF738FE701C03D0B3
:1029800001213046FFF7A2FC691C03D00121284633
:10299000FFF79CFC00234FF4165220462683236247
:1029A0006583C4E90223C4E90433FFF71DFF002F48
:1029B00045D02D4B012221462C481A604C2209B0EB
:1029C000BDE8F0400BF094BE234B1A6C42F4003289
:1029D0001A641B6C03F400330193019B9CE71E4BAC
:1029E0001A6C42F480221A641B6C03F48023029355
:1029F000029B1F4B984214D1174B1A6C42F0804235
:102A00001A641B6C03F080430693069BABE7124BE2
:102A10001A6C42F400221A641B6C03F40023039323
:102A2000039B144B98429ED10B4B1A6C42F0004210
:102A30001A641B6C03F000430793079B93E709B0EC
:102A4000F0BD00BFECF0000844F0000818F70008E3
:102A500000100140001401400038024000440040D2
:102A6000004C004000500040380E00207C20002028
:102A700000780040007C004070B5FFF7E9FE041EBE
:102A800032DB1A4E56F8240000282DD07023184D42
:102A90006343EB58DA69110609D5DA69120606D5DF
:102AA0001B681B0603D5134B01211B689847702335
:102AB0006343EB58DA6991060BD5DA69920608D5BB
:102AC0001B68980605D50B4B002156F824001B689F
:102AD0009847702044432B59DA69110704D5DA6905
:102AE000120701D508221A6270BD00BF400E0020F7
:102AF000C82000203C0E00200148FFF7BDBF00BFEA
:102B0000007C00400148FFF7B7BF00BF00780040DD
:102B10000148FFF7B1BF00BF001401400148FFF7B3
:102B2000ABBF00BF005000400148FFF7A5BF00BF8A
:102B3000004C00400148FFF79FBF00BF0048004025
:102B40000148FFF799BF00BF004400400148FFF76C
:102B500093BF00BF00100140002808DB0123420999
:102B600000F01F0003FA00F0014B43F82200704709
:102B700000E100E000280DDB4309012200F01F0006
:102B8000203302FA00F0044A42F82300BFF34F8FCB
:102B9000BFF36F8F704700BF00E100E0034B196087
:102BA0004168034B43F82120704700BF3C0E0020D2
:102BB000400E002030B4D0E900353448834249D07B
:102BC0002BD8A0F5305083423ED020D8A0F500602D
:102BD000834233D000F58060834232D00023184610
:102BE00070246C432A4D2C59002A39D022680029C0
:102BF00033D142F02002226000F11001254A926890
:102C000042F82130BFF34F8F30BCFFF7A5BF2248F9
:102C10008342E3D1214B3520E2E7214883420AD0A9
:102C200000F58060834212D0A0F518408342D5D1D0
:102C30001C4B5320D4E71C4B2520D1E71B4B2620EF
:102C4000CEE71B4B2720CBE71A4B3420C8E71A4BA3
:102C50004720C5E7194B5220C2E742F08002CAE77D
:102C6000236849B923F020032360236813F0800F01
:102C700009D130BCFFF77EBF23F0800323602368B7
:102C800013F0200FF4E730BC704700BF007800401D
:102C9000C820002000ED00E0005000401D2B00087F
:102CA00000100140F92A00084D2B0008412B0008B4
:102CB000352B0008292B0008112B0008052B0008D4
:102CC00038B5044645682046FFF772FD0028FAD063
:102CD0007023034A6B43D358586AC0F3080038BDC9
:102CE000C820002070B505460C4646682846FFF708
:102CF0006FFD0028FAD07023034AC4F3080473431D
:102D0000D3589C6270BD00BFC8200020DFF820D0DF
:102D1000002103E0074B5B58435004310648074B42
:102D200042189A42F6D301F0DDFAFDF797FA7047A0
:102D300000000520E0F90008C8020020C80C0020AF
:102D4000FEE7704708B5094B03201A6842F4007289
:102D50001A601A6842F480721A6000F009F80F20B5
:102D6000FEF724F9FFF7EDFF002008BD003C02400C
:102D700007490302CA6803F4E06322F4E062120424
:102D8000120C134343F0BF6343F40033CB6070472E
:102D900000ED00E0704710B5044668B1037903F018
:102DA000FF0213B94271FFF7F5FF022300202371E0
:102DB00001232061237110BD0120FCE710B5437988
:102DC000012B4FF0020317D00371012203688A40E0
:102DD0001C6822431A6089B919681A684C0707D51C
:102DE00002F03802382A03D15A6842F001025A60D0
:102DF0000123037100234371184610BD19681A6836
:102E00004903F5D502F46012B2F5601FF0D15A689B
:102E100042F00202EBE730B54379012B4FF0020399
:102E200018D0046840F6FE7503719540236823EAC4
:102E30000505D1E900310B43C021934001FA02F2AC
:102E40002B432360236823EA0202012322600371DB
:102E500000234371184630BD13B500240068019467
:102E6000019041B9019908310A4400200192019A68
:102E7000136002B010BD01991431F5E7194B37B555
:102E80001A6C194C42F080521A641B6C03F0805388
:102E90000193019B236843F480332360FEF78CF891
:102EA00005466368DA030CD523680F4D43F40033FD
:102EB0002360FEF781F804466B689B030AD5002067
:102EC00006E0FEF779F8401BB0F57A7FE9D90320D8
:102ED00003B030BDFEF770F8001BB0F57A7FEBD978
:102EE000F5E700BF00380240007000402DE9F341D3
:102EF000044618B9012002B0BDE8F0810368D80784
:102F000010D42368990761D42368190700F1A880B9
:102F100023685A0700F1C980A269002A40F0328173
:102F20000020E8E7954B9A6802F00C02042A07D0CB
:102F30009A6802F00C02082A0AD15A68520207D590
:102F40008E4B1B689B03DCD56368002BD9D1D1E77E
:102F50006268B2F5803F11D11A6842F480321A607B
:102F6000FEF72AF8854E054633689F03C9D4FEF75D
:102F700023F8401BC828F7D90320BCE77F4D2B68F6
:102F800092B923F480332B602B6823F480232B60C9
:102F9000FEF712F806462B689803B2D5FEF70CF838
:102FA000801BC828F7D9E7E7B2F5A02F07D143F473
:102FB00080232B602B6843F480332B60D0E723F40D
:102FC00080332B602B6823F48023F6E76B4B9A68E1
:102FD00012F00C0F07D09A6802F00C02082A12D1E6
:102FE0005A6851020FD4654B1A68920703D5E268FC
:102FF000012A7FF47FAF1A68216922F0F80242EAC1
:10300000C1021A6080E7E268C2B11A685B4D42F003
:1030100001021A60FDF7D0FF06462B689F0707D50F
:103020002B68226923F0F80343EAC2032B606BE7A5
:10303000FDF7C2FF801B0228EFD99DE71A684F4EAB
:1030400022F001021A60FDF7B7FF054633689807C2
:103050007FF55AAFFDF7B0FF401B0228F6D98BE78A
:103060006369464D83B16B6F43F001036B67FDF7F6
:10307000A3FF06466B6F9B073FF54AAFFDF79CFF2A
:10308000801B0228F6D977E76B6F23F001036B678B
:10309000FDF792FF06466B6F9F077FF539AFFDF78F
:1030A0008BFF801B0228F6D966E7344B1A6CD000E0
:1030B00027D41A6C012742F080521A641B6C03F06B
:1030C00080530193019B2E4D2B68D9051BD5A36816
:1030D0002A4D012B27D12B6F43F001032B6741F2BF
:1030E0008838FDF769FF254E0546336F9B073FD5AE
:1030F000002F3FF411AF214A136C23F08053136467
:103100000AE70027DFE72B6843F480732B60FDF7A5
:1031100053FF06462B68DA05D9D4FDF74DFF801B17
:103120006428F7D928E7ABB92B6F41F2883823F030
:1031300001032B672B6F23F004032B67FDF73CFF84
:1031400006462B6F9807D3D5FDF736FF801B404509
:10315000F7D911E7052B2B6F03D143F004032B673D
:10316000B9E723F001032B672B6F23F00403B5E7C6
:10317000FDF722FF401B4045B7D9FDE6003802406D
:1031800000700040244DAB6803F00C03082B3FF4A3
:10319000B1AE2B68022A23F080732B602ED1FDF78D
:1031A0000BFF06462B68990122D4A36A5B085A1EBE
:1031B000D4E907310B4343EA0243626A43EA8213CC
:1031C000E26A43EA026343F000536B602B6843F00A
:1031D00080732B60FDF7F0FE0F4D04462B689A01BB
:1031E0003FF59EAEFDF7E8FE001B0228F6D9C3E6C8
:1031F000FDF7E2FE801B0228D4D9BDE6FDF7DCFE18
:1032000004462B689B017FF58BAEFDF7D5FE001BB6
:103210000228F6D9B0E600BF00380240134908B5CD
:103220008B6803F00C03042B1BD0082B1BD14A68BE
:103230004B68496802F03F0213F48003C1F3881120
:103240001ABF0B4800230B48A1FB000109F0FEFF49
:10325000064B5B68C3F3014301335B00B0FBF3F043
:1032600008BD0348FCE70348FAE700BF0038024006
:1032700000127A000024F4002DE9F0410D460446C6
:1032800010B90120BDE8F081454A136803F00F032F
:103290008B4227D3226897072FD4D00743D4404AC4
:1032A000136803F00F03AB4266D8226851076FD44E
:1032B000130707D53B4A2169936823F4604343EA27
:1032C000C1039360FFF7AAFF364B374A9B68C3F3ED
:1032D0000313D35CD840354B18600F20FDF766FE12
:1032E0000020CFE7136823F00F030B43136013682C
:1032F00003F00F038B42C4D1CCE712F0040F294B2B
:1033000003D0996841F4E0519960160703D5996894
:1033100041F4604199602349A0688B6823F0F00371
:1033200003438B60B9E761681E4B01291A681BD102
:1033300012F4003FA5D09A6841F28838194F22F064
:1033400003020A439A60FDF737FE0646BB686268CF
:1033500003F00C03B3EB820FA1D0FDF72DFE801B11
:103360004045F3D903208DE7022902D112F0007FF6
:10337000E0E712F0020FDDE7136823F00F032B43A1
:103380001360136803F00F03AB427FF47AAF8CE74E
:103390000449E0688B6823F4E05303438B6087E7BC
:1033A000003C02400038024071F70008D4030020BE
:1033B000044B054A9B68C3F38223D35C034A10681D
:1033C000D84070470038024081F70008D40300203D
:1033D000044B054A9B68C3F34233D35C034A10682D
:1033E000D84070470038024081F70008D40300201D
:1033F0000F2303600B4B9A6802F0030242609A6845
:1034000002F0F00282609A6802F4E052C2609B68A7
:10341000DB0803F4E0530361034B1B6803F00F0365
:103420000B60704700380240003C024003682DE901
:10343000F74313F0010604460BD0AB4A916821F420
:1034400000019160466B91683143B6FA86F67609C1
:10345000916013F4002512D0A349E56BD1F88C20BC
:10346000B5F5801F22F4401208BF012642EA05028A
:1034700016BFB5FA85F500256D09C1F88C20D80274
:1034800010D59948216CD0F88C20B1F5800F22F42A
:10349000400242EA0102C0F88C2000F08681002937
:1034A00008BF012513F0807F18BF0126990631D58A
:1034B0008D4B8E4F1A6C42F080521A641B6C03F0D5
:1034C00080530193019B3B6843F480733B60FDF79D
:1034D00073FD80463B68DA0540F16981824F3B6F9E
:1034E00013F4407340F06E81236B03F44072B2F525
:1034F000407F7D4A40F08C81916823F0704021F438
:10350000F81120F4407001439160C3F30B03116F75
:103510000B4313672368D9060CD5734AD2F88C1075
:1035200021F08071C2F88C10D2F88C10A06B01438E
:10353000C2F88C105A0408D56B49606ED1F89020FF
:1035400022F440320243C1F890201F0408D5664996
:10355000A06ED1F8902022F440220243C1F89020BE
:10356000D80308D56049E06ED1F8902022F44012CB
:103570000243C1F89020990308D55B49206FD1F828
:10358000902022F440020243C1F890205A0608D548
:103590005549606CD1F8902022F003020243C1F833
:1035A00090201F0608D55049A06CD1F8902022F039
:1035B0000C020243C1F89020D80508D54A49E06CB6
:1035C000D1F8902022F030020243C1F890209905F2
:1035D00008D54549206DD1F8902022F0C002024361
:1035E000C1F890205A0508D53F49606DD1F8902068
:1035F00022F440720243C1F890201F0508D53A49D1
:10360000A06DD1F8902022F440620243C1F89020CE
:10361000D80408D53449E06DD1F8902022F4405206
:103620000243C1F89020990408D52F49206ED1F8A3
:10363000902022F440420243C1F890205A0208D55B
:103640002949A06FD1F8902022F080620243C1F88E
:1036500090209F020CD52448E16FD0F89020B1F162
:10366000006F22F0006208BF01250A43C0F89020D5
:1036700013F0080F18BF0125580308D51A49606FC9
:10368000D1F8902022F040720243C1F89020190234
:1036900009D51549D4F88000D1F8902022F0805245
:1036A0000243C1F89020012E00F0B680B3F1007FF4
:1036B00000F0B280012D76D10B4D2B682E4623F001
:1036C00080532B60FDF778FC07462B689B0000F1C8
:1036D00027812268150301D5E36B4BB1D00222D5B7
:1036E000236C03BB04E000BF0038024000700040C0
:1036F000D6F88830D6F8881003F4403301F0E04162
:103700000B43616943EA8113A16943EA0163C6F887
:103710008830D6F88C30A16A23F4F853013943EA93
:103720000123C6F88C30910215D5E36FB3F1006F19
:1037300011D18249D1F88830D1F8880003F0706344
:1037400000F0E0400343606943EA8013206A43EAE3
:103750000043C1F88830120719D5784AD2F888108A
:10376000D2F8883001F0706103F440330B43616993
:1037700043EA8113E16943EA0173C2F88830D2F861
:103780008C30E16A23F440330B43C2F88C306B4C2D
:10379000236843F080532360FDF70EFC0546236841
:1037A0009B0040F1C480002009E001267AE6FDF785
:1037B00003FCA0EB080064287FF68CAE032003B066
:1037C000BDE8F083226B02F4407293423FF48CAE6A
:1037D0003B6F3A6F23F4407342F480323A673A6F9A
:1037E00022F480323A673B673B6FDB077FF57CAEA4
:1037F000FDF7E2FB41F2883980463B6F98073FF5C1
:1038000073AEFDF7D9FBA0EB08004845F5D9D5E725
:10381000916821F4F81177E6484E336823F080630D
:103820003360FDF7C9FB074633681A0172D422687A
:10383000D30712D5636B83B9D6F88430D6F88410D9
:1038400003F4403301F070610B43616843EA811374
:10385000A16843EA0173C6F88430170303D5E36B0C
:10386000B3F5801F05D0D6021ED5236CB3F5800FAB
:103870001AD13249D1F88430D1F8840003F44033AE
:1038800000F0E0400343606843EA8013E06843EAE5
:103890000063C1F88430D1F88C00636A20F01F0007
:1038A000013B0343C1F88C30D00111D52349D1F835
:1038B0008430D1F8840003F0706300F0E0400343EB
:1038C000606843EA8013206943EA0043C1F884300A
:1038D00091010DD5236962681B0443EA8213E268F3
:1038E00043EA0263A26843EA0273144AC2F88430CE
:1038F000124E336843F080633360FDF75DFB07468B
:1039000033681A013FF5D6AEFDF756FBC01B64289D
:10391000F6D953E7FDF750FBC01B642884D94DE767
:10392000FDF74AFBC01B64287FF6CFAE46E7FDF7E4
:1039300043FB401B64287FF632AF3FE7003802406C
:1039400070477047304A0368904212D0B0F1804F00
:103950000FD0A2F57C4290420BD002F580629042DB
:1039600007D002F58062904203D002F5784290427F
:1039700019D14A6823F070031343234A904229D097
:10398000B0F1804F26D0A2F57C42904222D002F5C1
:10399000806290421ED002F5806290421AD002F5F9
:1039A0007842904216D0194A904213D002F58062B4
:1039B00090420FD002F5806290420BD0A2F598326F
:1039C000904207D002F58062904203D002F58062F7
:1039D000904203D123F44073CA6813434A6923F029
:1039E0008003134303608B68C3620B688362064BDA
:1039F000984203D003F58063984201D10B690363B9
:103A000001234361704700BF0000014000400140B6
:103A100010B50446A0B190F83D3003F0FF021BB989
:103A200080F83C20FFF78CFF02232068211D84F8DA
:103A30003D30FFF787FF0123002084F83D3010BDA3
:103A40000120FCE710B50446A0B190F83D3003F02A
:103A5000FF021BB980F83C20FFF773FF02232068A8
:103A6000211D84F83D30FFF76DFF0123002084F80D
:103A70003D3010BD0120FCE7036A23F0010370B55F
:103A80000362036A4268846923F002030D6824F428
:103A9000803424F073042C438D682B430C4DA842D2
:103AA00003D005F58065A8420BD1CD6823F008034B
:103AB00022F440722B43D1E9055623F00403354329
:103AC0002A4342604A6884614263036270BD00BF5A
:103AD00000000140036A23F0100370B50362036A1B
:103AE0004268846923F020030D6824F0807424F474
:103AF000E64444EA05248D6843EA05130D4DA842C7
:103B000003D005F58065A8420DD1CD6823F0800370
:103B100022F4406243EA0513D1E9055623F040033D
:103B2000354342EA850242604A68846182630362E7
:103B300070BD00BF00000140036A23F4807370B5BC
:103B40000362036A4268C46923F400730D6824F4B5
:103B5000803424F073042C438D6843EA05230D4D13
:103B6000A84203D005F58065A8420DD1CD6823F4A5
:103B7000006322F4405243EA0523D1E9055623F4B9
:103B80008063354342EA051242604A68C461C263F9
:103B9000036270BD00000140036A23F4805330B516
:103BA0000362026A4468C36922F400520D6823F07C
:103BB000807323F4E64343EA05238D6842EA053225
:103BC000084DA84203D005F58065A84204D124F42D
:103BD00080444D6944EA85144460C3614B680364C2
:103BE000026230BD0000014010B50124036A8C4020
:103BF00002FA01F123EA04030362036A0B4303623E
:103C000010BD000010B5044601220068FFF7ECFF6C
:103C10002368084A934203D002F58062934203D19D
:103C20005A6C42F400425A641A68002042F00102C1
:103C30001A6010BD00000140FFF7E4BF10B5042476
:103C4000036A8C4002FA01F123EA04030362036A67
:103C50000B43036210BD0000036A23F4803330B5C8
:103C60000362026A4468436D22F400320D6823F453
:103C7000803323F070032B438D6842EA0542094DDF
:103C8000A84203D005F58065A84204D124F480340D
:103C90004D6944EA0524446043654B6883650262CC
:103CA00030BD00BF00000140036A23F4801330B52B
:103CB0000362026A4468436D22F400120D6823F027
:103CC000807323F4E04343EA05238D6842EA0552FA
:103CD000084DA84203D005F58065A84204D124F41C
:103CE00080244D6944EA8524446043654B68C3657C
:103CF000026230BD0000014010B504460422006895
:103D0000FFF79CFF236800205A6C42F400425A647B
:103D10001A6842F001021A6010BDFFF7EDBF38B516
:103D200090F83C3004460D460220012B12D00123AE
:103D30000C2A84F83D0084F83C3054D00BD8042A77
:103D40002FD0082A3ED0DAB10123002084F83D307C
:103D500084F83C0038BD102A56D0142AF4D12068CB
:103D6000FFF7A2FF236809695A6D42F400625A65A1
:103D70005A6D22F480625A655A6D42EA012252E07D
:103D80002068FFF779FE236829699A6942F00802E2
:103D90009A619A6922F004029A619A690A439A61C7
:103DA000D2E72068FFF796FE236829699A6942F4F2
:103DB00000629A619A6922F480629A619A6942EA81
:103DC0000122ECE72068FFF7B7FE23682969DA696A
:103DD00042F00802DA61DA6922F00402DA61DA6993
:103DE0000A43DA61B0E72068FFF7D6FE2368296945
:103DF000DA6942F40062DA61DA6922F48062DA6137
:103E0000DA6942EA0122ECE72068FFF725FF236820
:103E100009695A6D42F008025A655A6D22F004028F
:103E20005A655A6D0A435A658EE770472DE9F0418D
:103E3000DDF8188004460E4615461F462268D369F1
:103E400036EA03030CBF01230023AB4201D000205C
:103E500017E0B8F1FF3FF2D0B8F1000F13D123689B
:103E600003201A6822F4D0721A609A6822F00102C4
:103E70009A60202384F8693084F86A30002384F83B
:103E80006830BDE8F081FDF797F8C01B4045D5D3F9
:103E9000E5E7000038B5C269044603688168006937
:103EA0001D680143606901439E4811432840256A0B
:103EB0000143E0681960596821F440510143596099
:103EC000A1699868294320F43060014399609649BC
:103ED0008B421DD101F59431D1F8901001F003010E
:103EE0000139022900F2FF809048B2F5004F415C91
:103EF00040F0AB80082900F2A580DFE811F0E20075
:103F0000F700FD00A3000901A300A300A3003200F5
:103F100087498B4207D101F5FA318648D1F89010D4
:103F200001F00C01E1E784498B421FD101F5F83122
:103F3000D1F8901001F03001202900F0DA800AD881
:103F4000002900F0BB80102900F0DF80B2F5004F9F
:103F500078D00120C6E03029F8D1B2F5004F40F00A
:103F6000A8806268530803F58033CBE073498B4225
:103F700010D101F5F631D1F8901001F0C00180297F
:103F800000F0B78004D8002900F098804029DBE7D2
:103F9000C029E1E76A498B4213D101F5F431D1F828
:103FA000901001F44071B1F5007F00F0A28005D8B7
:103FB000002900F08380B1F5807FC5E7B1F5407F2F
:103FC000CAE760498B4213D101F59231D1F89010C4
:103FD00001F44061B1F5006F00F08B8005D8002935
:103FE00000F08180B1F5806FAEE7B1F5406FB3E7C7
:103FF00055498B4211D101F5E031D1F8901001F40F
:104000004051B1F5005F74D004D8002956D0B1F505
:10401000805F99E7B1F5405F9EE74C498B4295D1AF
:1040200001F5DE31D1F8901001F44041B1F5004FB7
:104030005FD004D8002941D0B1F5804F84E7B1F5B5
:10404000404F89E70120002345E0082981D801A2DB
:1040500052F821F07940000891400008974000088C
:10406000533F0008AD400008533F0008533F00088D
:10407000533F0008B3400008FFF79AF9D4E9002342
:1040800000EB5300B0FBF3F080B2D060002029E0D9
:10409000FFF79EF9F2E761684A0802F5740202F53B
:1040A0001052B2FBF1F292B2DA60EFE7FFF7B6F826
:1040B000E4E761684A0802F50042F2E7B2F5004F12
:1040C000DAD1FFF775F963685A0802EB4000B0FBDC
:1040D000F3F39BB2002023F00F02C3F342032168E5
:1040E0001343CB6038BDB2F5004FD1D1FFF770F963
:1040F000E9E7B2F5004FCED16268530803F1F473DB
:1041000003F59043B3FBF2F3E3E7B2F5004FCDD1F3
:10411000FFF784F861684A0802EB4003B3FBF1F350
:10412000D7E700BFF369FFEF001001404DF700082B
:104130000044004050F7000800480040004C004098
:10414000005000400014014000780040007C004016
:10415000436ADA0710B506D50168846A4A6822F412
:10416000003222434A609C0706D50168C46A4A6847
:1041700022F4803222434A60590706D50168046B55
:104180004A6822F4802222434A601A0706D5016851
:10419000446B4A6822F4004222434A60DC0606D59A
:1041A0000168846B8A6822F4805222438A609906EF
:1041B00006D50168C46B8A6822F4005222438A60E3
:1041C0005A0610D50168046C4A68B4F5801F22F4C1
:1041D000801242EA04024A6005D14A68446C22F423
:1041E000C00222434A601B0606D50268816C5368F0
:1041F00023F400230B43536010BD37B5002504465C
:10420000C566FCF7D9FE226803461268120709D476
:104210002023002084F8693084F8680084F86A302C
:1042200003B030BD6FF07E424FF400112046009283
:104230002A46FFF7FBFD0028EAD00320F0E710B57F
:10424000044660B390F8693003F0FF021BB980F8B0
:104250006820FFF7EAFD22682423204684F86930AD
:10426000136823F001031360FFF714FE012816D032
:10427000636A13B12046FFF76BFF236820465A6834
:1042800022F490425A609A6822F02A029A601A68D0
:1042900042F00102BDE810401A60FFF7AEBF0120F6
:1042A00010BD10B50223A6B00F22002407216846D6
:1042B000CDE900234FF4A053CDE902434FF48053DE
:1042C0000493FEF7D9FF58B94FF40013249005A8C2
:1042D0000593FFF7ABF8B0FA80F0400926B010BDA7
:1042E0002046FBE70E490020D1F8883043F47003E4
:1042F000C1F888300B4B1A6842F001021A609860CE
:104300001A6822F0847222F480321A60064A5A60D7
:104310001A6822F480221A60D860044B8B607047C0
:1043200000ED00E0003802401030002400000008DA
:104330001D4B00284FF004011A6C42F0805200B56A
:104340001A648FB01B6C02A803F080530093009B8B
:10435000164B1A6842F440421A604FF480021B6800
:1043600003F440430193019B4FF0010302930CBF00
:104370004FF480334FF4A02303930223CDE9083296
:104380000C93D8220923CDE90A120D93FEF7AEFD56
:1043900018B100200FB05DF804FBFEF76FFD002898
:1043A000F7D1FFF77EFFF5E70038024000700040CC
:1043B000154B082010211A6C42F0805200B51A6487
:1043C0008FB01B6C0122069103F0805305920022EE
:1043D0000193019B0223039202930C93CDE90832CF
:1043E000D8220923CDE90A0202A80D93FEF77EFD2B
:1043F00018B100200FB05DF804FBFEF73FFD002868
:10440000F7D1FFF74EFFF5E70038024008B501206D
:10441000FFF78EFF28B9FFF7CBFF10B90148FCF773
:1044200031FF08BD5DF70008174A1849936803F08B
:104430000C03042B10B50DD0082B0DD0144B0B60C2
:10444000114B144A9B68C3F30313D25C0B68D3402F
:104450000B6010BD104BF2E754685068630252685D
:1044600000F03F0048BF0C4BC2F3881258BF084B06
:10447000B3FBF0F35343044A5268C2F301420132E2
:104480005200B3FBF2F3DAE700380240D403002015
:104490000024F40071F7000800127A00074B084A64
:1044A00013601A69910707D5DA68920704D56FF08F
:1044B00002021A61FDF744BE704700BF000C0040C5
:1044C00048240020004870478CF7000830B589B0B8
:1044D000234C01A903A8FEF78BFFFEF769FF214BD0
:1044E00001901A6C42F008021A641A6C02F0080279
:1044F0000292029A1A6A42F008021A621A6A22F0BA
:1045000008021A62A3F50B33069A23604FF0FF33BB
:10451000E360154B0ABB0025B0FBF3F001382561C1
:10452000A56060600E48C4E90555FFF771FA0F4BAE
:104530000F4A9B68C3F80821BFF34F8F0D4B4FF410
:1045400080225A6006482946FFF75CFB2268D36840
:1045500023F00203D36009B030BD4000DBE700BFA9
:10456000482400200038024040420F0000ED00E0E7
:104570009D44000800E100E0044800210268D3687F
:1045800023F00203D360FFF73DBB00BF48240020A7
:10459000014B586A704700BF000C0040054B6FF09C
:1045A00002021B6858631A61DA6842F00202DA609C
:1045B000704700BF48240020064B6FF002021B68C2
:1045C0001A615A6942F002025A61DA6842F0020244
:1045D000DA60704748240020034B1A68D36823F040
:1045E0000203D360704700BF48240020024B6FF0E5
:1045F00002021B681A6170474824002082B00190B3
:104600000091009B002B05D0019B9B68019A1268CA
:104610001A6005E0019B1A68019BDB6812041A60AE
:1046200000BF02B0704782B00190019B5B681A68BE
:10463000019B1B681340002B01D0012300E00023E5
:10464000184602B0704700B583B001900B46ADF834
:104650000230019B1A460023136053609360D360BD
:10466000136153619361019BBDF902201146184605
:10467000FCF74BFF019B184603B05DF804FB00B547
:1046800083B00190019B1846FFF7CDFF0346184603
:1046900003B05DF804FB00B583B001900B46ADF8A4
:1046A0000230019B1A460023136053609360D3606D
:1046B000136153619361019BBDF9022011461846B5
:1046C000FCF738FF019B184603B05DF804FB00B50A
:1046D00083B001900091019B00991846FFF78EFF6F
:1046E00000BF03B05DF804FB10B584B001900B4629
:1046F0008DF80330002303935849019A13465B0059
:1047000013449B000B4408331B78002B5BD19DF8AE
:104710000330002B25D11C20FDF704FA03461C466C
:104720004E49019A13465B0013449B000B44B3F9B6
:10473000003019462046FFF786FF4849019A134684
:104740005B0013449B000B4404331C604349019AF3
:1047500013465B0013449B000B44083301221A707C
:1047600028E09DF80330012B24D11C20FDF7DAF955
:1047700003461C463949019A13465B0013449B00CB
:104780000B44B3F9003019462046FFF784FF334944
:10479000019A13465B0013449B000B4404331C60D6
:1047A0002E49019A13465B0013449B000B440833C7
:1047B00002221A70019A13465B0013449B00274A99
:1047C0001344039345E02549019A13465B001344C3
:1047D0009B000B4408331B78012B0CD19DF8033050
:1047E000002B08D1019A13465B0013449B001B4A1F
:1047F000134403932DE01949019A13465B001344B7
:104800009B000B4408331B78022B0CD19DF803301E
:10481000012B08D1019A13465B0013449B000F4AF9
:104820001344039315E00D49019A13465B001344AA
:104830009B000B4408331B780A2B08D1019A1346BE
:104840005B0013449B00054A1344039301E00023DB
:104850000393039B184604B010BD00BFA0040020C2
:1048600000B585B00190019B0293029B002B15D0EF
:10487000029B1B7A0A2B08D1029B5B681846FBF748
:1048800094FE03468DF80F300BE0029B5B681846E0
:10489000FFF7F5FE03468DF80F3002E000238DF898
:1048A0000F309DF80F30184605B05DF804FB00B5D9
:1048B00085B001900B468DF80330019B0393019B5B
:1048C000002B07D0039B5B689DF803201146184618
:1048D000FFF7FDFE00BF05B05DF804FB00B585B035
:1048E0000190019B0393039B1B7A022B0BD1039B2B
:1048F0005B68002B03D01C211846FDF727F9039BAA
:1049000000221A720EE0039B1B7A012B0AD1039B33
:104910005B68002B03D01C211846FDF717F9039B99
:1049200000221A7200BF05B05DF804FB00B583B029
:1049300001900B46ADF80230019BBDF902201146F3
:104940001846FBF74DFE019B184603B05DF804FBCB
:1049500000B583B00190019B1846FDF70DFD019B4A
:104960001846FBF783FE019B184603B05DF804FB75
:1049700010B588B005908DED020B8DED001B4649FA
:10498000059A13465B0013449B000B4408331B78C5
:10499000002B67D11C20FDF7C5F803461C463E4995
:1049A000059A13465B0013449B000B44B3F9003097
:1049B00019462046FFF7BAFF3749059A13465B00B0
:1049C00013449B000B4404331C603349059A13467F
:1049D0005B0013449B000B4404331B681C46DDE959
:1049E00002234FF000002D4908F03AFA02460B4628
:1049F0001046194608F0DAFB034600EE103A20464E
:104A0000FBF7FFFD2449059A13465B0013449B0006
:104A10000B4404331B681C464FF00002204BDDE9B9
:104A2000000108F01DFA02460B461046194608F030
:104A3000BDFB034600EE103A2046FBF7FBFD16498E
:104A4000059A13465B0013449B000B440833042271
:104A50001A70059A13465B0013449B000E4A1344D8
:104A6000079315E00C49059A13465B0013449B001D
:104A70000B4408331B78042B08D1059A13465B00BE
:104A800013449B00044A1344079301E00023079357
:104A9000079B184608B010BDA00400200000F03F9E
:104AA0000000594082B0019000BF02B07047000082
:104AB00010B586B003908DED000B039B0593059B0D
:104AC000002B19D0059B1B7A042B15D1059B5B6825
:104AD0001C464FF000020A4BDDE9000108F0C0F966
:104AE00002460B461046194608F060FB034600EEEE
:104AF000103A2046FBF79EFD00BF06B010BD00BF78
:104B00000000594010B584B00190019B0393039BB2
:104B1000002B14D0039B1B7A042B10D1039B5C68E1
:104B2000002C06D02046FFF713FF1C212046FDF77E
:104B30000DF8039B00221A72039B00225A6000BFEB
:104B400004B010BD82B0019000BF02B0704782B0C7
:104B50000190019B184602B0704782B00190019B02
:104B6000184602B0704782B0019000BF02B0704793
:104B700082B0019000BF02B07047000000B583B062
:104B800001900B46ADF802300A4A019B1A60019B66
:104B900024331846FFF7DBFF019B0433BDF90220E5
:104BA00011461846FBF7B6FF019B184603B05DF8A7
:104BB00004FB00BFB4F7000800B583B00190064ABB
:104BC000019B1A60019B24331846FFF7C6FF019B27
:104BD000184603B05DF804FBB4F7000800B583B0D5
:104BE00001900198FFF7E8FF28210198FCF7AEFF3C
:104BF000019B184603B05DF804FB00B583B001903B
:104C0000019B24331846FFF7AEFF00BF03B05DF8E9
:104C100004FB00B583B00190019B24331846FFF7D5
:104C2000A7FF00BF03B05DF804FB000000B583B030
:104C30000190009101980B49009A13465B001344C0
:104C40009B000B44B3F900301946FFF797FF064A63
:104C5000019B1A60019B009A9A62019B184603B05F
:104C60005DF804FBA00400209CF7000810B584B098
:104C70000190002303932549019A13465B001344D6
:104C80009B000B4408331B78002B24D12C20FCF70D
:104C900049FF03461C4601992046FFF7C7FF1B4901
:104CA000019A13465B0013449B000B4404331C60C1
:104CB0001649019A13465B0013449B000B440833CA
:104CC00008221A70019A13465B0013449B000F4A96
:104CD0001344039315E00D49019A13465B001344F6
:104CE0009B000B4408331B78082B08D1019A13460C
:104CF0005B0013449B00054A1344039301E0002327
:104D00000393039B184604B010BD00BFA00400200D
:104D100000B585B001908DED000A019B0393039BC4
:104D2000002B1DD0DDED007AF5EEC07AF1EE10FA21
:104D300003D54FF0000300930BE0DDED007AB7EEF2
:104D4000007AF4EEC77AF1EE10FA02DD4FF07E53EE
:104D50000093039B5B689DED000A1846FBF7C0FAC1
:104D600000BF05B05DF804FB00B585B00190019B64
:104D70000393039B002B0ED0039B5B68002B04D096
:104D80001A680432126818469047039B00225A6042
:104D9000039B00221A7200BF05B05DF804FB0000FF
:104DA00000B583B00190064A019B1A60019B18462A
:104DB000FFF702FF019B184603B05DF804FB00BF3C
:104DC0009CF7000800B583B001900198FFF7E8FF59
:104DD0002C210198FCF7BAFE019B184603B05DF840
:104DE00004FB84B00190009100238DF80F309DF9F1
:104DF0000F30184604B0704700B585B0019000919F
:104E000000238DF80B30019B002B02D14FF0FF33B4
:104E100058E0009B002B02D14FF0FF3352E02B4BA8
:104E2000D3E900014FF000024FF0404308F056F97B
:104E30000346002B06D0009BD3E900232349C1E998
:104E4000002305E0214BD3E900230099C1E90023A9
:104E50001E4BD3E90023019B5B681B681C4A13604F
:104E6000019B5B685B681B4A1360019B5B689B68E6
:104E7000194A1360019B5B68DB68184A1360184B82
:104E800000221A6001F046FD0023039300230393E0
:104E900007E0144A039B144942F82310039B013393
:104EA0000393039B012BF4D901F0B0F903468DF86D
:104EB0000B309DF90B30002B02D10C4B01221A70E4
:104EC0009DF90B30184605B05DF804FB580400202E
:104ED0003011002034110020381100203C11002036
:104EE00040110020600E0020716900082E11002082
:104EF00000B587B0019000238DF81730002304938C
:104F000000238DF80F302E4B1B78DBB2002B0CBF2B
:104F100001230023DBB28DF80E302A4B02221A70D7
:104F2000019B002B0BD1264B1B78DBB2002B06D14B
:104F3000254B1B78DBB2002B01D1012300E00023BD
:104F40008DF80F3017E00A2006F0B2FF049A42F203
:104F5000107313440493019BB3F1FF3F05D0049AEF
:104F6000019B9A4201D9012300E000238DF80F3004
:104F7000002001F089F9124B1B78DBB2002B08D11D
:104F8000114B1B78DBB2002B03D19DF80F30002BA7
:104F9000D9D00C4B03221A709DF80F30002B02D091
:104FA0009C238DF817309DF80E30002B01D001F0B6
:104FB000D9FD9DF91730184607B05DF804FB00BF16
:104FC0002C1100202E1100202D11002000B587B0DB
:104FD00003468DED000BADF80E3000238DF8173031
:104FE00001238DF816304FF000024FF00003DDE989
:104FF000000108F07DF80346002B02D04FF0FF338C
:1050000052E0BDF80E30FF2B02D94FF0FF334BE0DA
:10501000274B1B78DBB2032B04D0254B1B78DBB26C
:10502000012B02D1224B04221A70BDF80E30012B45
:105030001BD8BDF80E301F4A52F82330002B14D075
:1050400002F002F903468DF815309DF81530022B59
:105050000BD1BDF80E30174A52F82330BDF80E20A0
:105060001046984703468DF81630BDF80E30ADF85F
:105070001230BDF80E3018469DED000B01F028F8F7
:105080009DF81630002B08D0BDF81230184602F0FB
:10509000B5F803468DF8173004E0BDF81230184615
:1050A00002F0FDF89DF91730184607B05DF804FBD3
:1050B0002E110020600E002000B583B000238DF873
:1050C0000730002001F0E0F803468DF807309DF925
:1050D0000730184603B05DF804FB000000B583B04C
:1050E00000238DF807300C4B06221A7001F068F986
:1050F00003468DF8073008220021084809F0ECF932
:1051000001F0BAFC044B00221A709DF907301846D2
:1051100003B05DF804FB00BF2E110020600E0020DC
:10512000024B1B78DBB21846704700BF2D110020E0
:10513000024B1B78DBB21846704700BF44110020B9
:1051400000B585B04FF000024FF00003CDE9022317
:105150003F4B1B785A1CD1B23D4A1170002B09D02D
:105160003C4B01221A603A4B1B78013BDAB2384BB8
:105170001A706AE001AB184600F030F962B600BF61
:10518000354B1B68D3F85431D3E90023CDE9022312
:1051900000F0B8F99DED020B0120FFF717FF72B682
:1051A00000BF2B4B1B78013BDAB2294B1A709DF8DC
:1051B0000630002B11D0294B9B785A1CD1B2274ABC
:1051C0009170002B09D0234B01221A60234B9B784E
:1051D000013BDAB2214B9A7037E0204B9B78002BD1
:1051E00033D01B4B5B78002B2ED1194B9B780133AE
:1051F000DAB2174B9A7062B600BF174B1B68D3F830
:105200003C31184607F088FC4FF00002144B07F0C1
:10521000FDFC02460B46CDE9022300F03FFB9DED6D
:10522000020B0220FFF7D2FE00BF72B600BF0B4B8D
:105230009B78013BDAB2094B9A70054B9B78013B96
:10524000DAB2034B9A7000E000BF05B05DF804FBD2
:105250006C0E0020680E0020C4F70008700E0020BD
:105260000000E03F00B585B0564B0393564B0293C8
:1052700000238DF80730554B00221A70544B002242
:105280001A7001DFFDF75EFDFFF7CEF806F026FE8F
:10529000504B1B6800221A6000210020FFF7A1FD7F
:1052A00003468DF807309DF90730002B02D09DF999
:1052B000073083E000F08CFB72B600BF62B600BF1F
:1052C000444B1B685A68434B1B6803F5A47319468B
:1052D0001046FFF791FD03468DF807309DF9073022
:1052E000002B0DD14FF0FF30FFF702FEFFF718FF44
:1052F0000346002B04D0374B1B68012283F8512151
:1053000072B600BF9DED030A06F068FEFFF710FFBE
:105310000346002B0CD1FFF703FF0346002B07D1F8
:105320002C4B1B6893F85131002B01D1012300E075
:105330000023DAB2264B1A7062B600BF62B600BF15
:1053400030E0FFF7B9FE03468DF80730FFF7F0FEB7
:105350000346002B0AD1FFF7E3FE0346002B05D1DD
:105360001C4B1B6893F85131002B01D0012300E046
:105370000023DAB2154B1A70144B1B78DBB2002BEA
:105380000CBF01230023DBB21A46114B1A700F4BDE
:105390001B78DBB2002B05D00F4B1B680E4A23F0A5
:1053A000010313600A4B1B78DBB2002BC9D100F05C
:1053B000BFFCFFF793FE72B600BF0023184605B08E
:1053C0005DF804FB0AD7233C00005843730E00200D
:1053D000740E0020C4F7000810E000E082B00190D5
:1053E000064B93F84231002B0CBF01230023DAB2A5
:1053F000019B02331A7000BF02B07047700F00208B
:10540000084B93F842210132D2B283F84221054B76
:1054100093F84231312B03D9024B002283F8422109
:1054200000BF7047700F002000B585B08DED000BF8
:105430000098019B23F000414FF000022E4B07F033
:1054400057FE0346002B48D04FF000022B4BDDE9FE
:10545000000107F061FE0346002B13D04FF000025D
:10546000264BDDE9000107F01BFA02460B4643EC30
:10547000172BB0EE470AF0EE670A07F041F88DED02
:10548000020B2EE04FF000021D4BDDE9000107F09A
:105490004DFE0346002B0CD04FF000024FF00003EE
:1054A000DDE9000107F0B2FB02460B46CDE902231D
:1054B00017E04FF00002114BDDE9000107F0EEF9B3
:1054C00002460B4643EC172BB0EE470AF0EE670A94
:1054D00006F08EFF8DED020B03E0DDE90023CDE940
:1054E0000223DDE9022343EC172BB0EE470AF0EE6E
:1054F000670A05B05DF804FB000030430000E03FA0
:105500000000E0BF30B587B0FFF77AFFC24B93F9D8
:10551000C5308DF8143000238DF817309DF8143005
:10552000042B20D801A252F823F000BF41550008F7
:1055300049550008515500085955000861550008A3
:1055400000238DF817300EE003238DF817300AE0A2
:1055500003238DF8173006E000238DF8173002E0A2
:1055600000238DF817309DF91720AB4B83F8C52029
:10557000A94B93F9C4308DF8133000238DF8163001
:105580009DF81330042B20D801A252F823F000BF5D
:10559000A5550008AD550008B5550008BD550008D3
:1055A000C555000800238DF816300EE003238DF852
:1055B00016300AE003238DF8163006E000238DF83C
:1055C000163002E000238DF816309DF91620924B1C
:1055D00083F8C420904BD3F88440904BD3E9060164
:1055E00001231D464FF000024FF0000307F076FD47
:1055F0000346002B01D000231D46EBB2194620467E
:10560000FFF755F9844B5C6F844BD3E90801012304
:105610001D464FF000024FF0000307F05FFD034608
:10562000002B01D000231D46EBB219462046FFF7A0
:105630003EF97A4B93ED0A7BB0EE470AF0EE670A2B
:10564000FFF7F2FEB0EE407AF0EE607A744B83ED35
:10565000007B714BD3F8A430714A92ED007BB0EE21
:10566000470AF0EE670A1846FFF722FA6A4B5C6EAB
:105670006A4BD3E90C0101231D464FF000024FF0A5
:10568000000307F02BFD0346002B01D000231D462D
:10569000EBB219462046FFF70AF9604B93ED0E7BFB
:1056A000B0EE470AF0EE670AFFF7BEFEB0EE407AB2
:1056B000F0EE607A5A4B83ED027B574BD3F894306F
:1056C000574A92ED027BB0EE470AF0EE670A1846A1
:1056D000FFF7EEF9504BD3F8B440504BD3E9102309
:1056E0001046194607F062FD034600EE103A2046C8
:1056F000FFF70EFB484B5C6D484BD3E912010123C9
:105700001D464FF000024FF0000307F0E7FC034690
:10571000002B01D000231D46EBB219462046FFF7AF
:10572000C6F83D4BD3E904013C4BD3E9042307F011
:10573000D5FC0346002B05D1384BD3E90423364969
:10574000C1E90423344BDB681846FFF789F80346A8
:105750001A46334B83F82020314B93F820301846FB
:1057600007F0DAF92D4BD3E9142307F097F8024636
:105770000B4643EC172BB0EE470AF0EE670A2949B7
:10578000012000F0E5FB03468DF812309DF9123040
:10579000002B0BD0244BD3F85431D3E900232049FC
:1057A000C1E904231C4B042283F8C4201C4BD3E919
:1057B0000401194BD3E92E2307F070F802460B467B
:1057C000CDE902234FF000024FF00003DDE90201B2
:1057D00007F0ACFC0346002B34D01149DDE902236D
:1057E000C1E906230C4B93F9C5308DF807309DF8BD
:1057F00007308DF815309DF80730042B1DD801A215
:1058000052F823F02D5800083B5800083B58000878
:10581000355800083B580008A00E0020D80300208F
:10582000780E0020680F0020700F002002238DF8F2
:10583000153002E001238DF815309DF91520144B29
:1058400083F8C520134BD3E904231149C1E92E2362
:10585000114BD3F828210132C3F82821D3F828317D
:10586000184607F059F90C4BD3E94C230A4CD4F8ED
:10587000544107F0CBF902460B46C4E90023064B1E
:10588000D3F838210132C3F8382100BF07B030BD4A
:10589000A00E0020780E0020700F002030B583B0DD
:1058A000464BD3F8C030184607F046F9444BD3E9CD
:1058B0001C2307F01DFC0346002B08D03F4BD3F8F8
:1058C000C030002B03DB3E4BD3E9182303E04FF03D
:1058D00000024FF00003CDE90023384BD3F8C0306D
:1058E000184607F029F904460D46354BD3E91A014D
:1058F0004FF00002334B06F0D1FF02460B46204624
:10590000294607F009FC0346002B04D02B4B00224C
:10591000C3F8C02006E0294BD3F8C0300133274A32
:10592000C2F8C030254B5C6C01231D464FF00002CD
:105930004FF00003DDE9000107F0D0FB0346002B28
:1059400001D000231D46EBB219462046FEF7AFFFFB
:105950001A4B5C6B01231D464FF000024FF0000311
:10596000DDE9000107F0BAFB0346002B01D000235C
:105970001D46EBB219462046FEF799FF0F4B5C6AB5
:1059800001231D464FF000024FF00003DDE9000146
:1059900007F0A4FB0346002B01D000231D46EBB209
:1059A00019462046FEF783FF074BD3F83C2101320E
:1059B000C3F83C2100BF03B030BD00BFA00E0020E3
:1059C000D80300200000F03F700F0020000000000E
:1059D00008B5AB4BAA4A03F5A873D360A84BA84AF5
:1059E00003F5AA73C2F88430A54BA54A03F5987352
:1059F0009362A34AA24BC3F8D020A14BA04A9A605D
:105A00009F4BDB6801221A709D4B9E4A5A619C4B4A
:105A10009B4A03F5AC73C2F85431994990A3D3E97A
:105A20000023C1E9522396498FA3D3E90023C1E99A
:105A30004C23934B944AC3F81021914B934AC3F8DB
:105A400014218F4B924AC3F818218D4B914AC3F809
:105A50001C218B4B904A5A608F4B904A1A608F4B97
:105A60008F4A1A608D4B8E4A5A608C4B8C4A9A60D2
:105A70008A4B8B4ADA60894B894A1A61874B884A7C
:105A80005A61864B864A9A61844B854ADA61834B18
:105A9000834A1A62814B824A5A62804B804A9A62D8
:105AA0007E4B804ADA627D4B7F4A1A637B4B7C4A8D
:105AB0005A63734A724B5B6802F590729A60704A3F
:105AC0006F4B5B6802F588725A606D4A6C4B5B687D
:105AD000D2F85421DA60754B03221A70744BD3E963
