:020000040800F2
:1000000000000520DD3D0008113E000861120008D7
:10001000691200087112000879120008000000003F
:100020000000000000000000000000003DFD00088E
:10003000113E000800000000F9FC000839FC00082F
:10004000113E0008113E0008113E0008113E000854
:10005000113E0008113E0008113E0008113E000844
:10006000113E0008113E0008113E0008113E000834
:10007000113E0008113E0008113E0008113E000824
:10008000113E0008113E0008113E0008451200080C
:1000900039120008113E000849120008113E0008FC
:1000A000113E0008113E0008113E0008113E0008F4
:1000B000113E0008113E0008113E0008113E0008E4
:1000C000113E0008113E0008113E0008113E0008D4
:1000D000113E0008113E0008113E0008113E0008C4
:1000E000113E0008113E0008113E0008113E0008B4
:1000F000113E0008113E0008113E0008113E0008A4
:10010000113E0008113E0008113E0008113E000893
:10011000113E0008113E0008113E0008113E000883
:10012000113E0008113E0008113E0008113E000873
:10013000113E0008113E0008113E00085912000847
:100140004D120008113E00085D120008113E000823
:10015000113E0008113E0008113E0008113E000843
:10016000113E0008113E0008113E0008113E000833
:10017000113E0008113E0008113E0008000000007A
:10018000113E0008113E0008113E0008113E000813
:10019000113E0008113E0008113E0008113E000803
:1001A000113E0008113E0008113E0008113E0008F3
:1001B000113E0008113E0008113E0008113E0008E3
:1001C000113E0008113E00080348044B834202D050
:1001D000034B03B118477047F80C0020F80C0020BF
:1001E000000000000548064B1B1AD90F01EBA301C4
:1001F000491002D0034B03B118477047F80C002098
:10020000F80C00200000000010B5064C237843B91C
:10021000FFF7DAFF044B13B10448AFF3008001236A
:10022000237010BDF80C002000000000DC3A01082B
:1002300008B5054B1BB105490548AFF30080BDE883
:100240000840FFF7CFBF00BF00000000FC0C0020FB
:10025000DC3A0108A3F5803A704700BF174B002B2A
:1002600008BF134B9D46FFF7F5FF00218B460F4655
:100270001348144A121A11F08FFF0E4B002B00D0B6
:1002800098470D4B002B00D0984700200021040018
:100290000D000D48002802D00C48AFF3008012F08A
:1002A00001F82000290007F007FB10F0ADFF00BFA8
:1002B0000000080000000000F92D000800000520E3
:1002C000F80C0020182B00200000000000000000A7
:1002D000704710B50446502102F08AFC204610BD3C
:1002E00037B50546044655F8043B9B6898472846B1
:1002F00000F0A8FD23688DED010A2046DB689847D1
:100300009DED010A03B030BD0346006818B91868B6
:1003100008B9181D1860704708B50248FFF7F4FFC8
:1003200008BD00BF140D002008B50248FFF7ECFF20
:1003300008BD00BF140D002073B50A4B05460A4ED8
:10034000044645F8043B30460191FFF7DDFF019973
:10035000284600F085FD3046FFF7D6FF204602B064
:1003600070BD00BF28290108140D002037B50546CF
:1003700004468DED010A55F8043B9B6898472846D2
:100380009DED010A00F05AFE23682046DB6803B0A9
:10039000BDE830401847036818470B680360704792
:1003A0007047C36810B504460BB19B689847204658
:1003B00010BD884238B504460D460ED0FFF7F1FF58
:1003C00010220021204611F0E7FEEB681BB15B68AC
:1003D000294620469847EB68E360204638BD000078
:1003E000024B1B6803B11847704700BF1C0D00206B
:1003F00007B5019001F0C0FE0121019801F084F8D9
:1004000003B05DF804EB01F0C1BE07B5019001F047
:10041000B3FE0021019801F077F803B05DF804EB1A
:1004200001F0B4BE07B5CDE9001001F0A5FEDDE98D
:10043000001001F065F803B05DF804EB01F0A6BE12
:10044000007B704738B50B4B0D46044602730360C2
:100450000023C0E901310848FFF756FF45B1074BBB
:100460001A681C6062600448FFF74EFF204638BDE2
:100470006560F8E748290108240D0020200D0020C0
:10048000124B10B5044603601148FFF73DFFA36807
:100490002BB1104962680B68A34210D10A600E4B61
:1004A0000B481A68A24204BF00221A60FFF72CFF13
:1004B000237B13B9201F02F09FFB204610BD194675
:1004C0005B68A342FBD14A60E9E700BF4829010805
:1004D000240D0020200D00202C0D002010B5044616
:1004E000FFF7CEFF1021204602F082FB204610BD10
:1004F000F8B5064614480D46FFF706FF134B1C6877
:1005000094B1A76877B1384611F060FFA84209D1CD
:100510002A463146384611F015FE18B90A48FFF749
:10052000F3FE0FE06468EBE7072DF7D12A4631466A
:10053000074811F007FE0028F0D10348FFF7E4FE5A
:10054000044B1C682046F8BD240D0020200D00201F
:10055000382901082C0D002000207047002070472A
:100560000368012200211B691847036800221B69E8
:10057000114618476FF01500704703681B6918474C
:1005800003689B69184703689B6A184700290CBFDA
:100590006FF0180000207047012070476FF01500C1
:1005A00070476FF01500704711207047704703685F
:1005B000012200211B6970B504469847051E0DDB1A
:1005C00023680222002120461B69984706462368BB
:1005D0002946354600221B6920469847284670BDAB
:1005E00070B50D46002604460C49C0E90066284651
:1005F00011F0DAFD31462844206023681A782F2A4A
:1006000006D101332360FFF773FF6060204670BDA1
:10061000002AF8D0013301312360EEE7AC2901084C
:1006200000687047406808B520B1FFF709FF431E16
:100630005842584108BD10B50446FFF7F3FF10B10A
:10064000606800B1043810BD406808B520B1FFF7FC
:10065000F7FEB0FA80F0400908BD10B50446FFF778
:10066000F3FF10B1606800B1043810BD4068003875
:1006700018BF012070474168034630B471B1D0E91A
:10068000032000F0010402B944B1451001EB600001
:100690000CB149598A58996830BC104730BC704732
:1006A000036870B504460D461B68984704F1300096
:1006B0002946C4F8C85001F061F8044B20461C607C
:1006C0002368BDE870405B68184700BF380D002004
:1006D000036870B5094D04461B6898472B68A34210
:1006E00006D0D4F8C81004F1300001F047F82C60AF
:1006F000236820465B68BDE870401847380D00202D
:100700007FB51D46036804461B68CDE90221984762
:100710002046FFF7DDFF9DF8203004F1300083F024
:100720000103DDE9022100932B4601F0E1F9236882
:10073000064620465B689847A81B18BF012004B0F6
:1007400070BD7FB51D46036804461B68CDE90221D4
:1007500098472046FFF7BCFF9DF8203004F1300099
:1007600083F00103DDE9022100932B4601F06CF9CF
:100770002368064620465B689847A81B18BF0120DF
:1007800004B070BD70B590B00D46144600211C2217
:1007900002A811F001FD01260023294602A80096B7
:1007A0001A4601F0F0FE1C22002109A811F0F4FC09
:1007B0000023214609A81A46009601F0E4FE0A9B90
:1007C0001A68099B1A4203D16FF0010010B070BD86
:1007D000039B1968029B194043D109A80A24FFF71B
:1007E00021FE09A8FFF704FE002109A8FFF71AFE61
:1007F000099B0C9A05201B04136002F013FD0121D4
:1008000009A8FFF70FFE0B9B099A05201A6002F05A
:1008100009FD013CE8D102A8FFF7EAFD029B059A19
:1008200005201B04136002F0FDFC0B9B099A0520B8
:100830001A6002F0F7FC049B029A05201A6002F08D
:10084000F1FC02A8FFF7E1FD09A8FFF7DEFD0A9B16
:100850001A68099B1A42B7D0039B1A68029B1A4276
:10086000B2D00020B2E7C36810B504460BB19B6854
:100870009847204610BD0000064B10B504460360A3
:10088000806A08B1FFF7ACFD201DFFF7ECFF2046A2
:1008900010BD00BFB829010810B50446FFF7ECFFF2
:1008A000D021204602F0A4F9204610BD08B5024828
:1008B000FFF72AFD08BD00BF300D00201C4B2DE9BD
:1008C000F04104460D4616460021102240F8043B34
:1008D00011F062FC04F130080021164B98224046CA
:1008E000A1856361A461144FC4E90711C4E909112A
:1008F00011F052FC114B3846C4F8C830FFF704FD24
:10090000324629462046A4F8CC50A4F8CE60FFF722
:1009100039FFB4F9CE20B4F9CC10404601F03EF8CE
:10092000074B38461C60FFF7EFFC2046BDE8F0811E
:10093000B829010877060008300D0020A0860100C4
:10094000380D002083681A6843681A4214BF0120DA
:100950000020704710B5044621B9102211F01CFC8C
:10096000204610BD0022034B016042608260C360DC
:10097000F6E700BFC8290108002307B503760191F7
:10098000009001F0F9FBDDE9000102F08BFE01F0BF
:10099000FDFB009803B05DF804FB07B501908DEDF9
:1009A000000A01F0E9FB9DED000A019802F05CFFEE
:1009B00003B05DF804EB01F0E9BB037E10B504461B
:1009C0001BB901F0DDFE0123237610BD07B58DEDC7
:1009D000010A009001F0D0FB0098FFF7EEFF9DEDBB
:1009E000010A009802F036FD03B05DF804EB01F057
:1009F000CDBB037E10B504461BB101F0D5FE00232C
:100A0000237610BD07B5019001F0B6FB019802F006
:100A10001BFD0198FFF7EDFF01F0B8FB019803B053
:100A20005DF804FB704700F08BB8A0F1B400FFF74D
:100A3000FABF00F088B8A0F1B400FFF7FABF0000D9
:100A4000094B03F1080210B5026003F12802943348
:100A50000446C0F8B420B430436000F0C3F9204627
:100A600000F01CF9204610BDC0310108A0F1B4000F
:100A7000E6E7A0F1B800E3E710B50446FFF7E0FFB2
:100A8000D021204602F0B4F8204610BDA0F1B400F9
:100A9000F2E7A0F1B800EFE77047704738B50446B9
:100AA0001D46049B00F056F8294604F1B40000F0FE
:100AB00071F9064B204603F10802226003F1280277
:100AC0009433C4F8B420C4F8B83038BDC03101083C
:100AD000704701F1090300EB0313DA6832B100EB50
:100AE00001111846D1F89C201268104770474168E0
:100AF000034630B471B1D0E9032000F0010402B91B
:100B000044B1451001EB60000CB149598A5899680D
:100B100030BC104730BC704770B506460D460446E1
:100B200056F8443B1B6898473046294602F0F4FECD
:100B300023682046C4F8B0505B68BDE87040184791
:100B4000443003F025B910B50C46443003F032F9B7
:100B5000204610BD2DE9F04F87B000250446102631
:100B6000019388462D4B04F14407914629460360C2
:100B700032462B4B04F1900A858304F1A00B4360AD
:100B80008060C0E90355C0E90555203011F004FB31
:100B90003246294604F1300011F0FEFA29464C2273
:100BA0003846A4F8405011F0F7FA3246294650462C
:100BB00011F0F2FA32462946584611F0EDFA019B3F
:100BC00032462946C4F8B03002A811F0E5FA02A96D
:100BD0005046FFF7EEFB02A8FFF7E3FB324629463B
:100BE00002A811F0D9FA02A95846FFF7E2FB02A8C1
:100BF000FFF7D7FB4A464146384602F0C5FED4F817
:100C0000B010384602F088FE38462246054903F007
:100C10002DF8204607B0BDE8F08F00BF6432010810
:100C2000EF0A0008D30A00082DE9FF4115460368C2
:100C300004460F4605F109061B68984704F144086D
:100C400001F09AFAFA6804EB0616F368A2B10BB940
:100C500001F096FD39463046FFF7ABFB01222946ED
:100C6000404603F00FF801F091FA236820465B68D4
:100C7000984704B0BDE8F0810BB101F095FD10225A
:100C80000021684611F088FA69463046FFF791FB6B
:100C90006846FFF786FB0022E1E700001FB51A4B0C
:100CA0000446102200210360684611F075FA002204
:100CB00069462046FFF7B8FF6846FFF772FB10222F
:100CC0000021684611F068FA012269462046FFF7C4
:100CD000ABFF6846FFF765FB04F1A000FFF761FB7F
:100CE00004F19000FFF75DFB04F13000FFF7BBFD5E
:100CF00004F12000FFF7B7FDA06908B1FFF770FB12
:100D0000204604B010BD00BF6432010810B504468F
:100D1000FFF7C4FFB421204601F06AFF204610BD52
:100D20007047704700207047F8B50D4603680446C9
:100D30008F182E46DB6D9847BE42236806D05B6D48
:100D4000204616F8011B98470130F5D1236820464C
:100D50001B6E9847701BF8BDF8B50D460368044636
:100D60008F182E46DB6D9847BE42236807D09B6DD7
:100D700020469847431C02D006F8010BF4E723688D
:100D800020461B6E9847701BF8BD0020704700205E
:100D9000704770470F4B002213B5044640F8043BE0
:100DA000FFF750FB0C4B0D49204623606C3363600A
:100DB0000023636101F068FF0346606128B90246C1
:100DC00001460090064801F097FA01F087FD2046A1
:100DD00002B010BD58290108EC3201087432010834
:100DE000190101800A4B03F10802743310B504465F
:100DF00002604360406910F0A7FC064B2046236068
:100E00005C3340F8043FFFF73BFB204610BD00BFBA
:100E1000E43201088032010838B5036804460D4603
:100E2000DB6D984701220021606910F0C7FE6169FF
:100E3000284610F0B9FE2368054620461B6E9847E9
:100E4000284638BD08B500F083F807EE900AB8EEE2
:100E5000670ADFED027A20EE270A08BD0108803913
:100E60007FB5A1F1F00304460D469BB20F2B39D993
:100E70003149284601F050FC2F492060284601F0F6
:100E80006BFC2D490646284601F002FC00234FF476
:100E90008032C6F38436A4F8485023642361A361EA
:100EA000E3602363636184F84A60C4E9012301229B
:100EB000C4E90833C4E90A33E26123681F4A934254
:100EC0001BD11F4B5A6C42F480725A645B6C03F462
:100ED00080730193019B204602F0B4FF50B3194880
:100EE00001F0F6F91849284601F016FC1649206071
:100EF000284601F031FC0646C8E7144A93420ED05A
:100F000002F580729342E6D10D4B5A6C42F4806236
:100F10005A645B6C03F480630393039BDBE7084B29
:100F20005A6C42F400725A645B6C03F400730293CF
:100F3000029BD0E704B070BDD42901080020014015
:100F40000038024060330108202C010800210140D4
:100F500030B5012285B004460323002190F84A00F1
:100F6000CDE90123039112284FD8DFE800F00A26CB
:100F700028292B2D2F31333537393B3D3F4143480D
:100F80004A000091224D694620466B6823F44003D5
:100F90006B6003F0AFF8204602F0F8FF0A2120460C
:100FA00003F054F878BB204603F0A0F880B26B68D9
:100FB00023F440036B6005B030BD0092E2E70223EA
:100FC0000093DFE70423FBE70523F9E70623F7E7B0
:100FD0000723F5E70823F3E70923F1E70A23EFE7FF
:100FE0000B23EDE70C23EBE70D23E9E70E23E7E7FF
:100FF0000F23E5E7074B009307230293C2E7112372
:10100000F9E71223F7E70020D1E70020D3E700BF7C
:10101000002301401200001038B500F10C05044611
:10102000C1F30B0300228168284603F087F9A16809
:101030002846BDE8384003F033B90000B5EEC00AD9
:10104000F1EE10FA02D50021FFF7E6BFF7EE007AC5
:10105000B4EEE70AF1EE10FAD7BFDFED067A40F6FC
:10106000FF7120EE270AFDEEC07AD8BF17EE901A66
:10107000EAE700BF00F07F450909FFF7CDBF000098
:101080007FB50D460446002627492846CDE902666D
:1010900001F042FB24492060284601F05DFBC0F3CB
:1010A0008430012804D0022808D0204801F010F92B
:1010B000A6602368013304D11D48F7E71023A3601D
:1010C000F7E72846184901F0E3FA1A4B04F10C053A
:1010D0001A6B284642F001021A631A6B02F00102F1
:1010E0000092009A1A6C42F000521A641B6C03F0D2
:1010F00000530193019B104BE3600023237403F022
:10110000BCF808B10D48D1E702A9A268CDE90200F8
:10111000284603F0F2F8014608B10948C6E7204620
:10112000FFF7AAFF04B070BD502C01087633010808
:101130008A3301080038024000740040A1330108DE
:10114000B533010843692DE9F0410D46D90704463E
:1011500029D58768334E826807EA060C3248A368AF
:10116000BE43324902EA000203EA010301D101262B
:10117000A660824202D14FF48070A0608B4202D1FF
:101180004FF48031A16027498C4505D026498A4219
:1011900002D0264A934206D1254B0121254A1B68DD
:1011A00052F825009847E2686369920708D09F07C4
:1011B00006D51F4B00211F4A1B6852F8250098478F
:1011C000A16962698E0763690AD5900508D519047B
:1011D00006D5174B0521174A1B6852F8250098477A
:1011E000A769666917F00407626906F4806609D08A
:1011F00046B1120406D50E4B07210E4A1B6852F861
:101200002500984763695FB156B11B0408D5084BA8
:101210000221084A1B6852F82500BDE8F041184732
:10122000BDE8F08103000004000300080000031083
:10123000440D00203C0D002000210148FFF782BF33
:1012400000640040FFF7F8BFFFF7F6BF0121014837
:10125000FFF778BF00680040FFF7F8BFFFF7F6BF61
:101260004FF0100300F00CB84FF0200300F008B866
:101270004FF0300300F004B84FF0400300F000B826
:10128000EFF308804FF0040172460A4201D0EFF3F9
:1012900009809C46254B196802680A60043142683F
:1012A0000A60043182680A600431C2680A6004314D
:1012B000F0C147460F6004314F460F600431574676
:1012C0000F6004315F460F60043102690A60083123
:1012D00042690A60043182690A600431C2690A60A5
:1012E0000431034620334FF40076324200D00433F9
:1012F00075464FF01006354200D148330C46103C7D
:101300002360EFF309820A600431EFF308820A6078
:10131000043172460A600431EFF314820A606046B9
:10132000024B196801F0A8F8FEE700003836010802
:1013300091FAA1F3B3FA83F391FAA1F130B55B000E
:101340000325B1FA81F1046805FA03F3490024EAA0
:1013500003038A401343036030BD000000B5454BD2
:101360008DB00A2800F28380DFE800F006131E2902
:10137000343F4A55606B76001A6B3F4842F00102D9
:101380001A631B6B03F001030193019B0DB05DF821
:1013900004FB1A6B394842F002021A631B6B03F01C
:1013A00002030293029BF1E71A6B354842F00402F4
:1013B0001A631B6B03F004030393039BE6E71A6BAA
:1013C000304842F008021A631B6B03F008030493D1
:1013D000049BDBE71A6B2C4842F010021A631B6B6C
:1013E00003F010030593059BD0E71A6B274842F0E2
:1013F00020021A631B6B03F020030693069BC5E7CC
:101400001A6B234842F040021A631B6B03F040033F
:101410000793079BBAE71A6B1E4842F080021A63D3
:101420001B6B03F080030893089BAFE71A6B1A4805
:1014300042F480721A631B6B03F480730993099B57
:10144000A4E71A6B154842F400721A631B6B03F48D
:1014500000730A930A9B99E71A6B114842F4806261
:101460001A631B6B03F480630B930B9B8EE70D4891
:1014700000F02EFF0038024000000240000402404D
:1014800000080240000C024000100240001402401C
:1014900000180240001C02400020024000240240CC
:1014A00000280240D233010810B504464FF4707191
:1014B00001F0F4FE012004F00F04A04010BD000074
:1014C0004B1C70B504460E46018216D0C1F30310C2
:1014D000FFF744FF05463046FFF7E6FF238A074A39
:1014E00003F00F036561206052F82330A36105F11A
:1014F000100318356360C4E9025570BD0837010850
:10150000B0F9100001F04ABF0A46D0E905010AB956
:10151000FFF70EBF0122FBE708B505F061F80020D8
:1015200008BD000008B50A4B1B684BB101F05AFE1C
:1015300001F042FE4FF47A7200230FF0E7FC08BD81
:10154000044B586A4FF47A73B0FBF3F0F7E700BF2F
:10155000480E0020000C0040054B07B5D8680190EC
:1015600003F06AF8019803B05DF804EB03F035BCB2
:10157000480D0020054B07B59868019003F05CF812
:10158000019803B05DF804EB03F027BC480D002080
:10159000054B07B55868019003F04EF8019803B069
:1015A0005DF804EB03F019BC480D0020054B07B5AE
:1015B0001868019003F040F8019803B05DF804EB5F
:1015C00003F00BBC480D002070B5264C90F95C3040
:1015D000A56803F1100690F95D2045F82610BFF3C9
:1015E0004F8FA56802F1100645F82610BFF34F8F04
:1015F00090F86C10002914BF10212021002B19DB5A
:1016000003F1604000F5614080F80013002A17DB09
:1016100002F16040002B00F5614080F8001315DAFC
:101620000123510902F01F0203FA02F20E4B43F8A4
:10163000212070BD03F00F00043804442176E5E753
:1016400002F00F040948002B0155F2DB580903F0A2
:101650001F0101238B40044941F82030002ADFDAC2
:10166000E7E700BF00ED00E000E100E014ED00E07E
:1016700010B590F95D4090F95C0002F0E9FD20465C
:10168000BDE8104002F0E4BD90F85030011D032B7E
:101690000ED8DFE803F00207090B0648064A42F8B5
:1016A000231070470548F9E70548F7E70548F5E7CF
:1016B0000020F3E7AD150008480D00209115000843
:1016C0007515000859150008204A416D1268036815
:1016D000B2FBF1F1142243604A439969090401D530
:1016E000013AFAD11A4A934209D11A4B1A6A42F4C2
:1016F00000121A621A6A22F400121A627047164A1D
:10170000934207D002F5806293420CD0134A934271
:1017100012D070470F4B1A6A42F480021A621A6A9A
:1017200022F48002E9E70B4B1A6A42F400021A62C3
:101730001A6A22F40002E0E7064B1A6A42F080724D
:101740001A621A6A22F08072D7E700BFD80300201D
:101750000054004000380240005800400060004043
:1017600043681A6822F001021A601A68D207FCD492
:101770001A6842F001021A60704700002D4B426D5A
:101780001B68B3FBF2F2142370B5534304460D46B5
:10179000061D42689169090401D5013BFAD1264B27
:1017A0009D4215D0254B9D4214D0254A254B95428C
:1017B00018BF0023244AA360236893420CD102F58A
:1017C000F232D2F8903023F44033C2F890300DE07A
:1017D0001E4BEFE71E4BEDE71E4A934217D002F572
:1017E0008062934219D01C4A93421CD0002130469B
:1017F00003F03DFB002301223046E360A361C4E90E
:101800000423C4E9083302F035FE656570BD134A50
:10181000D2F8903023F44023D7E7104AD2F8903022
:1018200023F44013D1E70D4AD2F8903023F440035B
:10183000CBE700BFD8030020801A060040420F000B
:10184000A08601009869911000540040541BB1001B
:101850001B09900000580040006000400038024022
:10186000F0B50E461546044685B04549304600F0B1
:1018700053FF07464349284600F04EFFA4F858603E
:101880000146A4F85A50384600F024FF3E4B206031
:10189000984211D1002384F850303C4B1A6C42F42A
:1018A00000121A641B6C03F400130093009B42F2B5
:1018B0001F03A4F85C3009E0354B98422FD003F5A4
:1018C000806398423BD0334B984248D02C493046F5
:1018D00000F0DEFE2B49284600F0DAFE04213046F7
:1018E00001F05CFD0421284601F058FD636D0BB941
:1018F000294B63652046FFF7E7FE616DFFF73EFF6A
:1019000000234FF0007284F86D3084F86C3084F856
:101910006E30226684F86430A36605B0F0BD012302
:1019200084F85030194B1A6C42F480021A641B6C14
:1019300003F480030193019B42F22123B9E70223C0
:1019400084F85030114B1A6C42F400021A641B6C7C
:1019500003F400030293029B44F64813A9E7032310
:1019600084F85030094B1A6C42F080721A641B6C78
:1019700003F080730393039B46F25F0399E700BF74
:10198000D42C0108742C0108005400400038024097
:101990000058004000600040A086010070B5044679
:1019A0000D4616460021982210F0F6FB32462946D5
:1019B0002046BDE87040FFF753BF10B590F86C307B
:1019C00004463BB1B0F95A20B0F95810FFF748FF70
:1019D000002028E043685A6852051BD54FF4804226
:1019E0005A6041F20102996989061DD520222046DC
:1019F000DA615A6822F47F7222F003025A60FFF71C
:101A0000AFFE236EB3F1007FE2D0B4F95A20B4F9EF
:101A10005810DBE741F2010299698807DED4013AE8
:101A2000FAD16FF0010010BD013ADCD1F9E710B531
:101A30000446FFF7C2FFB4F95A202046B4F9581003
:101A4000BDE81040FFF70CBFF0B51D46036E85B032
:101A5000044633F000730E4600F1040703921CD1D4
:101A60000A99002918BF4FF000730366002380F81D
:101A70006430FFF709FE01462046FFF7A5FD236EFF
:101A8000039AB1B200933846ABB202F083FD38B18D
:101A90006FF00105284605B0F0BD134800F018FCB2
:101AA000124B1E68636DB6FBF3F605FB06631E263C
:101AB0005E4394F8643013F01E0F01D1013E0FD144
:101AC0002046FFF7D5FD1EB194F86430082BE1D015
:101AD000B4F95A202046B4F95810FFF7C1FED7E7F1
:101AE000012001F09FFBE4E7F3330108D803002055
:101AF000F0B51D46036E85B0044633F000730E4604
:101B000000F1040703921CD10A99002918BF4FF075
:101B100000730366002380F86430FFF7B5FD0146CB
:101B20002046FFF751FD236E039AB1B20093384669
:101B3000ABB202F0F1FC38B16FF00105284605B0F8
:101B4000F0BD134800F0C4FB124B1E68636DB6FB7A
:101B5000F3F605FB06631E265E4394F8643013F02B
:101B60001E0F01D1013E0FD12046FFF781FD1EB1AE
:101B700094F86430082BE1D0B4F95A202046B4F927
:101B80005810FFF76DFED7E7012001F04BFBE4E7AB
:101B9000F3330108D8030020836F07B50146ABB1CA
:101BA000D0F8883093B190F870209BB2002A14BF0F
:101BB0004FF000720022C2650092D0F88420B0F885
:101BC0006C1002F0E7FC03B05DF804FB082381F819
:101BD0006030F8E7082380F86030704738B5051D9D
:101BE0000446C260284602F045FC2046FFF74CFD43
:101BF00001462046FFF7E8FC2846BDE8384002F0E1
:101C000007BD37B50446043894F8685005B1A56897
:101C1000B4F95620B4F954100190FFF721FE019851
:101C20003DB101232A4684F8683000231946FFF7A6
:101C3000D5FF022384F8603003B030BD012902D102
:101C400080F86910704711B9012380F86A30704735
:101C5000002380F869307047002380F86A307047AD
:101C600002F0D6BC10B5044650F80429136823F0DE
:101C7000FE031360FFF7FCFC022384F8603010BD04
:101C8000004870476C340108024BD869DA69824217
:101C9000FBD170470024004008B500F06DFA084BF6
:101CA00001221A700022074B1A704FF00052064BA7
:101CB000C3F808219A60BDE8084000F067BA00BF89
:101CC000610D0020680D002000E100E010B500F07B
:101CD00053FA134B1A7842B9124A1268116809076D
:101CE000FCD50821516001221A700F4C23781BB1DA
:101CF00000F05AFD0023237000230C4A13700C4A95
:101D000013704FF000520B4BC3F88820BFF34F8F76
:101D1000BFF36F8FBDE81040C3F8882100F036BADA
:101D2000620D0020D02600206A0D0020680D0020E2
:101D3000610D002000E100E03F4B70B51C68AEB0C3
:101D40001CB1FFF7C3FF2EB070BD012580222146D4
:101D50000EA81D6010F020FA2C22214602A810F0D7
:101D60001BFA042303954FF4802501934FF0407331
:101D700001A807940D952A9303F042F910B12F485A
:101D800000F0A6FA0DA803F0DBFB08B12C48F7E73A
:101D90002C4B4FF6FF762C4C1A6C42F400721A64EE
:101DA0001A6C02F400720092009A1A6A42F40072ED
:101DB0001A621A6A22F400721A62A3F5053384F8D3
:101DC0002E002360C4E90100C4E90700C4E909004A
:101DD0002046C4E9056503F071F8054608B11B48C3
:101DE000CEE71B4B1B4A9B68C3F8B421BFF34F8F50
:101DF000194B314620461A6842F400021A609A686C
:101E000042F400029A6023689A6842F001029A60E4
:101E10009A6842F008029A6003F09CF8236808224E
:101E20005A605D611A681207FCD508225A600122C7
:101E30000A4B1A7087E700BF5C0D002019340108B7
:101E40003234010800380240D02600205334010803
:101E500000ED00E0511F0008003C0140620D002031
:101E600008B500F089F9064B01221B685A604FF053
:101E70000052044BC3F88821BDE8084000F086B941
:101E8000D026002000E100E070B5044600F074F9AF
:101E9000FFF7FAFE264B05461C60264A4FF000511C
:101EA0009160254E18463178F1B9611F4FF6F572F1
:101EB000914222490FD94FF6FA7295420BD9063456
:101EC0000122A4B20A701C601D4B01221A70BDE8E9
:101ED000704000F05BB900220A700368AB42194BF6
:101EE00028BF01221A70EFE7FFF7BAFF00235A1943
:101EF000013392B2A24204BF0534A4B2052BF6D13D
:101F0000114BAC421B6811D24FF6FA7295420DD8B4
:101F10004FF0FF325A6100230C4C33702378002BB2
:101F2000D5D100F02DFC01232370D0E75C61F2E7EE
:101F3000640D002000E100E0620D0020690D00202A
:101F4000680D0020600D0020D02600206A0D0020C2
:101F500070B500F011F92E4B2E4C1A7832B10022D8
:101F60001A70012223685A6000F030FB23681A6857
:101F7000D50706D59A68D00703D501225A6000F02C
:101F800025FB23681A68110724D59A68120721D502
:101F90000822214C5A600122204B1A7023781BB171
:101FA00000F002FC002323701D4C237893B11D4DDB
:101FB0001D492B7803F0FF06D3B1FFF765FE06300D
:101FC0000B6880B298420DD3FFF766FE00232B709A
:101FD00000232370154B4FF40002BDE870405A6196
:101FE00000F0D4B80868063880B2FFF74DFFEDE77F
:101FF0000F4D2B7843B1FFF747FE0B68984203D390
:10200000FFF74AFE2E70E3E70868FFF73DFFDFE7C2
:10201000610D0020D02600206A0D0020620D0020F6
:10202000680D0020690D0020640D0020003C014077
:10203000600D0020FFF74ABE03460122D3E84F0F90
:10204000C3E8412FC0B20029F8D17047D0E85F3F04
:102050005B18C0E8523F002AF8D198B27047D0E828
:102060005F3F5B1AC0E8523F002AF8D198B2704730
:10207000D0E84F3FC0E8421FD8B2704700B589B0E2
:10208000144E154D00F078F8102101A800F078FAF0
:102090000424039B3046019A1A6001F0C3F8019BA7
:1020A000049A30461B04136001F0BCF8013CF0D1E7
:1020B0000424039B2846019A1A6001F0B3F8019B9F
:1020C000049A28461B04136001F0ACF8013CF0D1DF
:1020D000DEE700BFF0490200801A060007B501469E
:1020E00000220190022000F07FFC00F045F80199E9
:1020F000084610F06BF901990246022000F074FCCA
:1021000003B05DF804EB00F041B8000000B5A3B0E7
:1021100002460B46842101A80FF0D0FE832806D981
:10212000074B1A681B79CDF883208DF8873000287B
:1021300002DD01A8FFF7D2FF23B05DF804FB00BF6A
:10214000743401080FB407B504A951F8040B0191C8
:10215000FFF7DCFF03B05DF804EB04B07047EFF36A
:102160001080C04300F001007047EFF30580003895
:1021700018BF01207047000008B500F013F8024AAC
:1021800013680133136008BD6C0D0020044A136806
:1021900023B1013B13600BB900F016B8704700BFC4
:1021A0006C0D0020EFF3108372B6054A117831B937
:1021B000DB43044903F001030B70012313707047E4
:1021C000710D0020700D0020034B00221A70034B8C
:1021D0001B7803B162B67047710D0020700D0020AE
:1021E00008B50B48FFF728FF28B1FFF7C5FFBFF37D
:1021F0004F8F20BFFDE7FFF7B8FF08B1FFF73EFFA5
:10220000FFF7ADFF0028F9D001200EF0FDFF00BF61
:10221000C00D002070B51D4C90B00D46164634EA36
:10222000200428BF04463422002103A80FF0B4FF85
:102230000295CDE90046FFF79FFF154A1368013369
:10224000012B13600BD16D46124C0FCD0FC40FCD77
:102250000FC40FCD0FC495E80F0084E80F006C4643
:102260000D4D0FCC0FC50FCC0FC50FCC0FC594E88B
:102270000F0085E80F00094B1B6813B1A5F1300072
:102280009847FFF783FF002010B070BD0101FF8069
:10229000740D0020800D0020C40D0020780D00205A
:1022A00030B5034600F13C04084D002013F8012B23
:1022B00080EA0260082200284FEA4000B8BF684068
:1022C000013AF8D1A342F1D130BD00BFB71DC1041E
:1022D0000FB407B501210648CDF804E0FFF7C8FEAA
:1022E000019A014610B90348FFF794FFFFF778FF02
:1022F0007C0D00200001FF80044601211D48764628
:10230000154608B5FFF7B4FE20B9324629462046E7
:10231000FFF780FF1848FFF7C3FF184B184CD3F89E
:10232000BC20154D824220460ABFD3F8B4300123A9
:10233000013363630023A363FFF7B2FFE063FFF79A
:102340001BFF0FCC0FC50FCC0FC50FCC0FC594E8EA
:102350000F0085E80F00FFF719FFBFF34F8F094902
:10236000094BCA6802F4E0621343CB60BFF34F8F9E
:1023700000BFFDE77C0D002048020020C8010020BE
:10238000C40D002000ED00E00400FA05F0B52C4E6D
:1023900085B000242B4F35462146013456F8042BD6
:1023A0003846FFF7CFFE0D2CF6D1AB6C264C0293CE
:1023B0006B6C264801932B6C0093696BD5E90E2357
:1023C000FFF7C0FE21682248FFF7BCFEE16AA26A5F
:1023D000A36AA06AD2B2266BC3F30723E76B000C93
:1023E000CDE9016700901B48FFF7ACFEA36A1E060B
:1023F00003D5616B1848FFF7A5FEA36A180403D53F
:10240000A16B1648FFF79EFEEB6C190712D5144816
:10241000FFF798FE2B6DDA070FD51248FFF792FEF3
:10242000EB6C5B074CBF1048104805B0BDE8F040AE
:10243000FFF788BE0E48FFF785FE0E48EEE700BFA7
:10244000C80100207934010800ED00E0873401085C
:10245000D6340108E4340108333501084135010858
:102460004F3501085E3501088E3501089A3501089F
:102470007E3501086B35010813B504461548FFF792
:1024800061FE302C17D0402C1AD0202C1DD1124CBC
:102490001248FFF757FE1248FFF754FEFFF776FF8A
:1024A0001048FFF74FFE00230F4A204600930F49C4
:1024B000D26BFFF721FF0E480E4CFFF743FEEAE711
:1024C0000D480E4CFFF73EFEE5E70D480D4CFFF7BB
:1024D00039FEE0E7A63501083E01FF80CF3501084F
:1024E000FC35010807360108C8010020263601081E
:1024F000DE3501083F01FF80E73501084001FF801C
:10250000F23501083D01FF8070B50E4604461546C0
:10251000FEF7D6FF013609D020460021FEF7F4FF72
:1025200029462046BDE87040FEF7EABF70BD38B5C9
:1025300004460D4603685AB18268204601211360A3
:10254000FEF7E2FF29462046BDE83840FEF7D8BF37
:10255000C2681B04F1E70022FFF7D6BF37B50D466E
:1025600004460192FEF7ACFF013507D0019A002125
:10257000204603B0BDE83040FFF7D9BF03B030BDFF
:102580000022FFF7EBBFF8B5069F04460E461D4636
:1025900062B91A46FFF7B8FF013603D0236817B1B6
:1025A000A2681360F8BDE2681B04FAE7FEF788FF33
:1025B0000136F7D03A4629462046BDE8F840FFF7F5
:1025C000B6BF0000004870473C360108024B1B684C
:1025D0000BB1024818477047CC0200203C36010876
:1025E000294B5A69910370B515D45A6912F4003217
:1025F00011D1BFF34F8FBFF36F8FC3F85022BFF3DA
:102600004F8FBFF36F8F5A6942F400325A61BFF3A4
:102610004F8FBFF36F8F1C4B5A69D20327D45A696F
:1026200012F4803223D1C3F88420BFF34F8FD3F844
:10263000802043F6E074C2F3C900C2F34E32520167
:1026400002EA0406014646EA81750139C3F8605280
:10265000F9D2203A12F1200FF2D1BFF34F8F5A690D
:1026600042F480325A61BFF34F8FBFF36F8F03F094
:1026700065FF01F0CFFB03F053FF03F05FFF034B57
:1026800001221A6070BD00BF00ED00E0480E00207E
:102690001FB5431C10D105B05DF804FB83420AD17D
:1026A0008968039000F0FAFD0021039805B05DF8F9
:1026B00004EB00F073BE0C31B1F900305A1CEDD1BF
:1026C00000230246024819460093FFF715FE00BF9B
:1026D00030010180884207B502460AD0431C08D069
:1026E000013105D00023054819460093FFF704FE89
:1026F0000146084603B05DF804FB00BF30010180CD
:10270000B1F900305A1C01D118467047834201D1FB
:10271000486870470C31F3E7421C13B504460AD0F1
:10272000FFF7EEFF431C06D100232246034819465B
:102730000093FFF7E1FD02B010BD00BF3001018042
:10274000B1F900305A1C01D118467047834201D1BB
:10275000886870470C31F3E7421C13B504460AD071
:10276000FFF7EEFF431C06D100232246034819461B
:102770000093FFF7C1FD02B010BD00BF3001018022
:1027800013B5074C01212046FFF760FC034628B92A
:102790000146009022880348FFF7AEFD02B010BD4D
:1027A0004C0E00202301048013B5094C0121204662
:1027B000FFF755FC4FF6FF73984206D1002322889D
:1027C000044819460093FFF797FD02B010BD00BF03
:1027D0004C0E0020240104806FF01C0070476FF045
:1027E00015007047012070470020704770470000B7
:1027F000F8B515460C468F18054EBC4205D014F8A6
:10280000011B304601F0D6FAF7E72846F8BD00BFB5
:102810000027002038B511F001048DB205D008481A
:1028200001F02EF8041E18BF0124EB0605D504485C
:1028300001F036F808B144F01004204638BD00BF5E
:102840000027002010B504460EF0F8FC204610BD0D
:1028500010B50C462AB1044801F09AFA2070012004
:1028600010BD1046FCE700BF0027002038B51D460C
:10287000074B04460360074B1B6833B9064801F059
:1028800083F82946044801F047F8204638BD00BFC8
:1028900070360108E00E002000270020002070475D
:1028A00000207047012008B50EF0AEFC074A084929
:1028B00013681844884283BF064B0C224FF0FF3048
:1028C00010608CBF1A601846704700BFD00300200C
:1028D00000FC0420C82600200120704700210FF0D2
:1028E000C9B97047704708B5FFF7FBFF08BD08B5C9
:1028F000FFF7F8FF08BD037803F00303012B09D0AD
:10290000037803F00302012A04D043F002030370AA
:102910000120704700207047037823F0030343F041
:1029200001030370704700003F2870B504462FDC98
:10293000184D55F820305A1C13D1022811DCFFF72E
:10294000AFFF034658B92046FFF7A8FF034630B94A
:10295000114E3378BFF35B8FDB0704D50F4B45F87F
:102960002430184670BD3046FFF7C5FF0028F5D06B
:102970004FF41653392238210848FFF777FF3046C5
:10298000FFF7CAFF064A07490448FFF7A5FFE5E736
:102990000023E6E7D0020020500E00205C0E00204D
:1029A000C8020020ED27000838B505460024FFF7CF
:1029B000BBFF0B4B43F8254030B90FF06DFC0923EA
:1029C00003604FF0FF3038BD03685B699847051E10
:1029D00004DA6D420FF060FC0560F2E72046F2E792
:1029E000D0020020FFF7E0BF13B5CDE90021FFF7CB
:1029F0009BFFDDE9002140B90FF04EFC0923036085
:102A00004FF0FF34204602B010BD0368DB689847E2
:102A1000041EF7DA64420FF03FFC0460F0E708B5EB
:102A2000131E07DA0FF038FC162303604FF0FF3354
:102A3000184608BDFCD0FFF7D7FF40EAE073F7E780
:102A400013B5CDE90021FFF76FFFDDE9002140B9A3
:102A50000FF022FC092303604FF0FF34204602B040
:102A600010BD03689B689847041EF7DA64420FF0B4
:102A700013FC0460F0E7002A08B503DBBDE808405A
:102A8000FFF7DEBF0FF008FC162303604FF0FF30A6
:102A900008BD10B5FFF748FF044628B90FF0FCFB4E
:102AA00009230360204610BD0368DB699847041EB4
:102AB000F8DA64420FF0F0FB04600024F2E74023F0
:102AC00037B50546CDF8010068468DF800300FF0A7
:102AD0003FF8044630B12846FFF7DBFF10B120462F
:102AE000FFF7FCFE204603B030BDFFF7D2BF13B5A1
:102AF000CDE90021FFF718FFDDE9002140B90FF013
:102B0000CBFB092303604FF0FF34204602B010BD19
:102B100003681B699847041EF7DA64420FF0BCFB98
:102B20000460F0E7FFF7E3BF10B5FFF7FDFE30B933
:102B30000FF0B2FB092303604FF0FF3010BD0368B4
:102B40009B699847041E04DA64420FF0A5FB0460F9
:102B5000F2E70020F2E700000A4D044608B52B68B2
:102B600098680EF0A7FE2B68D8680EF0A3FE01202F
:102B7000FFF7DAFF0220FFF7D7FF0CB1FFF77EFA6D
:102B8000FEE700BFE40C002038B50D46FFF7CCFE91
:102B9000044630B90FF080FB092303604FF0FF308B
:102BA00038BD0368DB6998470028204614BF4FF4FE
:102BB00000534FF400436B6023689B6A9847286179
:102BC0000020EDE7FFF7E0BF1FB503900EF02EFBEE
:102BD000039A034620B9014600900348FFF78CFB97
:102BE00005B05DF804FB00BF1F010180FFF7ECBFDB
:102BF0000EF024BB0EF022BB10B504460848FDF7CA
:102C000083FB084A4023002152F8040BA04208BF6E
:102C100042F8041C013BF7D10148FDF775FB10BDDC
:102C2000540E0020D002002010B50F480324FDF7F9
:102C30006BFB0E4B53F824206AB10134402CF9D1C0
:102C40000FF02AFB18234FF0FF3403600648FDF70E
:102C50005BFB204610BD4FF0FF32034843F82420B1
:102C6000FDF752FBF5E700BF540E0020D002002014
:102C700010B50446FFF7D8FF0028A4BF014B43F866
:102C8000204010BDD002002073B506460191FFF729
:102C9000EFFF051E13DB0199FFF711FF044630B962
:102CA000084B53F82520964204D143F825002046CE
:102CB00002B070BD0FF0F0FA09230360F7E70024BB
:102CC000F5E700BFD00200200EB42DE9F04187B037
:102CD0000190FFF7A9FF041E13DB0023019904A84C
:102CE0001E4E0393FDF77CFC04A8FDF7BFFC0546D0
:102CF00068B90FF0D1FA1323036046F824504FF05F
:102D0000FF34204607B0BDE8F04103B0704704A887
:102D1000FDF79AFC074604A837B1FDF79EFC039027
:102D2000039B46F82430ECE7FDF785FC05460028B8
:102D3000DFD0036804A8D3F80880FDF771FC0D9B71
:102D4000024603A92846C04705460028E8D06D4240
:102D50000FF0A2FA056046F82470D0E7D0020020F8
:102D600070B50E46154905460FF0C4FA044618B969
:102D7000FFF7DAFD204670BD114928460FF0BAFA78
:102D800020B901200124FFF7CFFDF3E70D492846C4
:102D90000FF0B0FA20B902200224FFF7C5FDE9E7E1
:102DA0002B78402B02D1D5F80140E3E726F400410F
:102DB0002846BDE87040FFF787BF00BFCC3601084A
:102DC000D3360108C436010870470000084B094992
:102DD00098684FF00053C21802F16042126843F83D
:102DE000042B8B42F7D1024B4FF000529A60704790
:102DF00000ED00E0C801002008B5FFF7E7FFFFF78E
:102E0000EFFB03F043FCFFF7DFFF08BD2DE9F74FB1
:102E10004468064694F83A10002955D1016849687B
:102E2000884771680546096A81424DD0206A4FF093
:102E3000000EE168281AA6682562014037488642DC
:102E40008C4639D094F83BB00027A1FB0001D4E9AF
:102E50000A5ABBF1000F46D0CBF1200820FA0BFC38
:102E6000ABF1200E2D1801FA08F8ABF1200921FA78
:102E70000EFE4AEB010A4CEA080CCBF120084CEAA2
:102E80000E0C21FA0BFE0CFA09F90EFA0BF12CFAD2
:102E900008F80CFA0BF041EA09012B1A41EA080183
:102EA00000936AEB01030193DDE90023BB4208BFF5
:102EB000B2420CD2C4E90A23D4E90C0110EB0C0095
:102EC00041EB0E01C4E90C0103B0BDE8F08F1CF129
:102ED000010C009B4EF1000E9A1B019B63EB070354
:102EE000C4E90A23E8E732463B460EF00FF812EB3E
:102EF000050884468E4643EB0A09B94508BFB0452C
:102F000002D2C4E90A89D7E710F1010C41F1000EA1
:102F1000B8EB060269EB0703E2E700BF40420F008F
:102F2000824206D98A420BD9884294BF00200120F0
:102F30007047884206D98A428CBF00200120704722
:102F400001207047002070472DE9F74FD0F804802A
:102F5000074698F83A30002B7ED198F83930002B8C
:102F60007AD1FFF753FF7E683A6873680192002BAD
:102F700064D0D6E90C01D3E90023994208BF9042FE
:102F800005D3019B5B6903B0BDE8F04F1847141AE5
:102F9000D6F8109063EB0105D6E90623AB4208BFD3
:102FA000A24206D3B2682E4B9A4219D1A14528BF3E
:102FB000A146326A019B9144F2681B6909EA020248
:102FC0001046019298473B685B689847019A014612
:102FD000D8F82000FFF7A4FF00283DD03B68D1E7D8
:102FE00096F83B30EBB1A3F1200CC3F1200205FAB7
:102FF00003F104FA03F004FA0CFC24FA02F2194C6F
:10300000002341EA0C0100194FF0000441EA0201DB
:10301000134A44EB01010DF079FF814528BF814639
:10302000C7E7A2FB04AB0F480021002302FB05BB4E
:103030001AEB00000A4A4BEB0101ECE7D8F810301C
:10304000D8F82000D8F80C201844019B10401B69C8
:1030500003B0BDE8F04F184703B0BDE8F08F00BFE4
:1030600040420F003F420F00436893F838202DE99B
:10307000F04F054685B0002A62D193F83A30002B14
:103080005ED103681B6898472B68DB699847036823
:103090002BB91A4619462C480093FFF72DF91F212A
:1030A000012202FA01F45FFA81FAA34202D0013947
:1030B000F7D18A464668321F1C2A05D900232348C7
:1030C0001A4619460093E8E71C46072700232049C3
:1030D00014F1FF3807FA02F7224643F1FF39C1FB2A
:1030E0000789404649464FF000080DF00FFF6B6816
:1030F0002A688946834603935268C3E9008890474B
:103100000122039B002102FA06F6186200206B6878
:10311000013EC3E90A01C3E90C019C60284683F81B
:103120003BA01A8783F83A80C3E90367C3E906B96D
:10313000FFF76CFE284605B0BDE8F04FFFF704BF6F
:1031400005B0BDE8F08F00BF0E01048005010480CA
:1031500040420F0070B50446FFF70EF82368DB68A5
:103160009847636893F83A201AB1BDE87040FFF7BA
:103170000DB8012283F8392063685B68A3B120464B
:10318000FFF744FE65686E68D5E90C01D6E90023B7
:10319000994208BF904207D3F3686B602B68002BFD
:1031A000EAD0B0689847E7E763680022204683F8D2
:1031B0003920FFF7C9FED8E738B50446FFF754FFBA
:1031C000FEF7DAFF2046FFF721FE6368D3E90C45DE
:1031D000FEF7DCFF2046294638BD08B5FFF7ECFFB7
:1031E00008BD704700487047DC360108024B1B6879
:1031F0000BB1024818477047D4030020DC360108A1
:1032000070B50446FFF7DEF90646FFF7E6FF4FF418
:103210007A7305465C433046FFF7DFFF431BA3424A
:10322000F9D370BD034B596A5A6A521A8242FBD3D2
:10323000704700BF000C004091FAA1F3B3FA83F38A
:1032400091FAA1F130B55B000325B1FA81F18468F0
:1032500005FA03F3490024EA03038A401343836019
:1032600030BD91FAA1F3B3FA83F391FAA1F130B52D
:103270005B000325B1FA81F1C46805FA03F3490044
:1032800024EA03038A401343C36030BD012A02D0FD
:10329000022A18BF0022FFF7E4BF00002DE9F8431F
:1032A00000F00F02C1F383183B4B1FFA80F9C0F303
:1032B000031001F0070653F822700D46FEF74EF892
:1032C000B8F10F0F394604460CBF03224246FFF700
:1032D000B3FF022E2BD0032E5BD0711E4B424B410D
:1032E00097FAA7F2B2FA82F203202168013E520057
:1032F000012E00FA02F221EA020197FAA7F2B2FACD
:1033000082F24FEA420203FA02F343EA0103236026
:1033100005D863682A074CBF3B43BB436360C5F3D2
:10332000011239462046BDE8F843FFF7AFBF19F058
:10333000080FC5F3832217D03B0A4FF00F0C93FA06
:10334000A3F1B1FA81F1406A93FAA3F38900B3FAC9
:1033500083F30CFA01F19B0020EA010102FA03F366
:103360000B4363620223BBE797FAA7F1B1FA81F13D
:10337000036A0F20890000FA01F123EA010197FA9C
:10338000A7F3B3FA83F39B0002FA03F30B43236220
:10339000E8E73346A4E700BF0837010800F00F0252
:1033A000C0F3031038B51E4B0C4653F82250FDF7FE
:1033B000D5FF95FAA5F2B2FA82F301685A00032309
:1033C000934095FAA5F2B2FA82F20B405200D34034
:1033D000013B012B1AD8E31E022B436809D82B436B
:1033E000032C43601AD101222946BDE83840FFF77B
:1033F0004DBF23EA0503012C4360F4D0022C0BD00F
:1034000029460022BDE83840FFF72BBF04F0FD033A
:10341000012BE8D0052CF1D10222E5E7052CEEE7DF
:10342000083701084B7D2BB1082807D8044B33F827
:10343000100070470C2801D8024BF8E700207047B5
:1034400074370108863701084FF47071B0F9040031
:10345000FFF724BFB5EEC00A324BF0B5F1EE10FA1B
:10346000076889B006461F603ED4F7EE007AB4EED6
:10347000670AF1EE10FA37FE800AD6ED037AF8EE0D
:10348000677A67EE807A17EE900A0DF09FF90022B6
:10349000254B0DF03DF80DF0C9FC60230446327D4C
:1034A000306101930023B068039304930793B4FB46
:1034B000F0F4CDE90533531E0294032B1FD86FF0AF
:1034C0000305314605EB82052846FFF7ABFF3B6A53
:1034D00030EA03030BD02A4601A9124802F0A9FCE6
:1034E00038B11248FEF7F4FE9FED110AC5E745B961
:1034F0007C63737D29460B488BB102F098FC09B0C0
:10350000F0BD042D01D1BC63F3E7082D01D1FC63AC
:10351000EFE70C2D01D13C64EBE7FC65E9E702F035
:1035200015FCECE7A00E00200000E03F4837010842
:1035300000000000C36893B190ED047A07EE903A62
:10354000B8EE477AF8EE677A87EE270AF7EE007A48
:10355000B4EE670AF1EE10FA37FE800A70479FED6D
:10356000010A7047000000002DE9F04102680023C5
:10357000474C0E46054622602DED028B86B0009327
:10358000FFF7D8FF41F21113116AB0EE408A1942D9
:1035900008D1116A40F24443194203D1136823F061
:1035A0000103136001A8694601F0ACFF28680022FE
:1035B000384BD1B2013253F831708742F9D110B98A
:1035C0003548FEF785FE03EBC1031B79002B3CD188
:1035D00001F078FFDDF810C0009001230099AB6086
:1035E00001FA03F02D4BB0FBF3F0B1FBF3F1BCF1AA
:1035F000000F30D14A1E771E4FF000084FF6FE7EB6
:1036000062603B46E760B3F5803F26D2B2F5803F6B
:1036100023D2B8F1000F01D06260E36000231C48A0
:103620002361A36002F098FA48BBB0EE480A28462E
:10363000EE60FFF70FFF2268136843F00103136089
:1036400006B0BDEC028BBDE8F08101F04BFFDDF868
:1036500014C00090C1E7421ECDE7AB685B00AB60D1
:10366000BCF1000F0DD101FB03F2013AB7FBF3F3FC
:10367000734509D8B2F5803F06D36260E36008481D
:103680009FE700FB03F2F0E74FF00108BBE700BF44
:10369000A00E0020A03701085F37010840420F004C
:1036A0004837010830B50D4604468DB061492846BB
:1036B000FFF732F85F4920602846FFF74DF8C0F366
:1036C00084335D4AC0F3C04023752368607593421C
:1036D00025D102F59C32516C41F001015164526CCC
:1036E00002F001020092009A544A934250D1544A87
:1036F000516C41F002015164526C02F002020592D9
:10370000059A504A934250D14D4B1A6C42F08002B8
:103710001A641B6C03F080030A930A9B78E0B3F1F0
:10372000804F20D0484A934228D0484A93424AD0FA
:10373000474A9342D8D1424A116C41F008011164C2
:10374000126C02F008020492049A424A9342D8D1C1
:103750003B4B1A6C42F040021A641B6C03F04003AE
:103760000993099B54E0364A116C41F00101116440
:10377000126C02F001020192019AB5E7304A116C15
:1037800041F002011164126C02F002020292029AEC
:10379000314A934221D12A4A516C41F4803151641B
:1037A000526C02F480320692069A2C4A93422FD130
:1037B000234B1A6C42F480721A641B6C03F48073FE
:1037C0000B930B9B24E01E4A116C41F00401116421
:1037D000126C02F004020392039A214A93420DD024
:1037E000204A9342B1D1164B5A6C42F480225A645B
:1037F0005B6C03F480230893089B09E0104B5A6C20
:1038000042F400325A645B6C03F400330793079B65
:1038100028460849FEF73CFF002344F62061204675
:10382000A580C4E903330123A3600DB0BDE8304097
:10383000FFF79ABE342D010800000140000401404A
:1038400000380240001C0040000400400008004016
:10385000000C0040001800400040014000200040E3
:103860000044014000480140DFED047A20EE270AC1
:10387000FDEEC07A17EE901AFFF776BE0024744969
:10388000426870235343054AD358DA69120701D5B9
:1038900008221A62D869C0F3401070474C270020F4
:1038A000426870235343034AD358D869C0F3C01009
:1038B000704700BF4C27002003464168702210B4B7
:1038C0004A431C681349545050189A684260DA6899
:1038D00082601A69C2605A6902611A6A82610022B2
:1038E000A0F85220C261A0F85020A0F85A20A0F8F9
:1038F0005820B3F91A20013205D108235DF8044B92
:10390000436102F026BDB3F9183001330CBF042324
:103910000C23F3E74C2700208160FFF7CDBF0000A8
:10392000184B98421FD0A3F54C4398421DD003F585
:10393000806398421BD003F58063984219D003F549
:103940008063984217D003F54443984215D0A3F5FD
:103950001C43984213D003F58063984214BF4FF084
:10396000FF30072070470020704701207047022079
:1039700070470320704704207047052070470620D9
:10398000704700BF00100140F0B50E46154689B0E3
:10399000044660493046FEF7BFFE07465E492846AA
:1039A000FEF7BAFE01463846FEF794FE382E206038
:1039B0000AD0392D08D057493820FEF7ADFEB8425D
:1039C00020D15648FEF784FC01272068544B9842CA
:1039D0001AD103F594335A6C42F010025A645B6CAE
:1039E00003F010030093009B4E4B984269D14E4B5D
:1039F0005A6C42F020025A645B6C03F0200305937A
:103A0000059B18E00027E0E7484B984244D003F5B7
:103A1000806398424BD0464B984260D0454B9842C9
:103A2000E2D1414B1A6C42F480121A641B6C03F40D
:103A300080130493049BFFF773FF364960603046A0
:103A4000FEF726FE28463449FEF722FE701C03D0FE
:103A500001213046FFF7A2FC691C03D00121284652
:103A6000FFF79CFC00234FF4165220462683236266
:103A70006583C4E90223C4E90433FFF71DFF002F67
:103A800045D02D4B012221462C481A604C2209B00A
:103A9000BDE8F0400EF08CBC234B1A6C42F40032AF
:103AA0001A641B6C03F400330193019B9CE71E4BCB
:103AB0001A6C42F480221A641B6C03F48023029374
:103AC000029B1F4B984214D1174B1A6C42F0804254
:103AD0001A641B6C03F080430693069BABE7124B02
:103AE0001A6C42F400221A641B6C03F40023039343
:103AF000039B144B98429ED10B4B1A6C42F0004230
:103B00001A641B6C03F000430793079B93E709B00B
:103B1000F0BD00BF183101087030010808380108F5
:103B200000100140001401400038024000440040F1
:103B3000004C004000500040E00E00200027002014
:103B400000780040007C004070B5FFF7E9FE041EDD
:103B500032DB1A4E56F8240000282DD07023184D61
:103B60006343EB58DA69110609D5DA69120606D5FE
:103B70001B681B0603D5134B01211B689847702354
:103B80006343EB58DA6991060BD5DA69920608D5DA
:103B90001B68980605D50B4B002156F824001B68BE
:103BA0009847702044432B59DA69110704D5DA6924
:103BB000120701D508221A6270BD00BFE80E00206E
:103BC0004C270020E40E00200148FFF7BDBF00BFD6
:103BD000007C00400148FFF7B7BF00BF00780040FD
:103BE0000148FFF7B1BF00BF001401400148FFF7D3
:103BF000ABBF00BF005000400148FFF7A5BF00BFAA
:103C0000004C00400148FFF79FBF00BF0048004044
:103C10000148FFF799BF00BF004400400148FFF78B
:103C200093BF00BF00100140002808DB01234209B8
:103C300000F01F0003FA00F0014B43F82200704728
:103C400000E100E000280DDB4309012200F01F0025
:103C5000203302FA00F0044A42F82300BFF34F8FEA
:103C6000BFF36F8F704700BF00E100E0034B1960A6
:103C70004168034B43F82120704700BFE40E002049
:103C8000E80E002030B4D0E900353448834249D0F2
:103C90002BD8A0F5305083423ED020D8A0F500604C
:103CA000834233D000F58060834232D0002318462F
:103CB00070246C432A4D2C59002A39D022680029DF
:103CC00033D142F02002226000F11001254A9268AF
:103CD00042F82130BFF34F8F30BCFFF7A5BF224819
:103CE0008342E3D1214B3520E2E7214883420AD0C9
:103CF00000F58060834212D0A0F518408342D5D1F0
:103D00001C4B5320D4E71C4B2520D1E71B4B26200E
:103D1000CEE71B4B2720CBE71A4B3420C8E71A4BC2
:103D20004720C5E7194B5220C2E742F08002CAE79C
:103D3000236849B923F020032360236813F0800F20
:103D400009D130BCFFF77EBF23F0800323602368D6
:103D500013F0200FF4E730BC704700BF007800403C
:103D60004C27002000ED00E000500040ED3B000833
:103D700000100140C93B00081D3C0008113C000830
:103D8000053C0008F93B0008E13B0008D53B000872
:103D900038B5044645682046FFF772FD0028FAD082
:103DA0007023034A6B43D358586AC0F3080038BDE8
:103DB0004C27002070B505460C4646682846FFF79C
:103DC0006FFD0028FAD07023034AC4F3080473433C
:103DD000D3589C6270BD00BF4C270020DFF820D074
:103DE000002103E0074B5B58435004310648074B62
:103DF00042189A42F6D302F0FFFAFCF72FFA704706
:103E000000000520E83A0108C8020020F80C002054
:103E1000FEE7704708B5094B03201A6842F40072A8
:103E20001A601A6842F480721A6000F0FFF90F20DD
:103E3000FDF772FBFFF7EDFF002008BD003C0240DC
:103E40007047000010B50446002800F09980036C0C
:103E500023B9436480F83C30FFF7F2FF236CDB06A4
:103E600000F18C80236C23F4885323F0020343F089
:103E700002032364434B5A6822F440325A605A6862
:103E800061680A435A60236821695A6822F4807283
:103E90005A605A6842EA0122A1685A605A6822F0C0
:103EA00040725A605A680A43E1685A609A6822F47C
:103EB00000629A609A680A4333499A60A26A8A4209
:103EC00050D0996821F07061996099680A43E16A5D
:103ED0009A609A6822F040529A609A680A439A60FF
:103EE0009A68A16922F002029A609A6842EA410245
:103EF0009A60226A002A3DD05A68616A42F40062E0
:103F000001395A605A6822F460425A605A6842EA9B
:103F100041325A600020DA6AE16922F47002013904
:103F2000DA62DA6A42EA0152216BDA629A6822F4B2
:103F300000729A609A6842EA412261699A609A68BE
:103F400022F480629A609A6842EA81229A606064F0
:103F5000236C23F0030343F001032364002384F85C
:103F60003C3010BD9A6822F070629A609A6822F024
:103F70004052B4E75A6822F40062CAE70120EDE734
:103F80000120EEE7002301400100000F002382B072
:103F9000019390F83C30012B4ED0012380F83C3047
:103FA00003689A68D10705D59A68D20714D400200F
:103FB00002B070479A68214942F001029A60204A93
:103FC0001268B2FBF1F202EB42020192019A002A5E
:103FD000EAD0019A013AF8E7026C22F4E06222F09A
:103FE000010242F4807202645A68510505D5026CE0
:103FF00022F4405242F480520264026C12F4805265
:1040000002D0426C22F006024264002280F83C207A
:104010006FF022021A600B4A5268D20608D19868E3
:1040200010F04050C3D19A6842F080429A60BFE7D6
:10403000054A9342BBD1F2E70220B9E740420F00A4
:10404000D8030020002301400020014003689A6843
:1040500070B5560504460D460BD59B68D80508D5A6
:10406000236C012043F020032364002384F83C30B8
:1040700070BDFDF757FA064623681A6892070CD5FB
:104080006FF012021A60226C42F4007222649A6885
:1040900012F0405F13D00020EAE7691CEDD045B96B
:1040A000236C032043F004032364002384F83C3092
:1040B000DEE7FDF737FA801BA842DDD9F0E7A269F9
:1040C000002AE8D1DA6A12F4700F02D09B685B050F
:1040D000E1D4236C23F480732364206C10F48050AB
:1040E000D9D1236C43F001032364C1E70368D86C82
:1040F000704700000023F7B5019390F83C30012B86
:104100006DD0012380F83C300C680368092C8E6860
:10411000A5B238D905EB45024FF0070CDF681E3A0F
:104120000CFA02FC27EA0C07DF603B4FBC4225D1AA
:10413000DA6842EA0662DA604968062901EB810220
:1041400031D8053A1F26596B964005FA02F221EA4A
:1041500006015963596B0A435A63304A934207D1A7
:10416000122C3ED1D2F8043343F48003C2F8043356
:10417000002380F83C30184603B0F0BDDF6806FA33
:1041800002F23A43D7E704EB44024FF0070C1F69F1
:104190000CFA02FC06FA02F227EA0C071F611F69FB
:1041A0003A431A61C8E70C294FF01F010BD8233A94
:1041B0001E6B914005FA02F226EA01011963196BA0
:1041C0000A431A63C9E7413ADE6A914005FA02F2EE
:1041D00026EA0101D962D96A0A43DA62BDE7022000
:1041E000CAE70D4B9C4201D0112CC1D10C499C4215
:1041F0004A6842F400024A60BAD10A4B0A4A1B6874
:10420000B3FBF2F20A2353430193019B002BAFD07F
:10421000019B013BF8E700BF1200001000200140A5
:1042200000230140D803002040420F000749030249
:10423000CA6803F4E06322F4E0621204120C134330
:1042400043F0BF6343F40033CB60704700ED00E000
:1042500000280DDB4309012200F01F00203302FA81
:1042600000F0044A42F82300BFF34F8FBFF36F8F73
:10427000704700BF00E100E0704710B5044668B128
:10428000037903F0FF0213B94271FFF7F5FF022330
:104290000020237101232061237110BD0120FCE760
:1042A00010B54379012B4FF0020317D0037101229F
:1042B00003688A401C6822431A6089B919681A6821
:1042C0004C0707D502F03802382A03D15A6842F069
:1042D00001025A600123037100234371184610BD87
:1042E00019681A684903F5D502F46012B2F5601F27
:1042F000F0D15A6842F00202EBE730B54379012B66
:104300004FF0020318D0046840F6FE750371954023
:10431000236823EA0505D1E900310B43C02193400E
:1043200001FA02F22B432360236823EA02020123ED
:104330002260037100234371184630BD13B5002479
:1043400000680194019041B9019908310A440020A4
:104350000192019A136002B010BD01991431F5E782
:1043600090F83530022B03D080234365012070473D
:104370000268052380F835300020136823F001031C
:104380001360704703689A69910701D500229A6209
:104390009A69D20703D49A6942F001029A61704780
:1043A00030B5039DC1F30901046845EA0242606823
:1043B0001A43044B43EA55530A4320EA03000243DD
:1043C000626030BDFF63FF0301F00403154A002B58
:1043D00030B5446B0CBF0023B823944201F01202A5
:1043E00002D0114DAC420FD101F01101112908BFCB
:1043F00043F09003122A01D143F0600301680020CA
:104400000A6813430B6030BDCC0748BF43F0F2038A
:10441000890748BF43F0F403122A08BF43F0200382
:10442000ECE700BF194D0008D74A000811F001035E
:1044300007D090F8413003F02803282B0CBF42230B
:10444000F2238A0709D590F8412002F02802282A91
:104450000CBF43F0440343F0F4034A0701684FF0F4
:1044600000000A6848BF43F0B80322EA03030B6068
:104470007047704710B5044600284AD090F8413084
:1044800003F0FF021BB980F84020FFF7F2FF24235E
:1044900084F8413023681A6822F001021A606268C9
:1044A00022F070621A619A6822F400429A60D4E99C
:1044B0000221012924D142F400429A605A68002066
:1044C00042F0007242F400425A60DA6822F400427C
:1044D000DA60D4E904210A43A16942EA0122DA60E0
:1044E000D4E907210A431A601A6842F001021A60EF
:1044F0002023606484F84130206384F8420010BDBA
:1045000042F4044202299A60D8D14FF400625A6002
:10451000D4E70120F3E7000037B5044690F84100E6
:10452000202831D194F8400001282DD0012062626A
:1045300084F84000212084F84100102084F84200D3
:10454000002060646385069BE362104B6363638DA8
:104550009BB2FF2B14D9FF2323854FF080730C4AA5
:1045600000252046009294F82820FFF719FF01212A
:10457000204684F84050FFF727FF284603B030BD9F
:10458000638D2385E36AEAE70220F7E7FB4B000827
:104590000020008037B5044690F84100202831D132
:1045A00094F8400001282DD00120626284F8400078
:1045B000222084F84100102084F84200002060642A
:1045C0006385069BE362104B6363638D9BB2FF2B95
:1045D00014D9FF2323854FF080730C4A0025204611
:1045E000009294F82820FFF7DBFE0221204684F891
:1045F0004050FFF7E9FE284603B030BD638D2385A8
:10460000E36AEAE70220F7E7FB4B0008002400809A
:1046100008B590F84120202A09D12822042180F8E9
:104620004120044A4263FFF7CFFE002008BD02206C
:10463000FCE700BF294900080268436B91691268D2
:1046400003B11847704738B50025044680F842503A
:1046500090F84130212B4FF0200380F841300BD1EE
:104660001123012145630363FFF7E0FE204684F830
:104670004050FDF791FA38BD1223022145630363D0
:10468000FFF7D4FE204684F84050FDF7A3FAF2E786
:1046900038B50025044680F8425090F84130292B67
:1046A0000DD12823012180F8413021230363FFF736
:1046B000BDFE204684F84050FDF7CAFA38BD90F898
:1046C00041302A2BFAD12823022180F841302223BD
:1046D0000363FFF7ABFE204684F84050FDF7BCFAB9
:1046E000ECE70000164B202210B5C36200230446FD
:1046F0000363436380F8412080F842304B0711D5B3
:1047000003685A6A436A591C41621A70038D4BB19F
:10471000013B0385438D013B9BB24385436C43F0D2
:104720000403436407212046FFF780FE236810221C
:104730002046DA61002384F84030FDF791FA10BD7D
:104740000000FFFF704770470022344B10B580F81F
:1047500042200446C3624285436C1943416490F889
:104760004130282B07D090F84130292B03D090F806
:1047700041302A2B21D103212046FFF757FE282361
:1047800084F8413000232363254B63632368196851
:104790001A6811F480411DD022F48042A06B1A6087
:1047A000204B0365002384F84030FFF7D9FD70B338
:1047B000A06B036DBDE8104018470721FFF736FED8
:1047C00094F84130602B02D0202384F8413000233C
:1047D0002363DAE712F400420DD01A68E06B22F48A
:1047E00000421A600F4B036584F84010FFF7B8FDD4
:1047F00068B1E06BDDE794F84130602B08D12023ED
:10480000204684F8402084F84130FDF72BFA10BD93
:10481000204684F84020FDF7F4F9F8E70000FFFF98
:10482000294900083D4E000838B520220368044697
:104830000D46DA6108220721DA61FFF7F7FD2368E8
:1048400020465A6842F400425A605A6822F0FF72C9
:1048500022F48B3222F4FF7222F001025A60FFF739
:1048600091FD22681368580402D41368190409D50D
:1048700094F84130212B0CBFA36BE36B1B685B6882
:104880009BB26385638D9BB21BB1636C43F00403E1
:1048900063646B0710D5636A526A591C61621A70AF
:1048A000238D4BB1013B2385638D013B9BB2638517
:1048B000636C43F00403636400232363636384F83D
:1048C0004230636C6BB1616C2046FFF73DFF94F89A
:1048D0004130282B13D129462046BDE83840FFF748
:1048E00001BFE26A12F5803F0AD00E4A204684F8E2
:1048F0004030E262202284F84120FDF7B1F938BD52
:1049000094F84120204684F84030222A4FF02002BB
:1049100084F8412002D1FDF79FF9F0E7FDF798F9FF
:10492000EDE700BF0000FFFF2DE9F84390F84030AD
:1049300004460D461646012B00F0CB800123CF061E
:1049400080F840303ED5D0063CD5638D9BB28BBB02
:10495000E36AB3F1007F03D0E36AB3F1007F14D1BF
:1049600094F84130282B10D129462046FFF7BAFE93
:10497000AA0605D5B30603D529462046FFF754FFFE
:10498000002084F84000BDE8F883E26A236812F54D
:10499000803F0CD094F84120292A08D110222046CB
:1049A000DA61FFF7EFFC2046FFF772FEE0E7102226
:1049B000DA61DDE723681022DA61636C43F00403F7
:1049C0006364D5E769071AD5720718D5638D9BB262
:1049D00063B123685A6A636A591C61621A70238D35
:1049E000013B2385638D013B9BB26385638D9BB245
:1049F000002BBDD1E36A13F5803FB9D0D3E72B0775
:104A000046D5370744D594F84130206803F0280391
:104A1000282B37D18769E1688369C7F300470229EA
:104A20004FEA134303F0FE098368D0F80C8020D1CD
:104A3000C3F3090289EAD31313F006030FD1A16C63
:104A40000131A164A16C022992D10821A364C16142
:104A500084F8403039462046FDF7F0F888E7042115
:104A60002046FFF7E3FC002308F0FE0284F8403004
:104A7000F0E704212046FFF7D9FC00234A4684F8DA
:104A80004030E7E70823C361002384F840306FE734
:104A9000A8077FF56DAFB1077FF56AAF638D9BB255
:104AA0006BB1636A5A1C626222681B789362638DE1
:104AB000013B9BB26385238D013B238558E7E36A65
:104AC000B3F1807F3FF46FAFE36A002B3FF46BAF2D
:104AD0004EE7022057E710B590F840300446012B0E
:104AE0002ED0012380F84030C80619D5D30617D53B
:104AF00094F8413010212268212B0CBFA36BE36B8B
:104B00001B685B68D161B3FA83F35B091BB10020BA
:104B100084F8400010BD636C43F004036364F6E75F
:104B2000080705D5130703D523680822DA61EEE7E5
:104B30008806ECD59306EAD52046FFF775FEE6E732
:104B40000220E7E70368202210B5DA6104465A68BC
:104B500022F0FF7222F48B3222F4FF7222F0010263
:104B60005A60002202634263A2F58032C262CA0622
:104B700005D51022DA61436C43F0040343642046F8
:104B8000FFF700FC0321FFF751FC636C1BB994F89D
:104B90004120602A05D1616C2046BDE81040FFF736
:104BA000D3BD94F84120212A11D12022204684F837
:104BB000403084F8412094F8422084F84230402A62
:104BC00002D1FFF7BFFD10BDFCF7E6FFFBE794F84D
:104BD0004120222AF7D12022204684F8403084F850
:104BE000412094F8422084F84230402A02D1FFF755
:104BF000AAFDE8E7FCF7EEFFE5E773B590F8403073
:104C000004460D461646012B00F084800123CA0697
:104C100080F8403017D5F30615D503681022DA6105
:104C2000436C43F004034364FFF7ACFBAA0605D5CD
:104C3000B30603D529462046FFF784FF002084F8F9
:104C4000400002B070BD68070FD571070DD523680D
:104C50005A6A636A591C61621A70238D013B23856D
:104C6000638D013B9BB26385E0E7AA0708D5B307D4
:104C700006D5636A5A1C626222681B789362ECE76D
:104C8000280632D5710630D5208D226808BB638D89
:104C90009BB2F3B15168638DC1F309019BB2FF2B45
:104CA00008D9FF224FF08073009022852046FFF73D
:104CB00077FBBBE7628DE36A92B213F5803F2285F2
:104CC000D2B202D0E36A0090F0E74FF00073009098
:104CD000ECE753689A0103D42046FFF7B4FCA5E73C
:104CE00040212046FFF730FDA0E76B069ED57006F9
:104CF0009CD5638D9BB2002BF2D123685A68910139
:104D000094D4E26A12F5803FE6D15A6842F48042B8
:104D10005A608BE7022094E713B590F840300446C0
:104D2000012B58D0012380F84030CB0613D5D30691
:104D300011D5036810221221DA61436C43F0040399
:104D40004364FFF741FB2046FFF71CFB002084F87B
:104D5000400002B010BD080635D5530633D5236890
:104D60001A6822F040021A60628D92B232B359681A
:104D7000638DC1F309019BB2FF2B1BD8628D4FF0ED
:104D8000007392B200202285D2B200902046FFF735
:104D900007FB638D228D9B1A9BB2638594F841308B
:104DA000222B23681A680CBF42F4004242F480426E
:104DB0001A60CBE7FF224FF08073E3E740212046E3
:104DC000FFF7C2FCC2E78806C0D59306BED52046D1
:104DD000FFF7B8FEBAE70220BBE7036899691A68D3
:104DE00010B4CC0508D5140606D5446C44F0010473
:104DF00044644FF48074DC614C0508D5140606D574
:104E0000446C44F0080444644FF48064DC61890518
:104E100008D5120606D5426C42F0020242644FF4F5
:104E20000072DA61436C13F00B0F04D0416C5DF833
:104E3000044BFFF789BC5DF8044B7047806B026838
:104E400008B5536843F4004353600023826B136535
:104E5000C26B136590F84130602B05D1202380F898
:104E60004130FCF7FFFE08BDFCF7CBFEFBE710B5B9
:104E700090F84130202BDCB21DD190F84030012B4E
:104E800019D0242380F8413003681A6822F0010207
:104E90001A601A6822F480521A601A681143196065
:104EA0001A6842F001021A60002380F8414080F83D
:104EB0004030184610BD0220FCE7704770B504462C
:104EC000002842D090F82E3003F0FF021BB980F882
:104ED0002D20FFF7F2FF656802232068012D61692C
:104EE00084F82E304FF6FF73C268194E08BF22F0C7
:104EF0001E0299421CBF22F4604222F0C002012D22
:104F000006EA0206A26845EA0203226A43EA0203AD
:104F1000626A43EA0203A26A43EA020308BFD4E9D1
:104F2000032543EA060304BF2A4313434FF6FF72E7
:104F3000914204D0A2691143E26911430B43C3605B
:104F40000123002084F82E3070BD0120FCE700BF53
:104F5000FEF119FF022380F82E30D0E90032012A39
:104F600007D0826AB2F5000F03D1DA6822F46062DA
:104F7000DA601A6942F001021A6199611A6942F015
:104F800004021A61012380F82E30002070470000CF
:104F9000194B37B51A6C194C42F080521A641B6CCD
:104FA00003F080530193019B236843F48033236013
:104FB000FCF7B8FA05466368DA030CD523680F4D91
:104FC00043F400332360FCF7ADFA04466B689B039F
:104FD0000AD5002006E0FCF7A5FA401BB0F57A7F61
:104FE000E9D9032003B030BDFCF79CFA001BB0F5F3
:104FF0007A7FEBD9F5E700BF00380240007000402F
:105000002DE9F341044618B9012002B0BDE8F08152
:105010000368D80710D42368990761D42368190757
:1050200000F1A88023685A0700F1C980A269002A0C
:1050300040F032810020E8E7954B9A6802F00C02BC
:10504000042A07D09A6802F00C02082A0AD15A688A
:10505000520207D58E4B1B689B03DCD56368002B7F
:10506000D9D1D1E76268B2F5803F11D11A6842F414
:1050700080321A60FCF756FA854E054633689F0366
:10508000C9D4FCF74FFA401BC828F7D90320BCE766
:105090007F4D2B6892B923F480332B602B6823F467
:1050A00080232B60FCF73EFA06462B689803B2D5A6
:1050B000FCF738FA801BC828F7D9E7E7B2F5A02F2C
:1050C00007D143F480232B602B6843F480332B609B
:1050D000D0E723F480332B602B6823F48023F6E79A
:1050E0006B4B9A6812F00C0F07D09A6802F00C0212
:1050F000082A12D15A6851020FD4654B1A689207D8
:1051000003D5E268012A7FF47FAF1A68216922F093
:10511000F80242EAC1021A6080E7E268C2B11A6886
:105120005B4D42F001021A60FCF7FCF906462B6861
:105130009F0707D52B68226923F0F80343EAC203CF
:105140002B606BE7FCF7EEF9801B0228EFD99DE797
:105150001A684F4E22F001021A60FCF7E3F9054687
:10516000336898077FF55AAFFCF7DCF9401B02283B
:10517000F6D98BE76369464D83B16B6F43F001034A
:105180006B67FCF7CFF906466B6F9B073FF54AAF9D
:10519000FCF7C8F9801B0228F6D977E76B6F23F07C
:1051A00001036B67FCF7BEF906466B6F9F077FF53F
:1051B00039AFFCF7B7F9801B0228F6D966E7344B04
:1051C0001A6CD00027D41A6C012742F080521A645E
:1051D0001B6C03F080530193019B2E4D2B68D90566
:1051E0001BD5A3682A4D012B27D12B6F43F0010358
:1051F0002B6741F28838FCF795F9254E0546336F49
:105200009B073FD5002F3FF411AF214A136C23F0C9
:10521000805313640AE70027DFE72B6843F48073A9
:105220002B60FCF77FF906462B68DA05D9D4FCF72A
:1052300079F9801B6428F7D928E7ABB92B6F41F2C5
:10524000883823F001032B672B6F23F004032B67AF
:10525000FCF768F906462B6F9807D3D5FCF762F97F
:10526000801B4045F7D911E7052B2B6F03D143F085
:1052700004032B67B9E723F001032B672B6F23F09F
:105280000403B5E7FCF74EF9401B4045B7D9FDE6EE
:105290000038024000700040244DAB6803F00C035E
:1052A000082B3FF4B1AE2B68022A23F080732B60E9
:1052B0002ED1FCF737F906462B68990122D4A36A50
:1052C0005B085A1ED4E907310B4343EA0243626A82
:1052D00043EA8213E26A43EA026343F000536B60DD
:1052E0002B6843F080732B60FCF71CF90F4D0446CC
:1052F0002B689A013FF59EAEFCF714F9001B0228BB
:10530000F6D9C3E6FCF70EF9801B0228D4D9BDE616
:10531000FCF708F904462B689B017FF58BAEFCF780
:1053200001F9001B0228F6D9B0E600BF00380240A0
:10533000134908B58B6803F00C03042B1BD0082B12
:105340001BD14A684B68496802F03F0213F480039E
:10535000C1F388111ABF0B4800230B48A1FB0001C1
:105360000BF0D4FD064B5B68C3F3014301335B00D4
:10537000B0FBF3F008BD0348FCE70348FAE700BFC1
:105380000038024000127A000024F4002DE9F041B8
:105390000D46044610B90120BDE8F081454A136866
:1053A00003F00F038B4227D3226897072FD4D0072F
:1053B00043D4404A136803F00F03AB4266D8226817
:1053C00051076FD4130707D53B4A2169936823F42B
:1053D000604343EAC1039360FFF7AAFF364B374AA5
:1053E0009B68C3F30313D35CD840354B18600F2080
:1053F000FCF792F80020CFE7136823F00F030B436C
:105400001360136803F00F038B42C4D1CCE712F092
:10541000040F294B03D0996841F4E05199601607B5
:1054200003D5996841F4604199602349A0688B686D
:1054300023F0F00303438B60B9E761681E4B012939
:105440001A681BD112F4003FA5D09A6841F288383F
:10545000194F22F003020A439A60FCF763F80646EC
:10546000BB68626803F00C03B3EB820FA1D0FCF7BA
:1054700059F8801B4045F3D903208DE7022902D15A
:1054800012F0007FE0E712F0020FDDE7136823F06F
:105490000F032B431360136803F00F03AB427FF439
:1054A0007AAF8CE70449E0688B6823F4E053034348
:1054B0008B6087E7003C02400038024061380108F9
:1054C000D8030020044B054A9B68C3F38223D35CB6
:1054D000034A1068D840704700380240713801080C
:1054E000D8030020044B054A9B68C3F34233D35CC6
:1054F000034A1068D84070470038024071380108EC
:10550000D80300200F2303600B4B9A6802F00302BC
:1055100042609A6802F0F00282609A6802F4E052F7
:10552000C2609B68DB0803F4E0530361034B1B6814
:1055300003F00F030B60704700380240003C02404C
:1055400003682DE9F74313F0010604460BD0AB4A7C
:10555000916821F400019160466B91683143B6FA7D
:1055600086F67609916013F4002512D0A349E56B05
:10557000D1F88C20B5F5801F22F4401208BF012617
:1055800042EA050216BFB5FA85F500256D09C1F896
:105590008C20D80210D59948216CD0F88C20B1F518
:1055A000800F22F4400242EA0102C0F88C2000F091
:1055B0008681002908BF012513F0807F18BF0126CE
:1055C000990631D58D4B8E4F1A6C42F080521A6479
:1055D0001B6C03F080530193019B3B6843F4807381
:1055E0003B60FBF79FFF80463B68DA0540F169812D
:1055F000824F3B6F13F4407340F06E81236B03F4D2
:105600004072B2F5407F7D4A40F08C81916823F072
:10561000704021F4F81120F4407001439160C3F30D
:105620000B03116F0B4313672368D9060CD5734A1C
:10563000D2F88C1021F08071C2F88C10D2F88C1046
:10564000A06B0143C2F88C105A0408D56B49606EF8
:10565000D1F8902022F440320243C1F890201F0478
:1056600008D56649A06ED1F8902022F4402202436A
:10567000C1F89020D80308D56049E06ED1F8902099
:1056800022F440120243C1F89020990308D55B49E7
:10569000206FD1F8902022F440020243C1F89020FC
:1056A0005A0608D55549606CD1F8902022F00302C3
:1056B0000243C1F890201F0608D55049A06CD1F8CC
:1056C000902022F00C020243C1F89020D80508D5A2
:1056D0004A49E06CD1F8902022F030020243C1F830
:1056E0009020990508D54549206DD1F8902022F0E9
:1056F000C0020243C1F890205A0508D53F49606DA9
:10570000D1F8902022F440720243C1F890201F0586
:1057100008D53A49A06DD1F8902022F440620243A6
:10572000C1F89020D80408D53449E06DD1F8902014
:1057300022F440520243C1F89020990408D52F4921
:10574000206ED1F8902022F440420243C1F890200C
:105750005A0208D52949A06FD1F8902022F0806222
:105760000243C1F890209F020CD52448E16FD0F885
:105770009020B1F1006F22F0006208BF01250A43BA
:10578000C0F8902013F0080F18BF0125580308D562
:105790001A49606FD1F8902022F040720243C1F89C
:1057A0009020190209D51549D4F88000D1F890202D
:1057B00022F080520243C1F89020012E00F0B68002
:1057C000B3F1007F00F0B280012D76D10B4D2B6834
:1057D0002E4623F080532B60FBF7A4FE07462B6870
:1057E0009B0000F127812268150301D5E36B4BB1C3
:1057F000D00222D5236C03BB04E000BF0038024076
:1058000000700040D6F88830D6F8881003F4403392
:1058100001F0E0410B43616943EA8113A16943EA66
:105820000163C6F88830D6F88C30A16A23F4F853A7
:10583000013943EA0123C6F88C30910215D5E36F94
:10584000B3F1006F11D18249D1F88830D1F88800C6
:1058500003F0706300F0E0400343606943EA8013A3
:10586000206A43EA0043C1F88830120719D5784A04
:10587000D2F88810D2F8883001F0706103F4403318
:105880000B43616943EA8113E16943EA0173C2F89A
:105890008830D2F88C30E16A23F440330B43C2F8ED
:1058A0008C306B4C236843F080532360FBF73AFE47
:1058B000054623689B0040F1C480002009E00126D2
:1058C0007AE6FBF72FFEA0EB080064287FF68CAE8B
:1058D000032003B0BDE8F083226B02F440729342D0
:1058E0003FF48CAE3B6F3A6F23F4407342F4803246
:1058F0003A673A6F22F480323A673B673B6FDB07C7
:105900007FF57CAEFBF70EFE41F2883980463B6F97
:1059100098073FF573AEFBF705FEA0EB080048457E
:10592000F5D9D5E7916821F4F81177E6484E336848
:1059300023F080633360FBF7F5FD074633681A01F7
:1059400072D42268D30712D5636B83B9D6F884303A
:10595000D6F8841003F4403301F070610B436168A2
:1059600043EA8113A16843EA0173C6F88430170340
:1059700003D5E36BB3F5801F05D0D6021ED5236C8B
:10598000B3F5800F1AD13249D1F88430D1F88400B0
:1059900003F4403300F0E0400343606843EA8013BF
:1059A000E06843EA0063C1F88430D1F88C00636A90
:1059B00020F01F00013B0343C1F88C30D00111D50A
:1059C0002349D1F88430D1F8840003F0706300F0EB
:1059D000E0400343606843EA8013206943EA0043E0
:1059E000C1F8843091010DD5236962681B0443EA34
:1059F0008213E26843EA0263A26843EA0273144A2C
:105A0000C2F88430124E336843F080633360FBF792
:105A100089FD074633681A013FF5D6AEFBF782FDD4
:105A2000C01B6428F6D953E7FBF77CFDC01B642834
:105A300084D94DE7FBF776FDC01B64287FF6CFAE17
:105A400046E7FBF76FFD401B64287FF632AF3FE768
:105A50000038024070477047304A0368904212D0C5
:105A6000B0F1804F0FD0A2F57C4290420BD002F5EE
:105A70008062904207D002F58062904203D002F526
:105A80007842904219D14A6823F070031343234AA5
:105A9000904229D0B0F1804F26D0A2F57C429042AE
:105AA00022D002F5806290421ED002F580629042C0
:105AB0001AD002F57842904216D0194A904213D07B
:105AC00002F5806290420FD002F5806290420BD0C6
:105AD000A2F59832904207D002F58062904203D03E
