:020000040800F2
:1000000000000520CDD300087FAC000885AC0008B7
:100010008BAC000891AC000897AC00080000000011
:10002000000000000000000000000000ED84000857
:100030009DAC000800000000A9840008D9830008D6
:100040001DD400081DD400081DD400081DD40008CC
:100050001DD400081DD400081DD400081DD40008BC
:100060001DD400081DD400081DD400081DD40008AC
:10007000319300081DD400081DD400081DD40008C9
:100080001DD400081DD400081DD400081DD400088C
:100090001DD400081DD400081DD400081DD400087C
:1000A0001DD400081DD400081DD400081DD400086C
:1000B0001DD400081DD400081DD400081DD400085C
:1000C0001DD400081DD400081DD400081DD400084C
:1000D0001DD400081DD400081DD400081D9300087D
:1000E0001DD400081DD400081DD400081DD400082C
:1000F0001DD400081DD400081DD400081DD400081C
:100100001DD400081DD40008ADAC00081DD40008A3
:100110001DD400081DD400081DD400081DD40008FB
:100120001DD400081DD400081DD400081DD40008EB
:100130001DD400081DD400081DD400081DD40008DB
:100140001DD400081DD400081DD400081DD40008CB
:100150001DD400081DD400081DD400081DD40008BB
:100160001DD400081DD400081DD400081DD40008AB
:100170001DD400081DD400081DD400080000000094
:100180001DD400081DD400081DD400081DD400088B
:100190001DD400081DD400081DD400081DD400087B
:1001A0001DD400081DD400081DD400081DD400086B
:1001B0001DD400081DD400081DD400081DD400085B
:0801C0001DD400081DD4000845
:1001C80081F0004102E000BF83F0004330B54FEA00
:1001D80041044FEA430594EA050F08BF90EA020F6D
:1001E8001FBF54EA000C55EA020C7FEA645C7FEA00
:1001F800655C00F0E2804FEA5454D4EB5555B8BF23
:100208006D420CDD2C4480EA020281EA030382EA93
:10021800000083EA010180EA020281EA0303362D25
:1002280088BF30BD11F0004F4FEA01314FF4801CF8
:100238004CEA113102D0404261EB410113F0004F0A
:100248004FEA03334CEA133302D0524263EB4303C1
:1002580094EA050F00F0A780A4F10104D5F1200E5F
:100268000DDB02FA0EFC22FA05F2801841F10001BA
:1002780003FA0EF2801843FA05F359410EE0A5F18E
:1002880020050EF1200E012A03FA0EFC28BF4CF0BF
:10029800020C43FA05F3C01851EBE37101F0004575
:1002A80007D54FF0000EDCF1000C7EEB00006EEB82
:1002B8000101B1F5801F1BD3B1F5001F0CD349080C
:1002C8005FEA30004FEA3C0C04F101044FEA445263
:1002D80012F5800F80F09A80BCF1004F08BF5FEAEA
:1002E800500C50F1000041EB045141EA050130BDCA
:1002F8005FEA4C0C404141EB0101013C28BFB1F5DC
:10030800801FE9D291F0000F04BF01460020B1FA26
:1003180081F308BF2033A3F10B03B3F120020CDAF9
:100328000C3208DD02F1140CC2F10C0201FA0CF0D7
:1003380021FA02F10CE002F11402D8BFC2F1200C3C
:1003480001FA02F120FA0CFCDCBF41EA0C019040F2
:10035800E41AA2BF01EB0451294330BD6FEA04043B
:100368001F3C1CDA0C340EDC04F11404C4F1200226
:1003780020FA04F001FA02F340EA030021FA04F338
:1003880045EA030130BDC4F10C04C4F1200220FA8F
:1003980002F001FA04F340EA0300294630BD21FACD
:1003A80004F0294630BD94F0000F83F4801306BF93
:1003B80081F480110134013D4EE77FEA645C18BF87
:1003C8007FEA655C29D094EA050F08BF90EA020F1E
:1003D80005D054EA000C04BF1946104630BD91EA16
:1003E800030F1EBF0021002030BD5FEA545C05D119
:1003F8004000494128BF41F0004130BD14F5800458
:100408003CBF01F5801130BD01F0004545F0FE41CB
:1004180041F470014FF0000030BD7FEA645C1ABF00
:10042800194610467FEA655C1CBF0B46024650EA37
:10043800013406BF52EA033591EA030F41F4002163
:1004480030BD00BF90F0000F04BF0021704730B5E9
:100458004FF4806404F132044FF000054FF00001BE
:1004680050E700BF90F0000F04BF0021704730B57F
:100478004FF4806404F1320410F0004548BF404254
:100488004FF000013EE700BF42004FEAE2014FEAA9
:1004980031014FEA02701FBF12F07F4393F07F4F84
:1004A80081F06051704732F07F4208BF704793F087
:1004B8007F4F04BF41F40021704730B54FF460749A
:1004C80001F0004521F000411CE700BF50EA01029D
:1004D80008BF704730B54FF000050AE050EA010246
:1004E80008BF704730B511F0004502D5404261EBB6
:1004F80041014FF4806404F132045FEA915C3FF4F7
:10050800D8AE4FF003025FEADC0C18BF03325FEA93
:10051800DC0C18BF033202EBDC02C2F1200300FA44
:1005280003FC20FA02F001FA03FE40EA0E0021FA69
:1005380002F11444BDE600BF70B54FF0FF0C4CF457
:10054800E06C1CEA11541DBF1CEA135594EA0C0F09
:1005580095EA0C0F00F0DEF82C4481EA030621EA44
:100568004C5123EA4C5350EA013518BF52EA03357F
:1005780041F4801143F4801338D0A0FB02CE4FF031
:100588000005E1FB02E506F00042E0FB03E54FF061
:100598000006E1FB03569CF0000F18BF4EF0010E59
:1005A800A4F1FF04B6F5007F64F5407404D25FEA55
:1005B8004E0E6D4146EB060642EAC62141EA555108
:1005C8004FEAC52040EA5E504FEACE2EB4F1FD0C4A
:1005D80088BFBCF5E06F1ED8BEF1004F08BF5FEAC8
:1005E800500E50F1000041EB045170BD06F000467A
:1005F80046EA010140EA020081EA0301B4EB5C0427
:10060800C2BFD4EB0C0541EA045170BD41F480111E
:100618004FF0000E013C00F3AB8014F1360FDEBF43
:10062800002001F0004170BDC4F10004203C35DA1F
:100638000C341BDC04F11404C4F1200500FA05F3A2
:1006480020FA04F001FA05F240EA020001F0004243
:1006580021F0004110EBD37021FA04F642EB0601B9
:100668005EEA430E08BF20EAD37070BDC4F10C04E3
:10067800C4F1200500FA04F320FA05F001FA04F2A7
:1006880040EA020001F0004110EBD37041F1000193
:100698005EEA430E08BF20EAD37070BDC4F120059E
:1006A80000FA05F24EEA020E20FA04F301FA05F206
:1006B80043EA020321FA04F001F0004121FA04F2AE
:1006C80020EA020000EBD3705EEA430E08BF20EA7E
:1006D800D37070BD94F0000F0FD101F000464000B8
:1006E80041EB010111F4801F08BF013CF7D041EA3A
:1006F800060195F0000F18BF704703F0004652003E
:1007080043EB030313F4801F08BF013DF7D043EA0E
:100718000603704794EA0C0F0CEA135518BF95EAC4
:100728000C0F0CD050EA410618BF52EA4306D1D14B
:1007380081EA030101F000414FF0000070BD50EA6A
:10074800410606BF1046194652EA430619D094EAF4
:100758000C0F02D150EA013613D195EA0C0F05D1DE
:1007680052EA03361CBF104619460AD181EA030132
:1007780001F0004141F0FE4141F470014FF00000EA
:1007880070BD41F0FE4141F4780170BD70B54FF085
:10079800FF0C4CF4E06C1CEA11541DBF1CEA135505
:1007A80094EA0C0F95EA0C0F00F0A7F8A4EB0504E7
:1007B80081EA030E52EA03354FEA013100F08880DE
:1007C8004FEA03334FF0805545EA131343EA1263A7
:1007D8004FEA022245EA111545EA10654FEA00265C
:1007E8000EF000419D4208BF964244F1FD0404F515
:1007F800407402D25B084FEA3202B61A65EB030571
:100808005B084FEA32024FF480104FF4002CB6EB2D
:10081800020E75EB030E22BFB61A754640EA0C00AD
:100828005B084FEA3202B6EB020E75EB030E22BFED
:10083800B61A754640EA5C005B084FEA3202B6EB2E
:10084800020E75EB030E22BFB61A754640EA9C00ED
:100858005B084FEA3202B6EB020E75EB030E22BFBD
:10086800B61A754640EADC0055EA060E18D04FEA7B
:10087800051545EA16754FEA06164FEAC30343EA1B
:1008880052734FEAC2025FEA1C1CC0D111F4801FE8
:100898000BD141EA00014FF000004FF0004CB6E7E1
:1008A80011F4801F04BF01430020B4F1FD0C88BF80
:1008B800BCF5E06F3FF6AFAEB5EB030C04BFB6EB8B
:1008C800020C5FEA500C50F1000041EB045170BD7E
:1008D8000EF0004E4EEA113114EB5C04C2BFD4EBAB
:1008E8000C0541EA045170BD41F480114FF0000E2F
:1008F800013C90E645EA060E8DE60CEA135594EAAB
:100908000C0F08BF95EA0C0F3FF43BAF94EA0C0FAD
:100918000AD150EA01347FF434AF95EA0C0F7FF422
:1009280025AF104619462CE795EA0C0F06D152EA76
:1009380003353FF4FDAE1046194622E750EA41065A
:1009480018BF52EA43067FF4C5AE50EA41047FF46B
:100958000DAF52EA43057FF4EBAE12E74FF0FF3CD0
:1009680006E000BF4FF0010C02E000BF4FF0010CA1
:100978004DF804CD4FEA410C7FEA6C5C4FEA430C1A
:1009880018BF7FEA6C5C1BD001B050EA410C0CBF69
:1009980052EA430C91EA030F02BF90EA020F0020CB
:1009A800704710F1000F91EA030F58BF994208BF32
:1009B80090422CBFD8176FEAE37040F001007047EF
:1009C8004FEA410C7FEA6C5C02D150EA013C07D146
:1009D8004FEA430C7FEA6C5CD6D152EA033CD3D091
:1009E8005DF8040B704700BF8446104662468C468B
:1009F8001946634600E000BF01B5FFF7B7FF0028BE
:100A080048BF10F1000F01BD4DF808EDFFF7F4FFE6
:100A18000CBF012000205DF808FB00BF4DF808ED71
:100A2800FFF7EAFF34BF012000205DF808FB00BF94
:100A38004DF808EDFFF7E0FF94BF012000205DF8B6
:100A480008FB00BF4DF808EDFFF7CEFF94BF01206B
:100A580000205DF808FB00BF4DF808EDFFF7C4FF64
:100A680034BF012000205DF808FB00BF4FEA410CAD
:100A78007FEA6C5C02D150EA013C0AD14FEA430C90
:100A88007FEA6C5C02D152EA033C02D14FF00000CD
:100A980070474FF0010070474A0011D212F500125A
:100AA80011D20DD56FF47873B3EB62520ED44FEABE
:100AB800C12343F0004343EA505323FA02F070473E
:100AC8004FF00000704750EA013002D14FF0FF307C
:100AD80070474FF000007047844641EA000313F066
:100AE80003036DD1403A41D351F8043B40F8043B2D
:100AF80051F8043B40F8043B51F8043B40F8043BF0
:100B080051F8043B40F8043B51F8043B40F8043BDF
:100B180051F8043B40F8043B51F8043B40F8043BCF
:100B280051F8043B40F8043B51F8043B40F8043BBF
:100B380051F8043B40F8043B51F8043B40F8043BAF
:100B480051F8043B40F8043B51F8043B40F8043B9F
:100B580051F8043B40F8043B51F8043B40F8043B8F
:100B680051F8043B40F8043B403ABDD2303211D32F
:100B780051F8043B40F8043B51F8043B40F8043B6F
:100B880051F8043B40F8043B51F8043B40F8043B5F
:100B9800103AEDD20C3205D351F8043B40F8043B2F
:100BA800043AF9D2043208D0D2071CBF11F8013B2D
:100BB80000F8013B01D30B8803806046704700BFF3
:100BC800082A13D38B078DD010F003038AD0C3F102
:100BD8000403D21ADB071CBF11F8013B00F8013BE4
:100BE80080D331F8023B20F8023B7BE7043AD9D3A3
:100BF800013A11F8013B00F8013BF9D20B78037078
:100C08004B7843708B788370604670470348044B79
:100C1800834202D0034B03B118477047E00100201C
:100C2800E0010020000000000548064B1B1AD90F00
:100C380001EBA301491002D0034B03B118477047D9
:100C4800E0010020E00100200000000010B5064C83
:100C5800237843B9FFF7DAFF044B13B10448AFF325
:100C680000800123237010BDE00100200000000077
:100C7800D8D8000808B5054B1BB105490548AFF39E
:100C88000080BDE80840FFF7CFBF00BF00000000AC
:100C9800E4010020D8D8000880B485B000AF78609F
:100CA8007B681B6803F06003FB60FB68002B04D1C2
:100CB8007B681B6803F01003FB60FB681846143759
:100CC800BD465DF8047B704780B483B000AF7860A0
:100CD8007B685B6A18460C37BD465DF8047B704735
:100CE80080B483B000AF78607B681B6B18460C3704
:100CF800BD465DF8047B704780B483B000AF786070
:100D080039607B681A6A3B681A437B681A6200BFBD
:100D18000C37BD465DF8047B704780B483B000AFE4
:100D2800786039607B681A6A3B68DB431A407B68E5
:100D38001A6200BF0C37BD465DF8047B704780B46B
:100D480083B000AF78607B685B6C43F400427B68DB
:100D58005A6400BF0C37BD465DF8047B704780B409
:100D680083B000AF78607B68DB6843F001027B6882
:100D7800DA6000BF0C37BD465DF8047B704780B46D
:100D880083B000AF78607B68DB6823F001027B6882
:100D9800DA6000BF0C37BD465DF8047B704780B44D
:100DA80083B000AF78607B68DB6803F00103012B38
:100DB80001D1012300E0002318460C37BD465DF839
:100DC800047B704780B483B000AF78607B68DB68D1
:100DD80043F002027B68DA6000BF0C37BD465DF85D
:100DE800047B704780B483B000AF78607B68DB68B1
:100DF80023F002027B68DA6000BF0C37BD465DF85D
:100E0800047B704780B483B000AF78607B68DB6890
:100E180003F00203022B01D1012300E0002318464E
:100E28000C37BD465DF8047B704780B483B000AFD3
:100E380078607B68DB6843F004027B68DA6000BF97
:100E48000C37BD465DF8047B704780B483B000AFB3
:100E580078607B68DB6823F004027B68DA6000BF97
:100E68000C37BD465DF8047B704780B483B000AF93
:100E780078607B68DB6803F00403042B01D101234D
:100E880000E0002318460C37BD465DF8047B704728
:100E980080B483B000AF78607B68DB6843F00802F9
:100EA8007B68DA6000BF0C37BD465DF8047B70478D
:100EB80080B483B000AF78607B68DB6823F00802F9
:100EC8007B68DA6000BF0C37BD465DF8047B70476D
:100ED80080B483B000AF78607B68DB6803F00803F8
:100EE800082B01D1012300E0002318460C37BD462A
:100EF8005DF8047B704780B483B000AF78607B688E
:100F0800DB6843F010027B68DA6000BF0C37BD462F
:100F18005DF8047B704780B483B000AF78607B686D
:100F2800DB6823F010027B68DA6000BF0C37BD462F
:100F38005DF8047B704780B483B000AF78607B684D
:100F4800DB6803F01003102B01D1012300E000231C
:100F580018460C37BD465DF8047B704780B483B0F3
:100F680000AF78607B68DB6843F020027B68DA605A
:100F780000BF0C37BD465DF8047B704780B483B072
:100F880000AF78607B68DB6823F020027B68DA605A
:100F980000BF0C37BD465DF8047B704780B483B052
:100FA80000AF78607B68DB6803F02003202B01D159
:100FB800012300E0002318460C37BD465DF8047B8A
:100FC800704780B483B000AF78607B68DB6843F01B
:100FD80040027B68DA6000BF0C37BD465DF8047BD1
:100FE800704780B483B000AF78607B68DB6823F01B
:100FF80040027B68DA6000BF0C37BD465DF8047BB1
:10100800704780B483B000AF78607B68DB6803F01A
:101018004003402B01D1012300E0002318460C3780
:10102800BD465DF8047B704780B483B000AF78603C
:101038007B68DB6843F080027B68DA6000BF0C37AE
:10104800BD465DF8047B704780B483B000AF78601C
:101058007B68DB6823F080027B68DA6000BF0C37AE
:10106800BD465DF8047B704780B483B000AF7860FC
:101078007B68DB6803F08003802B01D1012300E04B
:10108800002318460C37BD465DF8047B704780B5D1
:1010980082B000AF78600B467B807B8803F0010349
:1010A800002B0CD07B681B681846FFF7AAFF034685
:1010B800012B04D07B681B681846FFF782FF7B88EA
:1010C80003F00203002B0CD07B681B681846FFF75F
:1010D80099FE0346012B04D07B681B681846FFF76E
:1010E80071FE7B8803F00403002B0CD07B681B681F
:1010F8001846FFF7BAFE0346012B04D07B681B682D
:101108001846FFF792FE7B8803F00803002B0CD0EB
:101118007B681B681846FFF7DBFE0346012B04D0EB
:101128007B681B681846FFF7B3FE7B8803F0100343
:10113800002B0CD07B681B681846FFF7FCFE0346A3
:10114800012B04D07B681B681846FFF7D4FE7B8808
:1011580003F02003002B0CD07B681B681846FFF7B0
:101168001EFE0346012B04D07B681B681846FFF758
:10117800F6FD7B8803F04003002B0CD07B681B68CE
:101188001846FFF771FF0346012B04D07B681B68E4
:101198001846FFF749FF7B8803F08003002B0CD02B
:1011A8007B681B681846FFF7F9FE0346012B04D03D
:1011B8007B681B681846FFF7D1FE00BF0837BD469D
:1011C80080BD80B582B000AF78600B467B807B889D
:1011D80003F00103002B0CD07B681B681846FFF74F
:1011E80010FF0346012B04D17B681B681846FFF7E4
:1011F800F8FE7B8803F00203002B0CD07B681B6889
:101208001846FFF7FFFD0346012B04D17B681B68D6
:101218001846FFF7E7FD7B8803F00403002B0CD08A
:101228007B681B681846FFF720FE0346012B04D194
:101238007B681B681846FFF708FE7B8803F00803E5
:10124800002B0CD07B681B681846FFF741FE03464D
:10125800012B04D17B681B681846FFF729FE7B88A1
:1012680003F01003002B0CD07B681B681846FFF7AF
:1012780062FE0346012B04D17B681B681846FFF702
:101288004AFE7B8803F02003002B0CD07B681B6888
:101298001846FFF784FD0346012B04D07B681B68C2
:1012A8001846FFF76CFD7B8803F04003002B0CD039
:1012B8007B681B681846FFF7D7FE0346012B04D14D
:1012C8007B681B681846FFF7BFFE7B8803F0800326
:1012D800002B0CD07B681B681846FFF75FFE03469F
:1012E800012B04D17B681B681846FFF747FE00BF37
:1012F8000837BD4680BD000080B582B000AF786079
:101308000B46FB70FB78022B06D17B681B6801211A
:101318001846FFF7F1FC22E07B681B68124A9342EB
:1013280004D07B681B68114A934218D1FB78032BC1
:1013380006D17B681B6804211846FFF7DDFC0EE028
:10134800FB78042B0BD17B681B6801211846FFF73B
:10135800D3FC7B681B6804211846FFF7CDFC00BF4F
:101368000837BD4680BD00BF0000014000040140B1
:1013780080B582B000AF78600B46FB70FB78022B1B
:1013880006D17B681B6801211846FFF7C6FC22E0DE
:101398007B681B68124A934204D07B681B68114A19
:1013A800934218D1FB78032B06D17B681B68042174
:1013B8001846FFF7B2FC0EE0FB78042B0BD17B68D4
:1013C8001B6801211846FFF7A8FC7B681B680421ED
:1013D8001846FFF7A2FC00BF0837BD4680BD00BF16
:1013E800000001400004014080B582B000AF786081
:1013F8000B46FB70FB78022B06D17B681B6810211B
:101408001846FFF779FC22E07B681B68124A934272
:1014180004D07B681B68114A934218D1FB78032BD0
:1014280006D17B681B6840211846FFF765FC0EE073
:10143800FB78042B0BD17B681B6810211846FFF73B
:101448005BFC7B681B6840211846FFF755FC00BF12
:101458000837BD4680BD00BF0000014000040140C0
:1014680080B582B000AF78600B46FB70FB78022B2A
:1014780006D17B681B6810211846FFF74EFC22E056
:101488007B681B68124A934204D07B681B68114A28
:10149800934218D1FB78032B06D17B681B68402147
:1014A8001846FFF73AFC0EE0FB78042B0BD17B685B
:1014B8001B6810211846FFF730FC7B681B68402129
:1014C8001846FFF72AFC00BF0837BD4680BD00BF9D
:1014D800000001400004014080B584B000AF78608E
:1014E8000023FB607B681B68214A934201D1214B92
:1014F800FB607B681A68FB681A60FB681B68184603
:10150800FFF7CAFBB860BB68002B06D0BB68102B7E
:1015180003D0FB6801221A7102E0FB6800221A71ED
:10152800FB681B68124A934204D0FB681B68124A86
:10153800934204D1FB681B681846FFF700FCFB6860
:101548001B680B4A934204D0FB681B680A4A934203
:1015580008D17B681B681846FFF7C2FB0346DAB25E
:10156800FB685A71FB6818461037BD4680BD00BF3E
:1015780000000140FC0100200004014080B582B059
:1015880000AF78607B681B681846FFF79DFB034631
:1015980018460837BD4680BD80B485B000AF786076
:1015A80039600023FB7397F90F3018461437BD468E
:1015B8005DF8047B7047000080B584B000AF7860A8
:1015C80039600023FB727B68002B05D1374800F097
:1015D80067FD4FF0FF3365E03B68002B05D13448C9
:1015E80000F05EFD4FF0FF335CE0324BD3E90001C1
:1015F8004FF000024FF04043FFF706FA0346002B76
:1016080006D03B68D3E900232A49C1E9002305E055
:10161800284BD3E900233968C1E90023254BD3E9D6
:1016280000014FF00002244BFFF7EEF90346002BB0
:1016380002D0224800F034FD7B685B681B68204AB2
:1016480013607B685B685B681E4A13607B685B6835
:101658009B681D4A13607B685B68DB681B4A1360E4
:101668001B4B00221A6001F08BF90023FB6000235A
:10167800FB6007E0174AFB68174942F82310FB682C
:101688000133FB60FB68012BF4D900F0C3FD03466E
:10169800FB7297F90B30002B02D1104B01221A7004
:1016A80097F90B3018461037BD4680BDF0D80008B2
:1016B80014D90008200000200000F0BF40D900081D
:1016C80024030020280300202C03002030030020DE
:1016D8003403002088020020F1290008220300209A
:1016E80080B586B000AF78600023FB7500233B61AE
:1016F8000023FB732A4B1B78DBB2002B0CBF0123A2
:101708000023DBB2BB73274B02221A707B68002BC5
:101718000BD1234B1B78DBB2002B06D1224B1B7855
:10172800DBB2002B01D1012300E00023FB7316E09C
:101738000A2006F051FD3A6942F2107313443B61E6
:101748007B68B3F1FF3F05D03A697B689A4201D9BB
:10175800012300E00023FB73002000F0A9FD104BDB
:101768001B78DBB2002B07D10F4B1B78DBB2002BA9
:1017780002D1FB7B002BDBD00A4B03221A70FB7BC8
:10178800002B01D09C23FB75BB7B002B01D001F003
:1017980025FA97F9173018461837BD4680BD00BF9F
:1017A80020030020220300202103002080B586B0FA
:1017B80000AF034687ED000BFB810023FB75012377
:1017C800BB754FF000024FF00003D7E90001FFF7A7
:1017D80025F90346002B05D02E4800F061FC4FF098
:1017E800FF3353E0FB89FF2B08D9FB89FF221946F9
:1017F800294800F055FC4FF0FF3347E0274B1B7892
:10180800DBB2032B04D0254B1B78DBB2012B02D1B2
:10181800224B04221A70FB89012B15D8FB89204A18
:1018280052F82330002B0FD001F09CFD03467B7546
:101838007B7D022B08D1FB89194A52F82330FA899B
:10184800104698470346BB75FB897B82FB8918467F
:1018580097ED000B00F040FCBB7D002B06D07B8A87
:10186800184601F057FD0346FB7503E07B8A1846CE
:1018780001F0B3FD97F91730002B05D097F9173011
:101888001946084800F00CFC97F917301846183725
:10189800BD4680BDACD90008F0D90008220300205D
:1018A8008802002030DA000880B582B000AF00233B
:1018B800FB71002000F0FCFC0346FB7197F9073030
:1018C80018460837BD4680BD80B582B000AF0023FA
:1018D800FB710B4B06221A7000F088FD0346FB7162
:1018E8000822002107480BF00BFF01F0FDF8044B1C
:1018F80000221A7097F9073018460837BD4680BD90
:10190800220300208802002080B400AF034B1B781C
:10191800DBB21846BD465DF8047B70472103002002
:1019280080B400AF034B1B78DBB21846BD465DF8A8
:10193800047B70473803002080B582B000AF4FF0B9
:1019480000024FF00003C7E90023164B1B785A1C0E
:10195800D1B2144A1170002B09D0134B01221A601E
:10196800104B1B78013BDAB20E4B1A7016E062B6C8
:1019780000BF0E4B1B68D3E90823C7E9002300F01A
:1019880029FA97ED000B0020FFF710FF72B600BF91
:10199800044B1B78013BDAB2024B1A700837BD467C
:1019A80080BD00BF94020020900200207801010849
:1019B80080B586B000AF786039604FF07C537B61AA
:1019C800584B3B610023FB73574B00221A70574B4F
:1019D80000221A7001DF0AF06FFF08F021FE06F0FE
:1019E80013FC08F0EBFF08F0D1FF08F009FF08F03E
:1019F8009FFF08F073FE4E4B1B6800221A600021FF
:101A08000020FFF7C9FD0346FB7397F90F30002B41
:101A180002D097F90F3080E000F0AAFA72B600BF42
:101A280062B600BF424B1B685A68414B1B6838338B
:101A380019461046FFF7C0FD0346FB7397F90F30B0
:101A4800002B0DD14FF0FF30FFF74AFEFFF75CFF88
:101A58000346002B04D0364B1B68012283F8402034
:101A680072B600BF97ED050A06F0C2FCFFF758FFF3
:101A78000346002B0CD1FFF747FF0346002B07D185
:101A88002B4B1B6893F84030002B01D1012300E059
:101A98000023DAB2254B1A7062B600BF62B600BFE7
:101AA8002FE0FFF701FF0346FB73FFF739FF0346FB
:101AB800002B0AD1FFF728FF0346002B05D11C4B4A
:101AC8001B6893F84030002B01D0012300E000236D
:101AD800DAB2154B1A70144B1B78DBB2002B0CBF13
:101AE80001230023DBB21A46104B1A700E4B1B78E9
:101AF800DBB2002B05D00F4B1B680E4A23F0010305
:101B080013600A4B1B78DBB2002BCAD100F094FAA1
:101B1800FFF7DAFE72B600BF002318461837BD4635
:101B280080BD00BF000058439502002096020020A7
:101B38007801010810E000E080B483B000AF78605D
:101B48007B681B6843F001027B681A6000BF0C3792
:101B5800BD465DF8047B704780B483B000AF786001
:101B68007B681B6823F001027B681A6000BF0C3792
:101B7800BD465DF8047B704780B483B000AF7860E1
:101B880039607B681B6823F004023B681A437B6852
:101B98001A6000BF0C37BD465DF8047B704780B4FF
:101BA80083B000AF78607B681B6803F004031846B5
:101BB8000C37BD465DF8047B704780B483B000AF36
:101BC800786039607B683A681A6300BF0C37BD4695
:101BD8005DF8047B704780B483B000AF78607B68A1
:101BE8005B6943F001027B685A6100BF0C37BD4650
:101BF8005DF8047B704780B483B000AF78603960CB
:101C08007B683A689A6100BF0C37BD465DF8047B73
:101C1800704780B483B000AF786039603B681A04BD
:101C28007B689A6100BF0C37BD465DF8047B70473E
:101C380080B485B000AF78607B681B689A680A4BEF
:101C48001340FB60FB68062B03D0FB68B3F5803FAD
:101C580001D1012300E00023DBB218461437BD464A
:101C68005DF8047B704700BF0700010080B584B0B1
:101C780000AF78600B46FB707B681B681846FFF75F
:101C88008EFFF860FB78002B0FD07B681B68234A17
:101C9800934204D07B681B68214A934205D17B6834
:101CA8001B6800211846FFF788FFFB68042B11D03A
:101CB8007B681B6804211846FFF75EFF7B681B687A
:101CC8001846FFF788FF7B681B68F9681846FFF716
:101CD80053FF04E07B681B681846FFF77CFF7B68AE
:101CE8001B681846FFF728FFFB78002B11D07B688C
:101CF8001B680A4A934204D07B681B68084A9342CF
:101D080007D17B681A687B685B7919461046FFF72C
:101D180054FF00BF1037BD4680BD00BF0000014022
:101D28000004014080B582B000AF78607B681B6812
:101D38001846FFF711FF00BF0837BD4680BD0000F9
:101D480080B5A6B000AF78607B6801225A60204B4E
:101D5800BB6000233B7300237B7307F1080318461D
:101D6800FFF7BAFB02467B68DA607B68DB68002114
:101D78001846FFF78CF9022387F897307B68DB68F1
:101D880097F8972011461846FFF7B6FA7B68DB6884
:101D980097F8972011461846FFF726FB7B68DB6803
:101DA8001846FFF745FF034687F8963097F89630B0
:101DB800002B05D17B68DB6800211846FFF756FF2A
:101DC8007B6801221A7200BF9837BD4680BD00BFEC
:101DD80000000140B0B586B000AF5E4B1B691846E5
:101DE800FEF740FB5C4BD3E90423FEF717FE0346DE
:101DF800002B07D0574B1B69002B03DB564BD3E94D
:101E0800002303E04FF000024FF00003C7E902236C
:101E1800504B1B691846FEF725FB04460D464E4BF2
:101E2800D3E902014FF000024C4BFEF7CDF9024610
:101E38000B4620462946FEF705FE0346002B03D035
:101E4800444B00221A6104E0424B1B690133414AAA
:101E58001361434B7B6001231C464FF000024FF097
:101E68000003D7E90201FEF7CFFD0346002B01D09E
:101E780000231C46E3B27B617B6919467868FFF74B
:101E8800BAFE7B6903F00103002B0CBF012300237A
:101E9800DBB219467868FFF7BCFE314B7B604FF028
:101EA80000024FF00003D7E90201FEF7ADFD03463B
:101EB800002B03D14FF480437B6101E000237B6159
:101EC8007B6919467868FFF796FE7B69DB4303F464
:101ED800804319467868FFF79CFE214B7B604FF0E2
:101EE80000024FF00003D7E90201FEF78DFD03461B
:101EF800002B02D180237B6101E000237B617B6999
:101F080019467868FFF777FE7B69DB4303F08003A7
:101F180019467868FFF77DFE0E4BDB681846FFF719
:101F28002DFB03460F4A13600F4B9A6A01329A62DF
:101F38009B6A1846FEF786FA0B4BD3E90C230A4C2A
:101F4800FEF7FAFA02460B46C4E9082300BF183721
:101F5800BD46B0BD9C020020000000200000F03FFC
:101F68000004024098020020B00200200000000097
:101F780080B500AF264924A3D3E90023C1E90E2385
:101F880023494FF00002234BC1E90C23204B224A7E
:101F98009A601F4B214ADA601D4B214A1A611C4B7B
:101FA800204A5A611A4B204A5A601F4B1F4A1A602E
:101FB8001E4B1F4A1A601D4B1D4A5A601B4B1C4A78
:101FC8009A601A4B1A4ADA60184B194A1A61104A71
:101FD8000F4B5B6818329A600D4A0D4B5B680832EC
:101FE8005A600B4A0A4B5B682032DA60114B0022B8
:101FF8005A60104B00221A700E48FFF7A1FE00BF6E
:1020080080BD00BFAFF300800000000000388F40A3
:10201800B00200200000E03F4FC544A3BB797CED2F
:10202800410A44FF50160D9DF80200200C030020C1
:102038007C0101089C02002080B582B000AF174BDC
:102048001B78002B25D1154B01221A70134B5B68A6
:10205800012B1ED1114B1B7A002B1AD00F4BDB68BA
:102068001846FFF75FFE0D4BDB6800211846FFF7A7
:10207800A8F80223FB71094BDB68FA791146184668
:10208800FFF776F9054BDB68FA7911461846FFF732
:10209800E7F900BF0837BD4680BD00BF9C0200209D
:1020A8000FB480B400AF00BFBD465DF8047B04B038
:1020B800704780B485B000AFF860B9607A60FB689B
:1020C800BA681A60FB6804337A681A6000BF14376C
:1020D800BD465DF8047B7047F0B58BB000AF87ED67
:1020E800020B0346FB80FB88002B77D14FF00002E0
:1020F800414BD7E90201FEF71FFA02460B46C7E932
:1021080006239FED391B97ED060B0BF085F953EC71
:10211800102B10461946FEF7BFFC03467B610023CF
:102128007B6233A3D3E90023D7E90601FEF794FCC9
:102138000346002B0ED02EA3D3E90023D7E90601CE
:10214800FEF724FB02460B4610461946FEF7A4FC90
:1021580003467B627A6A79692848FFF7AAFF284B09
:10216800D3E900014FF00002264BFEF74DFC034671
:10217800002B2ED1224BD3E900014FF000024FF083
:102188004043FEF741FC0346002B22D11C4BD3E908
:102198000001D7E90223FEF717F802460B4614465A
:1021A8001D464FF00002184BD7E90201FEF7C4F9AB
:1021B80002460B4601210E4620462946FEF72EFC14
:1021C8000346002B01D100231E46F3B21A460F4BDB
:1021D8001A700F49D7E90223C1E9002300BF2C3741
:1021E800BD46F0BDAFF30080000000000000F041E4
:1021F8000000E0FFFFFFEF4100408F404803002050
:10220800200000200000F0BF0000B03C3803002090
:102218005003002080B584B000AF0023BB600023CA
:102228007B600023FB731F494FF000024FF000034F
:10223800C1E900233A1D07F108031146184605F0C5
:102248009DFFBB687A681146184604F0BDF803463E
:10225800FB7397F90F30002B05D01348FFF720FFC9
:1022680097F90F301AE03A1D07F10803114618468E
:1022780005F09BFFBB687A681146184600F04EFFD0
:102288000346FB7397F90F30002B05D097F90F30F1
:1022980019460648FFF704FF97F90F30184610371C
:1022A800BD4680BD40030020ACDB0008D4DB00083D
:1022B80080B584B000AF0346FB710023FB73002395
:1022C800BB73002005F088FF00237B7304F04AFAF3
:1022D8000346FB7397F90F30002B0DD097F90F3099
:1022E80013F1020F08D097F90F3019463C48FFF751
:1022F800D7FE0123BB730BE07B7B002B04D197F93E
:102308000F3013F1020F01D0012300E000237B738B
:10231800BB7B002B21D100F033FF0346FB7397F9F9
:102328000F30002B0DD097F90F3013F1020F08D0A2
:1023380097F90F3019462B48FFF7B2FE0123BB73FC
:102348000BE07B7B002B04D197F90F3013F1020FC0
:1023580001D0012300E000237B73BB7B002B21D13C
:1023680004F08AF90346FB7397F90F30002B0DD060
:1023780097F90F3013F1020F08D097F90F3019466B
:102388001948FFF78DFE0123BB730BE07B7B002B05
:1023980004D197F90F3013F1020F01D0012300E0A7
:1023A80000237B73FB79002B0DD0002005F014FF70
:1023B800BB7B002B02D17B7B002B01D1012300E0EA
:1023C8000023BB7301E00123BB73BB7B002B3FF4ED
:1023D8007BAF97F90F3018461037BD4680BD00BF58
:1023E800FCDB000834DC000864DC000880B582B03F
:1023F80000AF0023BB70394B1B78DBB2002B02D037
:10240800002000F0DBFF00F0ADFF0346FB70002367
:102418007B600EE00A2005F0DFFE7A6842F2107356
:1024280013447B600120FFF743FF00F09BFF034646
:10243800FB707B682A4A934202D8FB78002BE9D1CB
:1024480000F09CFF0346BB7097F90230002B05D0C3
:1024580097F9023019462348FFF722FE04F0FCFAE8
:102468000346BB7097F90230002B05D097F902306C
:1024780019461D48FFF714FE1C4B00221A701C4B0E
:1024880000221A701B4B00221A601B4B00221A6094
:102498001A4B00221A601A4B00221A60194B0022AC
:1024A8001A6019494FF000024FF04043C1E9002378
:1024B8000A4B00221A700822002114480BF020F958
:1024C80013494FF000024FF00003C1E9002397F9C8
:1024D800023018460837BD4680BD00BF38030020CB
:1024E800FF2C31019CDC0008B8DC00082003002028
:1024F8002103002024030020280300202C030020AF
:10250800300300203403002020000020480300206E
:102518005003002080B586B000AF614B1B687B611B
:102528007B69002B00F0B8805E4B1B78DBB2002B78
:1025380004D15B4B1B68002B00F0AE805A4B1B7814
:10254800DBB2022B40F0A880584B1B78002B40F0E0
:10255800A3807B69D3E90023C7E90223544B1B7886
:10256800002B00F08A80534B1B78DBB2002B04D081
:10257800504B1B78DBB2022B01D1012300E0002372
:10258800FB714C4B1B78DBB2012B04D0494B1B78F9
:10259800DBB2022B01D1012300E00023BB71FB79E0
:1025A800002B33D0444BD3E90023D7E90201FEF7CF
:1025B80049FA0346002B0AD0404BD3E900013E4BB1
:1025C800D3E90023FEF72AFA0346002B14D13A4B2D
:1025D800D3E90023D7E90201FEF73EFA0346002BB0
:1025E80014D0364BD3E90001334BD3E90023FEF76F
:1025F8000BFA0346002B09D0314B1B68002B02D184
:10260800304B01221A70294B01221A70BB79002B1A
:1026180033D0294BD3E90023D7E90201FEF7FEF9AD
:102628000346002B0AD0254BD3E90001224BD3E9FE
:102638000023FEF707FA0346002B14D11E4BD3E9FB
:102648000023D7E90201FEF7DFF90346002B14D077
:102658001A4BD3E90001184BD3E90023FEF7FCF924
:102668000346002B09D0164B1B68002B02D1154BD3
:1026780001221A700D4B01221A700C4B1B78002B8B
:102688000CBF01230023DBB21A46094B1A700B4911
:10269800D7E90223C1E9002300BF1837BD4680BD32
:1026A8005C030020600300207C0300208B030020D3
:1026B800880300207803002068030020800300209E
:1026C800740300208A03002080B582B000AF002385
:1026D800FB719E4B1B78DBB2002B18D19C4B002260
:1026E8001A709C4B00221A709B4B1B78DBB2002B94
:1026F8002DD0964B02221A70974B00221A70974BD6
:102708001B78DBB2002B22D10123FB711FE0924B17
:1027180000221A708E4B1B78DBB2002B09D0904B2D
:1027280000221A70894B00221A70894B00221A70F5
:102738000DE08A4B1B78DBB2002B02D10123FB7121
:1027480005E0844B1B78FB71824B00221A707F4B8B
:102758001B78DBB2042B00F2D78001A252F823F0D9
:102768007D270008B7280008972700086B2800086D
:10277800F5270008784B1B78DBB2002B00F0D880D7
:10278800724B02221A70744B00221A70D0E0FB7947
:10279800002B00F0CF80734B1B68002B0DDD6F4BB7
:1027A8001B78DBB2012B08D16E4B1B681A466E4BA7
:1027B8001A60664B03221A70BCE06C4B1B68002B36
:1027C8000AD0674B01221A70684B1B68664A13606F
:1027D8005E4B04221A70ADE06548FFF761FC604B60
:1027E80000221A70594B00221A70A3E05E4B1B6836
:1027F800002B04D05C4B1B68013B5B4A13605A4BAF
:102808001B68002B40F098805A4B1B78DBB2012BD9
:1028180006D1534B00221A704C4B00221A708BE0E1
:10282800554B1B68002B0AD04D4B00221A70524B97
:102838001B684D4A1360454B01221A707CE0FB79F6
:10284800002B07D0494B1B68474A13603F4B0422B3
:102858001A7071E0424B00221A703C4B02221A7027
:102868006AE0414B1B68002B04D03F4B1B68013BBF
:102878003D4A13603C4B1B68002B5FD13B4B1B68E8
:10288800002B0AD0364B01221A70384B1B68364A87
:1028980013602E4B04221A7050E03548FFF700FCF5
:1028A8002F4B00221A70294B00221A7046E02E4B3B
:1028B8001B68002B04D02C4B1B68013B2A4A136071
:1028C800294B1B68002B3BD1FB79002B18D0274BD9
:1028D8001B68002B0AD0224B01221A70234B1B685D
:1028E800214A1360194B04221A7029E02048FFF787
:1028F800D7FB1B4B00221A70144B00221A701FE0E2
:10290800124B02221A701BE0104B1B78DBB21946DF
:102918001A48FFF7C5FB124B00221A700D4B002214
:102928001A700B4B00221A70084B00221A7008E02C
:1029380000BF06E000BF04E000BF02E000BF00E007
:1029480000BF00BF0837BD4680BD00BF7C03002024
:10295800790300208B0300202C0000207A0300203C
:102968008A030020740300208C0300202800002024
:10297800DCDC00087B0300207003002004DD000875
:1029880080B400AF10494FF000024FF00003C1E9D6
:1029980000230E4B00221A700D4B1B78DAB20D4B38
:1029A8001A700D4B00221A700C4B00221A700C4B37
:1029B80000221A600B4B00221A7000231846BD46ED
:1029C8005DF8047B704700BF800300208803002067
:1029D8007A030020890300208A0300208B0300204B
:1029E8008C0300207C03002080B584B000AF034630
:1029F800FB80FB88002B3FD1314B1B78DAB2314B7F
:102A08001B789A4214BF01230023DBB2FB732C4BC3
:102A18001B78DAB22B4B1A70FB7B002B0BD02A4B9E
:102A280000221A70294B00221A70294B00221A60C2
:102A3800284B00221A70224B1B78DBB2012B1BD1CA
:102A4800244B1B78DBB2002B04D1234B1B78DBB261
:102A5800002B08D11F4B1B78DBB2012B0CD11C4B70
:102A68001B68012B08D11A4B00221A601A4B00224E
:102A78001A70184B02221A70114B1B78DBB2012B0B
:102A880007D1164B1B889BB2FA889A4201D1FFF7EF
:102A980041FDFB88002B05D1FFF716FE104B0022E5
:102AA8001A7006E00E4B1B78002B02D00D4B1B78DA
:102AB80001E0054B1B7818461037BD4680BD00BFA6
:102AC8007A030020890300208A0300208B0300205A
:102AD8008C0300207C0300202C00002058030020D9
:102AE800910300209003002080B400AF26494FF0E6
:102AF80000024FF00003C1E90023244B00221A70A2
:102B0800234B00221A70234B00221A70224B0022FA
:102B18001A80224B00221A70214B00221A70214B76
:102B280000221A60204B00221A70204B00221A70D3
:102B38001F4B00221A601F4B00221A701E494FF0CB
:102B480000024FF00003C1E900231C4B4FF47A72D6
:102B58001A601B4B00221A601A4B00221A601A4B8B
:102B680000221A70194B01221A70194B00221A7090
:102B7800184B00221A70184B00221A7000231846AE
:102B8800BD465DF8047B7047800300208803002061
:102B98007C03002089030020580300208A030020BA
:102BA8008B0300208C030020900300209103002059
:102BB8005C03002060030020680300202800002038
:102BC8007003002074030020780300202C000020EC
:102BD800790300207A0300207B03002080B400AF33
:102BE800194B1B78DBB2002B29D1184B1B78DBB2B1
:102BF800002B0BD0164B1B78DBB2002B06D1154BE4
:102C080001221A70144B01221A7018E0104B1B781D
:102C1800DBB21A460D4B1B78DBB2002B0CBF01232D
:102C28000023DBB21340002B06D00A4B00221A7097
:102C3800094B01221A7002E0074B00221A7000BFEC
:102C4800BD465DF8047B70477A0300202C00002005
:102C580079030020900300209103002080B586B0FE
:102C680000AFF860B9607A603B600023FB7503F041
:102C7800E7FE3861FB681B68184604F0F7F8002186
:102C8800386803F055FE0246BB681A6003F040FE40
:102C980002467B681A60BB681B68002B0FD0BB68B4
:102CA8001B681946386904F0E7FB0246FB681A609E
:102CB800FB681B68002B04D1F623FB7501E0F823A1
:102CC800FB7597F9173018461837BD4680BD0000C8
:102CD80080B584B000AFF860B9607A60FA68BB6804
:102CE80013441B7819460848FFF7DAF9FB68002BEC
:102CF80002D0F86804F0BAF87B6800221A60002352
:102D080018461037BD4680BD28DD000880B584B060
:102D180000AFF860B9607A60FA68BB6813441B7842
:102D280019460648FFF7BCF97B6802221A604FF083
:102D3800FF3318461037BD4680BD00BF84DD00084C
:102D480080B485B000AF03460A46FB711346BB71D9
:102D58000523FB73FB79F02B02D90023FB7322E0D8
:102D6800FB79E32B05D9FB79F02B02D80123FB7300
:102D780019E0FB79D22B02D9FB79E22B08D9FB7930
:102D8800C02B08D1BB79002B05D0BB79022B02D808
:102D98000223FB7307E0FB79C72B04D9FB79D22BFD
:102DA80001D80323FB73FB7B18461437BD465DF837
:102DB800047B704780B58CB000AFF860B9607A606A
:102DC8003B60FB68BB62BB6A1B7887F8273000232F
:102DD80087F82F3097F82730C02B06D1BB68012B16
:102DE80003D9BB6A5B7887F82F30364B1B78002BEA
:102DF8003ED097F82F2097F8273011461846FFF74E
:102E08009FFF0346FB76002387F82E30FB7E052BB9
:102E180023D0FB7E2C4A52F823307B6100233B6190
:102E28007B69002B19D097F827207B6910469847B3
:102E380038613B69002B14BF01230023DBB287F8FC
:102E48002E3097F82E30002B07D03B695A687B68E4
:102E58001A603B699A683B681A6097F82E30002B15
:102E68002CD17B68194A1A603B68194A1A6025E018
:102E780097F82730FF2B1BD1134B1B683B627B68ED
:102E880000221A603B6800221A603B6A002B15D0AA
:102E98003B6AFF209847F861FB69002B0ED0FB695D
:102EA8005A687B681A60FB699A683B681A6005E093
:102EB8007B68084A1A603B6800221A6000BF3037F6
:102EC800BD4680BD9303002098030020152D0008FF
:102ED800A52F0008D92C000880B483B000AF0346A2
:102EE800FB71044AFB79137000BF0C37BD465DF8CF
:102EF800047B70479303002080B400AF034B1B781A
:102F08001846BD465DF8047B704700BF9403002057
:102F180080B483B000AF0346FB71064B1A78FB7987
:102F28001343DAB2034B1A7000BF0C37BD465DF885
:102F3800047B70479403002080B483B000AF03463D
:102F4800FB7197F90730DB435AB2074B1B785BB22A
:102F580013405BB2DAB2044B1A7000BF0C37BD469F
:102F68005DF8047B704700BF9403002080B400AF75
:102F7800034B1B781846BD465DF8047B704700BFBD
:102F88009503002080B400AF034B1B881846BD464C
:102F98005DF8047B704700BF9603002080B586B0BB
:102FA80000AF0346B9607A60FB7397F90F30002BC6
:102FB80005D1BB683B613B69FF221A7070E0BB68B2
:102FC8007B617B69FE221A7097F90F300F330E2B45
:102FD8005CD801A252F823F08D3000088530000833
:102FE8007D300008753000086D3000085D3000083D
:102FF80065300008553000084D300008453000089D
:103008003D300008253000081D3000082D3000082C
:10301800353000087B6930225A7041E07B692922EB
:103028005A703DE07B6922225A7039E07B69202280
:103038005A7035E07B6900225A7031E07B6923229F
:103048005A702DE07B6921225A7029E07B69112290
:103058005A7025E07B6927225A7021E07B692A2271
:103068005A701DE07B6910225A7019E07B6924228E
:103078005A7015E07B6928225A7011E07B69262274
:103088005A700DE07B6931225A7009E097F90F30C8
:1030980019460548FFF704F87B6920225A70FFE7B4
:1030A80000BF1837BD4680BDB4DD000880B487B0C6
:1030B80000AF0346B9607A60FB7300237B61BB688D
:1030C800002B23D000233B6100233B6117E03A69C2
:1030D80013465B0013449B001A46BB6813441B78D5
:1030E800FA7B9A4208D13A6913465B0013449B0065
:1030F8001A46BB6813447B613B6901333B613A69FB
:103108007B689A4202D27B69002BE0D07B69184623
:103118001C37BD465DF8047B7047000080B582B05F
:1031280000AF78603960134B1B78002B05D012482C
:10313800FEF7B6FF6FF00B0318E000F07BFC00F021
:1031480085FC03460D4A136002F042FA02F05CFA6D
:1031580003460A4A936003F035F803F03DF8034646
:10316800064A5360034B01221A7000231846083799
:10317800BD4680BD92030020F8DD000898030020BA
:1031880080B58CB002AF002387F82730002387F87A
:1031980026300023FB610023BB6100237B610023F1
:1031A8003B610023FB6000233B620023BB600023DC
:1031B8007B60554B1B78002B05D15448FEF770FFF8
:1031C8006FF008039BE007F1140007F1180207F1FC
:1031D8001C0107F1100300930346002003F002FBD3
:1031E800034687F8273097F92730002B09D097F93D
:1031F800273013F1040F04D097F9273013F1050F86
:1032080071D1FB69002B05D07A693B691A44BB6907
:103218009A4203D9F82387F8273067E0FA697B696F
:1032280013443B6239693B1D07F10802386AFFF70E
:10323800C1FDBB68002B09D13B6A1B78194634488D
:10324800FEF72EFFF42387F827304FE0BB68F869B4
:10325800796907F10C029847034687F826307B689E
:10326800002B3DD0FB68002B3AD0002387F827308D
:103278003A69FB689A420BD2FB6807F1140207F11E
:10328800180107F11C00FFF7E9FC034687F827300F
:103298003B691A460021386A0AF032FA97F9273052
:1032A800002B1DD1FA697B6913443B627B68FA687D
:1032B80097F92600396A9847F969B8697B69FA6805
:1032C8000192009303460A464FF6FF71012003F06E
:1032D80031F9034687F8273097F92730002B04D1B6
:1032E80097F927300BE000BF00E000BFFB69002B17
:1032F80003D0FB69184603F0B9FD97F92730184643
:103308002837BD4680BD00BF9203002028DE000894
:1033180050DE000880B584B000AF0346FB80002370
:10332800FB730023BB600D4B1B78002B05D10C48A9
:10333800FEF7B6FE6FF008030CE004F0B7FFB860C4
:10334800FB880022B968184602F05CFB0346FB7351
:1033580097F90F3018461037BD4680BD92030020FC
:1033680080DE000880B400AF034B1B781846BD46CA
:103378005DF8047B704700BF9303002080B500AF61
:103388000B4B1B78002B02D10A48FEF789FE02F08E
:103398003FFF02F0E1FD00F075FB10220021064816
:1033A8000AF0AEF9024B00221A700023184680BDBD
:1033B8009203002078DF00089803002080B584B0CD
:1033C80000AF7860786802F0A1FB0346FB7397F9B9
:1033D8000F3018461037BD4680BD80B584B000AFA9
:1033E8000346FB800123FB73FA7BFB880021184608
:1033F80002F008FB0346BB7397F90E3018461037E6
:10340800BD4680BD80B584B000AF0346FB71012383
:10341800FB6003F0CCFAB860FA79B968FB68B1FBD5
:10342800F3F39A4234BF01230023DBB21846103766
:10343800BD4680BD80B584B000AF78600B46FB7098
:1034480000F02AFBF860F9680648FEF729FE064BEB
:103458001B781A46F9687868FDF73EFB00BF1037FD
:10346800BD4680BDA0DF0008B003002080B588B04D
:1034780000AFF860B9607A600023FB77FA68BB6830
:103488001344BB61BB697B610023FB7402F096FCAB
:103498000346FB74FB7C002B08D11A48FEF700FE9C
:1034A8007B6802221A606FF00A0327E07B695B7869
:1034B800002B03D07B695B78012B01D1012300E04D
:1034C8000023FB74FB7C002B0BD17B695B781946CE
:1034D8000D48FEF7E5FD7B6802221A606FF00103D4
:1034E8000CE00A48FEF7DCFD0120FFF7F5FC00239D
:1034F800FB777B6808221A6097F91F301846203737
:10350800BD4680BDB8DF000804E0000828E00008D8
:1035180080B586B000AF0346B9607A60FB7397F94F
:103528000F30002B47D1BB687B61082200217869E6
:103538000AF0E6F87B69FF221A7005227B695A7047
:1035480000227B699A7003F032FA0346DAB27B698B
:10355800DA7003F025FA03469AB27B699A807B6990
:1035680001229A717B690122DA717B695B781946BD
:103578001648FEF795FD7B699B7819461448FEF7B7
:103588008FFD7B69DB7819461248FEF789FD7B6958
:103598009B889BB219461048FEF782FD7B699B7990
:1035A80019460E48FEF77CFD7B69DB7919460C4805
:1035B800FEF776FD06E097F90F307A68B968184685
:1035C800FFF7ECFC00BF1837BD4680BD50E000088F
:1035D8006CE0000888E00008A4E00008C0E00008EB
:1035E800DCE0000880B586B000AFF860B9607A60AA
:1035F8000123FB7502F0E2FB0346FB75FB7D002B04
:1036080008D10B48FEF74CFD7B6802221A606FF068
:103618000A0309E00748FEF743FD0020FFF75CFCBA
:103628007B6801221A60002318461837BD4680BD02
:10363800F8E0000848E1000880B584B000AFF86001
:10364800B9607A600548FEF72BFD7B6806221A6090
:10365800002318461037BD4680BD00BF78E100083A
:1036680080B586B000AF0346B9607A60FB73BB686B
:103678007B610622002178690AF042F87B69FF2203
:103688001A70FFF739FC03461A467B695A70FFF730
:103698006DFC03461A467B699A70FFF773FC034674
:1036A8001A467B699A807B695B7819460948FEF758
:1036B800F7FC7B699B7819460748FEF7F1FC7B69A4
:1036C8009B889BB219460548FEF7EAFC00BF1837ED
:1036D800BD4680BD84E10008A8E10008CCE10008EF
:1036E80080B586B000AFF860B9607A600023FB75DA
:1036F8000B48FEF7D5FC02F04BFB0346FB75FB7D40
:10370800002B03D003F07CF902F051FB7B68022206
:103718001A606FF0040318461837BD4680BD00BF15
:10372800F0E1000880B588B000AFF860B9607A6051
:103738000023FB77FA68BB681344BB61BB697B61F4
:103748000023FB747B695A687B69DB78194610464D
:1037580000F0AEF90346FB74FB7C002B08D10D4842
:10376800FEF79EFC7B6802221A606FF00B030CE0E8
:103778007B6959687B69DB781A460748FEF790FC35
:103788007B6801221A6097F91F3018462037BD461A
:1037980080BD00BFF8E1000814E2000880B58AB0D7
:1037A80000AFF860B9607A60002387F82730FA68BC
:1037B800BB6813443B623B6AFB610023FB7600F065
:1037C8006BF97861FB695B781846FFF71BFE0346C7
:1037D800FB76FB7E002B0BD1FB695B781946124800
:1037E800FEF75EFC7B6802221A606FF0010316E0A8
:1037F8007B69002B08D10D48FEF752FC7B6802223A
:103808001A606FF00B030AE0FB695A78084B1A70CC
:10381800074B1B785A1C7B681A6097F927301846A3
:103828002837BD4680BD00BF48E2000878E200089E
:10383800B003002080B588B000AF0346B9607A6055
:10384800FB7397F90F30002B30D100F025F9F861A0
:10385800BB68BB6101220021B86909F051FFBB694F
:10386800FF221A70FB69002B1CD0164B1B78013302
:103878007A689A4216D1BB6801337B610023FB74D6
:103888001148FEF70DFCFB7C19467869FFF7D2FD5D
:103898000C4B1B78184600F029F90A4B00221A70C5
:1038A80000BF0AE00948FEF7FBFB06E097F90F3076
:1038B8007A68B9681846FFF771FB00BF2037BD4624
:1038C80080BD00BFB003002094E20008A0E2000819
:1038D80080B588B000AFF860B9607A600023FB77E4
:1038E800FA68BB681344BB61BB697B610023FB7446
:1038F8007B695B781846FFF785FD0346FB74FB7C04
:10390800002B0BD17B695B7819461748FEF7C8FB7B
:103918007B6802221A606FF0010320E07B695A6815
:103928007B69DB781946104600F0C2F80346FB7441
:10393800FB7C002B08D10D48FEF7B2FB7B68022206
:103948001A606FF00B030AE07B695A78084B1A700B
:10395800074B1B785A1C7B681A6097F91F3018466A
:103968002037BD4680BD00BFC0E20008F4E2000871
:10397800B003002080B588B000AF0346B9607A6014
:10398800FB7397F90F30002B30D100F085F8F86100
:10399800BB68BB6101220021B86909F0B1FEBB69AF
:1039A800FF221A70FB69002B1CD0164B1B780133C1
:1039B8007A689A4216D1BB6801337B610023FB7495
:1039C8001148FEF76DFBFB7C19467869FFF732FD5D
:1039D8000C4B1B78184600F089F80A4B00221A7025
:1039E80000BF0AE00948FEF75BFB06E097F90F30D5
:1039F8007A68B9681846FFF7D1FA00BF2037BD4684
:103A080080BD00BFB003002014E3000824E30008D1
:103A180080B582B000AF0346FB71FB7907220449E9
:103A28001846FFF743FB034618460837BD4680BDD6
:103A38008001010880B500AF034800F013F800F0DA
:103A480069F800BF80BD00BF193A000880B400AF14
:103A5800034B1B681846BD465DF8047B704700BFE2
:103A6800B403002080B483B000AF7860044A7B6858
:103A7800136000BF0C37BD465DF8047B704700BF7C
:103A8800B403002080B500AF00F04BF80020FFF72A
:103A9800E9FF00BF80BD000080B400AF034B1B6886
:103AA8001846BD465DF8047B704700BFA803002098
:103AB80080B483B000AF78600B46FB70FB78002BB6
:103AC80004D17B68002B01D1002306E0064A7B68FD
:103AD8001360054AFB781371012318460C37BD465D
:103AE8005DF8047B704700BFA803002080B483B052
:103AF80000AF0346FB71064B1A68FB791344044A6E
:103B0800136000BF0C37BD465DF8047B704700BFEB
:103B1800A803002080B400AF00BFBD465DF8047B59
:103B2800704780B400AF00BFBD465DF8047B7047A6
:103B380080B584B000AF0346FB800023FB7305F01B
:103B48001CFF03460B4A13600B4B1B68002B0CBF72
:103B580001230023DBB2FB73FB7B002B04D1054B55
:103B68001B68184605F01AFFFB7B18461037BD4640
:103B780080BD00BFC4030020C003002080B582B010
:103B880000AF0346FB80044B1B68184605F006FF90
:103B980000BF0837BD4680BDC403002080B582B091
:103BA80000AF0346FB8005F0E8FE0346074A1360B2
:103BB800074B1B680133064A1360044B1B68184601
:103BC80005F0ECFE00BF0837BD4680BDC4030020E9
:103BD800C003002080B582B000AF0346FB8005F02B
:103BE800CCFE0346074A1360074B1B68013B064A95
:103BF8001360044B1B68184605F0D0FE00BF083759
:103C0800BD4680BDC4030020C003002080B483B03B
:103C180000AF0346FB80104B1968FA8813465B0017
:103C28001344DB000B445B79022B0AD00A4B19685A
:103C3800FA8813465B001344DB000B445B79032BC3
:103C480001D1012300E00023DBB218460C37BD4642
:103C58005DF8047B704700BFB803002080B582B0D0
:103C680000AF0023FB710023BB800023BB8008E06A
:103C7800BB881846FFF7CAFF0346FB71BB880133B0
:103C8800BB80094B9B88BA889A4202D2FB79002BE9
:103C9800EED0FB79002B0CBF01230023DBB21846C2
:103CA8000837BD4680BD00BFB803002080B485B08A
:103CB80000AF0346FB800B467B7113463B71284BD4
:103CC8001B68002B42D0264B9B88FA889A423DD22B
:103CD800234B1968FA8813465B001344DB000B4436
:103CE8001B68002B32D01E4B1968FA8813465B00FC
:103CF8001344DB000B441B797A799A4226D2184B7D
:103D08001968FA8813465B001344DB000B441968F2
:103D18007A791346DB009B1A9B000B441B68002B27
:103D280014D00F4B1968FA8813465B001344DB0064
:103D38000B4419687A791346DB009B1A9B000B44E5
:103D48001B793A799A4201D2012300E00023FB73E0
:103D5800FB7B18461437BD465DF8047B704700BFEF
:103D6800B803002080B485B000AF03463A60FB7109
:103D78000B46BB710023FB73BB79BB81FB79FF2B1F
:103D880004D1BB89FF2B01D80123FB73FB7B1846A9
:103D98001437BD465DF8047B704780B483B000AF2C
:103DA8000346FB71FB7923F01003002B0CBF0123A2
:103DB8000023DBB218460C37BD465DF8047B70471C
:103DC80080B485B000AF0346FB710023FB73FB7919
:103DD800002B05D0FB79012B02D0FB79022B01D1F6
:103DE8000123FB73FB7B18461437BD465DF8047B43
:103DF800704780B485B000AF0346FB710023FB73A6
:103E0800FB79002B05D0FB79012B02D0FB79022B23
:103E180001D10123FB73FB7B18461437BD465DF8BF
:103E2800047B704780B400AF01231846BD465DF897
:103E3800047B704780B485B000AF0346FB80164B07
:103E48001968FA8813465B001344DB000B441B7B9C
:103E5800022B0ED1104B1968FA8813465B001344E5
:103E6800DB000B44DA880D4B1B889A4201D00123F2
:103E780000E00023FB73FB7B002B04D0FB88002BA6
:103E880001D1012300E00023FB73FB7B18461437A4
:103E9800BD465DF8047B7047B80300203800002059
:103EA80080B485B000AF78600B46FB707B681968FA
:103EB800FA781346DB009B1A9B000B44BB60BB6877
:103EC8009B687A68D28902FB03F30133FB60FB78B5
:103ED800002B08D17B681B7A03F01003002B02D05B
:103EE800FB680433FB60FB6818461437BD465DF871
:103EF800047B704780B586B000AF78600023BB7440
:103F080000237B610023FB740023FB7415E0FB7C1A
:103F180019467868FFF7C4FFF8600023BB600121E9
:103F2800F86802F005FDB860BA687B699A4201D961
:103F3800BB687B61FB7C0133FB747B681B79FA7C73
:103F48009A42E4D37B681B791A4613465B001344F4
:103F580019467B6814331A46786903F03FF803461C
:103F6800BB7497F91230002B03D07B684FF0FF32F7
:103F78005A6197F9123018461837BD4680BD80B58A
:103F880082B000AF78607B685B69B3F1FF3F04D013
:103F98007B685B69184603F033F97B684FF0FF32A2
:103FA8005A6100BF0837BD4680BD000080B58AB0A1
:103FB80000AFF860B9607A60002387F82730FA68A4
:103FC800BB6813443B623B6AFB61FB699A78DB7808
:103FD8001B0213437B83FB691B797B76FB695B7947
:103FE8003B760023FB753A7E797E7B8B1846FFF77C
:103FF8005DFE0346FB75FB7D002B0BD1798B7A7E2A
:104008003B7E1D48FEF74CF87B6802221A606FF071
:1040180001032CE07B8B1846FFF7F8FD0346002BC5
:104028000CBF01230023DBB2FB75FB7D002B0AD1FB
:104038007B8B19461148FEF733F87B6802221A6019
:104048006FF0070313E0798B7A7E3B7E0C48FEF70E
:1040580027F80C4A7B8B13800A4A7B7E9370094AA7
:104068003B7ED3707B6801221A6097F92730184687
:104078002837BD4680BD00BF4CE3000890E3000828
:10408800C0E3000834000020F0B58FB004AFF8603A
:10409800B9607A60002387F82730FA68BB68134450
:1040A8003B623B6AFB61584B1B887B83564B9B7872
:1040B8007B76554BDB783B7600237B610023FB74D2
:1040C8003A7E797E7B8B1846FFF7F0FD0346FB743A
:1040D800FB7C002B0BD1798B7A7E3B7E4B48FDF71E
:1040E800DFFF7B6802221A606FF0050387E07B8B95
:1040F8001846FFF78BFD0346002B0CBF0123002356
:10410800DBB2FB74FB7C002B0AD17B8B1946404841
:10411800FDF7C6FF7B6802221A606FF007036EE0A6
:10412800FB695878FB699978FB695B681A46FFF761
:1041380019FE0346FB74FB7C002B1BD1798B7A7E1E
:10414800387EFB695B781C46FB699B781D46FB69DA
:10415800DB781E46FB695B68039302960195009421
:1041680003462C48FDF79CFF7B6802221A606FF01B
:10417800010344E0798B7A7E387EFB695B781C46C4
:10418800FB699B781D46FB69DB781E46FB695B680B
:10419800039302960195009403461F48FDF780FF9C
:1041A8001E4B19687A8B13465B001344DB000B44E3
:1041B80019687A7E1346DB009B1A9B000B441A6829
:1041C8003B7EDB0013447B61FB695A787B691A707C
:1041D800FB699A787B695A70FB69DA787B699A700F
:1041E800FB695A687B695A60074BDB780133DAB29E
:1041F800054BDA707B6801221A6097F92730184658
:104208002C37BD46F0BD00BF3400002010E4000884
:104218006CE400089CE4000814E50008B8030020DA
:1042280090B58DB002AFF860B9607A60002387F866
:104238002730FA68BB6813443B623B6AFB61002382
:10424800BB610023FB75614B1B68002B08D0FB6921
:104258005B889AB25D4B9B889A4201D2012300E0A9
:104268000023FB75FB7D002B0CD1FB695B889BB29F
:1042780019465748FDF714FF7B6802221A606FF051
:1042880001039FE0514B1A68FB695B889BB2194692
:104298000B465B000B44DB001344BB61FB695B8886
:1042A8009BB21846FFF7B2FC0346002B0CBF012354
:1042B8000023DBB2FB75FB7D002B0CD1FB695B880F
:1042C8009BB219464348FDF7EBFE7B6802221A6051
:1042D8006FF0070376E0FB699B889BB27F2B94BF46
:1042E80001230023DBB2FB75FB7D002B0CD1FB699E
:1042F8009B889BB219463848FDF7D2FE7B6802229C
:104308001A606FF001035DE0FB69DB79002B0CBFDD
:1043180001230023DBB2FB75FB7D002B08D12F485E
:10432800FDF7BEFE7B6802221A606FF0010349E0C8
:10433800FB695B781846FFF730FD0346FB75FB7D8C
:10434800002B0BD1FB695B7819462548FDF7A8FEC1
:104358007B6802221A606FF0090333E0FB695B880F
:104368009BB21946FB695B781846FB699B889BB230
:104378001C46FB699B791A46FB69DB79019300921D
:10438800234602461748FDF78BFEFB695A78BB693E
:104398001A72FB699B889AB2BB69DA80FB699A79C1
:1043A800BB695A72FB69DA79BB699A72BB695B7A35
:1043B800012B02D8BB6901225A727B6801221A605C
:1043C80097F9273018462C37BD4690BDB803002012
:1043D80084E50008B4E50008E8E5000818E60008E8
:1043E80054E6000888E6000890B58FB000AFF86082
:1043F800B9607A60002387F82630FA68BB681344EE
:104408003B623B6AFB610023BB61FB695B889BB233
:104418007B61002387F837300023FB748A4B1B68C5
:10442800002B07D0884B9B881A467B69934201DA98
:10443800012300E0002387F8373097F83730002B46
:1044480009D179698148FDF72BFE7B6802221A6041
:104458006FF00103B2E17E4A7B6913607A4B1968F9
:104468007A6913465B001344DB000B44BB61FB69AC
:104478005B781846FFF7A4FC034687F8373097F8AF
:104488003730002B0BD1FB695B7819467148FDF773
:1044980007FE7B6802221A606FF009038EE1FFF7BE
:1044A800C1FC0346002B5AD0BB695B79002B56D15F
:1044B800BB691B7A03F00203002B21D0BB691B6880
:1044C800002B09D0604BDB791A46BB691B79134472
:1044D800802B01DC012300E0002387F8373097F8B0
:1044E8003730002B2DD0584BDA79BB69DA72564B2E
:1044F800DA79BB691B791344DAB2534BDA7120E0DD
:10450800BB691B68002B09D04F4B9B791A46BB69C6
:104518001B791344FC2B01DC012300E0002387F8FE
:10452800373097F83730002B0BD0474B9A79BB6957
:10453800DA72454B9A79BB691B791344DAB2424B5C
:104548009A7197F83730002B09D179694248FDF7FD
:10455800A7FD7B6802221A606FF008032EE1FB6951
:104568005B78012B04D0FB695B78022B40F09080CC
:1045780000233B63012387F8373000233B637CE04B
:104588000023FB620023BB620023FB6213E0BB69CC
:1045980019683A6B1346DB009B1A9B000B441A6898
:1045A800FB6ADB0013445B781A46BB6A1344BB62A0
:1045B800FB6A0133FB62BB6919683A6B1346DB007F
:1045C8009B1A9B000B441B791A46FB6A9342DEDB5D
:1045D8003B6B002B17D1BB691B7A03F01003002B30
:1045E80011D0BB69DB891A46BB6A02FB03F35C1D69
:1045F80002F0D6F903469C4294BF01230023DBB2A4
:1046080087F8373010E0BB69DB891A46BB6A02FBC2
:1046180003F35C1C02F0C4F903469C4294BF0123D7
:104628000023DBB287F8373097F83730002B17D1E3
:104638003A6B79690948FDF733FD7B6802221A60F5
:104648006FF00803BAE000BFB8030020ECE60008EA
:10465800300000201CE700084CE7000888E7000845
:10466800BB6919683A6B1346DB009B1A9B000B4425
:10467800BA6A9A603B6B01333B63BB691B791A4684
:104688003B6B934204DA97F83730002B7FF478AF0E
:10469800BB69DB881846FFF74BFA0346FB74FB7CC3
:1046A800002B7DD0002387F82730FB695B78022B2D
:1046B80053D0022B5FDC002B02D0012B13D05AE021
:1046C80079694048FDF7ECFCBB6901225A71FFF794
:1046D800C5FA0346002B4BD00120FEF7FDFB402016
:1046E800FEF72AFC44E079693748FDF7D9FCBB6935
:1046F8005B69B3F1FF3F22D1BB69DA88334B1B8872
:104708009A420CD1314B5868304B9968BB691433C5
:104718001A4602F021FE034687F827300FE07B692E
:10472800002B0CDCBB69DB88002B08D1B869FFF7CC
:10473800E1FB034687F82730BB6900221A8297F904
:104748002730002B16D1BB6903225A710220FEF7CD
:10475800C3FB4020FEF7DCFB0CE0FB695B889BB2E7
:1047680019461B48FDF79CFCBB6902225A7102E0FE
:1047780000BF00E000BFBB69DB881846FFF7FEF901
:104788007B6802221A6097F92730002B08D011485D
:10479800FDF786FC7B6802221A606FF002030DE0C9
:1047A800FB7C002B08D10C48FDF77AFC7B680222C1
:1047B8001A606FF00A0301E097F9263018463C3773
:1047C800BD4690BDECE7000818E800083800002056
:1047D80044E8000870E80008BCE8000880B586B026
:1047E80000AF0346B9607A60FB7397F90F30002B6E
:1047F80012D1BB687B617B69FF221A700C4B1A6867
:104808000C4B1B6819460B465B000B44DB0013443A
:10481800DA7A7B695A7006E097F90F307A68B968D6
:104828001846FEF7BBFB00BF1837BD4680BD00BF6A
:10483800B80300203000002090B58BB000AFF860BE
:10484800B9607A600023FB77FA68BB681344BB61E0
:10485800BB697B610023FB740023BB7400237B626C
:104868007B695B781846FFF7C4FA0346FB74FB7C48
:10487800002B0BD17B695B781946A648FDF710FC25
:104888007B6802221A606FF0090362E1A24B1B6881
:10489800002B05D0A04B9B88002B01D0012300E002
:1048A8000023FB74FB7C002B08D19C48FDF7F8FB28
:1048B8007B6802221A606FF001034AE101F068FA8E
:1048C8000346BB74BB7C002B00F03581002387F8BE
:1048D800233000233B847B695B78022B00F0D58072
:1048E800022B00F30681002B02D0012B2CD000E113
:1048F80000237B621BE0884B19687A6A13465B00C9
:104908001344DB000B445B79002B0DD0796A844893
:10491800FDF7C6FB804B19687A6A13465B0013449F
:10492800DB000B4401225A717B6A01337B627A4BAC
:104938009B881A467B6A9342DDDB0120FEF7CCFA9E
:104948004020FEF7F9FAD4E000237B6263E0724B63
:1049580019687A6A13465B001344DB000B445B79E1
:10496800022B55D16C4B19687A6A13465B001344C5
:10497800DB000B445B69B3F1FF3F49D1664B196813
:104988007A6A13465B001344DB000B44DA88654BF4
:104998001B889A4214D1634B5868624B9C685E4BE3
:1049A80019687A6A13465B001344DB000B4414331E
:1049B8001A46214602F0D0FC034687F8233027E048
:1049C8007B6A002B24DC544B19687A6A13465B0017
:1049D8001344DB000B44DB88002B19D14E4B1968BC
:1049E8007A6A13465B001344DB000B441846FFF752
:1049F80081FA034687F82330474B19687A6A1346C9
:104A08005B001344DB000B4400221A827B6A3B8460
:104A18007B6A01337B62404B9B881A467B6A9342D0
:104A280003DA97F92330002B91D097F92330002B24
:104A38005CD100237B6221E0374B19687A6A134600
:104A48005B001344DB000B445B79022B13D1796ABA
:104A58003548FDF725FB304B19687A6A13465B0029
:104A68001344DB000B4403225A710220FEF734FA88
:104A78004020FEF74DFA7B6A01337B62264B9B8808
:104A88001A467B6A9342D7DB30E000237B621BE047
:104A9800214B19687A6A13465B001344DB000B4408
:104AA8005B79022B0DD1796A1D48FDF7F9FA1A4B8B
:104AB80019687A6A13465B001344DB000B44012231
:104AC8005A717B6A01337B62134B9B881A467B6A57
:104AD8009342DDDBFFF7C2F80346002B08D0012024
:104AE800FEF7FAF94020FEF727FA01E000BF00E0E0
:104AF80000BF01F05CF997F92330002B18D03B8CEC
:104B080019460A48FDF7CCFA7B6802221A606FF052
:104B180002031EE004E90008B803002034E9000895
:104B280060E900083800002088E90008B0E90008BA
:104B38007B6801221A60BB7C002B08D10748FDF76F
:104B4800AFFA7B6802221A606FF00A0301E097F956
:104B58001F3018462C37BD4690BD00BFFCE9000841
:104B680080B584B000AFF860B9607A600548FDF799
:104B780097FA7B6808221A60002318461037BD464A
:104B880080BD00BF40EA000880B586B000AF03468C
:104B9800B9607A60FB73BB687B6108220021786981
:104BA80008F0AEFD7B69FF221A707B6911225A70EA
:104BB8007B694FF0FF329A704FF0FF32DA707B69F1
:104BC800002262F07F021A7100225A717B6900226A
:104BD8009A717B690022DA717B695B781946104803
:104BE800FDF75EFA7B695B889BB219460D48FDF7B5
:104BF80057FA7B699B889BB219460B48FDF750FA18
:104C08007B699B7919460948FDF74AFA7B69DB7984
:104C180019460748FDF744FA00BF1837BD4680BD5E
:104C280058EA000874EA000890EA0008ACEA0008AC
:104C3800C8EA000880B584B000AFF860B9607A604F
:104C48000548FDF72DFA7B6808221A6000231846EC
:104C58001037BD4680BD00BFE4EA000880B586B0C5
:104C680000AF0346B9607A60FB73BB687B610822BA
:104C78000021786908F044FD7B69FF221A707B697E
:104C880001225A707B69FF229A707B690122DA70CF
:104C98007B69FF221A717B6934225A717B69002271
:104CA80042F001029A710022DA717B695B78194639
:104CB8001248FDF7F5F97B699B7819461048FDF70E
:104CC800EFF97B69DB7819460E48FDF7E9F97B694E
:104CD8001B7919460C48FDF7E3F97B695B7919469E
:104CE8000A48FDF7DDF97B69DB889BB2194608485D
:104CF800FDF7D6F900BF1837BD4680BD00EB0008A8
:104D080028EB000850EB000878EB0008A0EB00083F
:104D1800CCEB000880B586B000AFF860B9607A6067
:104D28000023FB750023BB750F48FDF7B9F901F0A7
:104D380045F80346BB75BB7D002B08D10B48FDF732
:104D4800AFF97B6802221A606FF00A0307E00120BE
:104D5800FEF7C2F87B6801221A6097F917301846E7
:104D68001837BD4680BD00BFF4EB000824EC0008EE
:104D780080B58CB000AFF860B9607A60002387F81E
:104D88002B30FA68BB6813447B627B6A3B623B6AE0
:104D98005B889BB2FB610023BB610023FB7500238A
:104DA800FB62514B1B68002B0CBF01230023DBB2B5
:104DB800FB75FB7D002B08D14C48FDF771F97B682A
:104DC80002221A606FF003038AE0FB69002B05DDFD
:104DD800FB69B3F5803F01DA012300E00023FB758E
:104DE800FB7D002B09D1F9694148FDF759F97B682A
:104DF80002221A606FF0010372E0FA6913465B0041
:104E08001344DB001A46F9693A48FDF749F9FA698B
:104E180013465B001344DB00184601F0B3FFB8618A
:104E2800BB69002B09D1F9693348FDF739F97B686B
:104E380002221A606FF0020352E0FA6913465B001F
:104E48001344DB001A460021B86908F059FC264AC9
:104E5800BB691360FB699AB2234B9A800023FB62FB
:104E680035E0FA6A13465B001344DB001A46BB6957
:104E780013444FF0FF325A61FA6A13465B00134439
:104E8800DB001A46BB69134400221A73FA6A1346F8
:104E98005B001344DB001A46BB69134401225A73B2
:104EA800FA6A13465B001344DB001A46BB691344D5
:104EB8000122DA81FA6A13465B001344DB001A46C2
:104EC800BB69134400221A82FB6A0133FB62FA6A47
:104ED800FB699A42C5DB7B6801221A6097F92B307F
:104EE80018463037BD4680BDB803002060EC000886
:104EF800A4EC0008D4EC000800ED000890B589B0D7
:104F080000AFF860B9607A600023FB77FA68BB6885
:104F18001344BB61BB697B617B699A78DB781B02B0
:104F280013437B827B691B797B7400233B745C4B46
:104F38001B68002B14BF01230023DBB23B743B7CAE
:104F4800002B08D15748FDF7ABF87B6802221A609E
:104F58006FF003039FE0524B9B887A8A9A4234BFD2
:104F680001230023DBB23B743B7C002B0AD17B8AF4
:104F780019464D48FDF794F87B6802221A606FF0D5
:104F8800010388E07B7C002B04D07B7CFC2B01D8C0
:104F9800012300E000233B743B7C002B0BD17B7C7E
:104FA8007A8A19464148FDF77BF87B6802221A6025
:104FB8006FF001036FE03A4B19687A8A13465B0079
:104FC8001344DB000B441B68002B0CBF0123002398
:104FD800DBB23B743B7C002B08D13548FDF760F809
:104FE8007B6802221A606FF0030354E0797C788AA8
:104FF8007A7C1346DB009B1A9B0002462D48FDF77E
:105008004FF87A7C1346DB009B1A9B001846244B0A
:1050180019687A8A13465B001344DB00CC1801F048
:10502800B1FE034623601E4B19687A8A13465B005B
:105038001344DB000B441B68002B0BD17B7C7A8A62
:1050480019461D48FDF72CF87B6802221A606FF09C
:10505800020320E0124B19687A8A13465B00134456
:10506800DB000B4418687A7C1346DB009B1A9B0014
:105078001A46002108F044FB094B19687A8A13463E
:105088005B001344DB000B447A7C1A717B680122B5
:105098001A6097F91F3018462437BD4690BD00BFE7
:1050A800B803002038ED000878ED0008A4ED0008EA
:1050B800E0ED00081CEE000854EE000890B58DB035
:1050C80002AFF860B9607A60002387F82730FA6881
:1050D800BB6813443B623B6AFB61FB699A78DB78E7
:1050E8001B0213437B83FB691B797B76FB695B7926
:1050F8003B760023FB75844B1B68002B14BF0123F0
:105108000023DBB2FB75FB7D002B08D17F48FCF741
:10511800C7FF7B6802221A606FF00303F0E07A4B46
:105128009B887A8B9A4234BF01230023DBB2FB753C
:10513800FB7D002B0AD17B8B19467548FCF7B0FF25
:105148007B6802221A606FF00103D9E06E4B196880
:105158007A8B13465B001344DB000B441B68002B5F
:1051680014BF01230023DBB2FB75FB7D002B08D1A4
:105178006848FCF795FF7B6802221A606FF003030A
:10518800BEE0614B19687A8B13465B001344DB0061
:105198000B441B797A7E9A4234BF01230023DBB289
:1051A800FB75FB7D002B0AD17B7E19465A48FCF71C
:1051B80077FF7B6802221A606FF00103A0E0524B70
:1051C80019687A8B13465B001344DB000B4419689B
:1051D8007A7E1346DB009B1A9B000B441B68002B4E
:1051E8000CBF01230023DBB2FB75FB7D002B08D12C
:1051F8004A48FCF755FF7B6802221A606FF00303E8
:105208007EE03B7E002B14BF01230023DBB2FB753D
:10521800FB7D002B0BD1397E7A7E7B8B4048FCF7D7
:105228003FFF7B6802221A606FF0010368E0397E55
:105238007A8B787E3B7EDB00009303463948FCF787
:105248002FFF3B7ED800304B19687A8B13465B00E2
:105258001344DB000B4419687A7E1346DB009B1A63
:105268009B00CC1801F08EFD03462360264B19687D
:105278007A8B13465B001344DB000B4419687A7E73
:105288001346DB009B1A9B000B441B68002B0BD1B9
:10529800397E7A8B7B7E2448FCF702FF7B680222EA
:1052A8001A606FF002032BE0174B19687A8B1346CC
:1052B8005B001344DB000B4419687A7E1346DB005D
:1052C8009B1A9B000B4418683B7EDB001A460021A2
:1052D80008F016FA0C4B19687A8B13465B001344D6
:1052E800DB000B4419687A7E1346DB009B1A9B008F
:1052F8000B443A7E1A717B6801221A6097F92730AD
:1053080018462C37BD4690BDB803002094EE00081F
:10531800D8EE00080CEF00084CEF000878EF000802
:10532800C4EF000814F0000860F0000880B58AB0E7
:1053380000AFF860B9607A60002387F82730FA6810
:10534800BB6813443B623B6AFB61FB699A78DB7874
:105358001B0213437B83FB691B797B76FB695B79B3
:105368003B76FB699A79DB791B021343FB820123A5
:105378007B756C4B1B68002B14BF01230023DBB229
:105388007B757B7D002B08D16748FCF789FE7B681D
:1053980002221A606FF00303C0E0624B9B887A8B8D
:1053A8009A4234BF01230023DBB27B757B7D002B3F
:1053B8000AD17B8B19465D48FCF772FE7B68022296
:1053C8001A606FF00103A9E07B8B002B0CBF01234F
:1053D8000023DBB27B757B7D002B0AD17B8B1946C2
:1053E8005348FCF75DFE7B6802221A606FF00903E0
:1053F80094E07B7E002B02D07B7E022B01D101231F
:1054080000E000237B757B7D002B0AD17B7E19464B
:105418004848FCF745FE7B6802221A606FF00903D2
:105428007CE03B7E012B0CBF01230023DBB27B75A4
:105438007B7D002B0AD13B7E19463F48FCF730FEA6
:105448007B6802221A606FF0090367E07B7E002BFD
:1054580002D1FB8A012B05D07B7E002B04D0FB8A6E
:10546800012B01D9012300E000237B757B7D002BF4
:105478000AD1FB8A19463148FCF712FE7B680222E2
:105488001A606FF0090349E07B8B1846FEF7BEFBF4
:105498000346002B0CBF01230023DBB27B757B7D09
:1054A800002B08D12648FCF7FBFD7B6802221A6016
:1054B8006FF0070332E0797E3A7EFB8A2148FCF7D9
:1054C800EFFD184B19687A8B13465B001344DB0019
:1054D8000B447A7E1A73134B19687A8B13465B0058
:1054E8001344DB000B443A7E5A730E4B19687A8BCF
:1054F80013465B001344DB000B44FA8ADA81094B3C
:1055080019687A8B13465B001344DB000B440022B6
:105518001A827B6801221A6097F9273018462837C3
:10552800BD4680BDB8030020B0F00008F8F00008C0
:1055380030F1000894F10008D0F1000814F20008D6
:1055480058F20008B4F2000880B588B000AFF860DF
:10555800B9607A600023FB77FA68BB681344BB61C3
:10556800BB695B78012B0CBF01230023DBB2FB7501
:10557800FB7D002B0BD1BB695B7819460A48FCF709
:105588008FFD7B6802221A604FF0FF3308E07A68CB
:10559800B968F868FFF7CAFE0346FB7797F91F302A
:1055A80018462037BD4680BD04F3000880B582B098
:1055B80000AF0346FB71FB790C2204491846FDF73E
:1055C80075FD034618460837BD4680BDD40101085D
:1055D80080B500AF084B00221A60084B00221A6001
:1055E80008220021064808F08BF8064800F018F851
:1055F80000F0C2FC00BF80BDC4030020C00300202F
:10560800B8030020B555000880B400AF034B1B68F1
:105618001846BD465DF8047B704700BFC8030020EC
:1056280080B483B000AF7860044A7B68136000BF21
:105638000C37BD465DF8047B704700BFC8030020E7
:1056480080B584B000AF0346FB800023FB600023D5
:10565800BB60224B1B68002B04D0204B9B88FA8828
:105668009A4205D31E48FCF71BFD4FF0FF3331E08B
:105678001A4B1968FA8813465B001344DB000B4485
:10568800BB60FB881846FEF7D5FB0346002B03D00A
:10569800BB681B8A002B01D100231BE00023FB60A1
:1056A8000EE0BB681968FA681346DB009B1A9B007A
:1056B8000B44DB68184601F0D9FBFB680133FB603B
:1056C800BB681B791A46FB689342EADBBB68002279
:1056D8001A82002318461037BD4680BDB803002043
:1056E8003CF3000880B487B000AFF8600B467A60DE
:1056F800FB72FB681968FA7A1346DB009B1A9B0059
:105708000B443B613B695B697B613B6900229A61A1
:10571800FB68DA7AFB7A1344DAB27B691A707B6920
:1057280001337B61FB7A002B11D1FB681B7A03F0F4
:105738001003002B0BD07A687B691A603B699B6960
:1057480004337A6913447B613B6900229A613B699F
:105758007A695A6100BF1C37BD465DF8047B704703
:1057680080B588B000AF78600023FB777B685B6901
:10577800BB610023FB7735E07B681A68FB7FDB00A1
:1057880013447B617B695B683B617B691B78FF2BFA
:1057980012D03B69FB60FB681B687A691278114676
:1057A80001228A401340002B14BF01230023DBB2DF
:1057B8001A46BB691A7006E07B695B781A46396934
:1057C800B869FBF789F97B695B781A467B689B693E
:1057D8001344BA691344BB617B6800229A61FB7F5A
:1057E8000133FB777B681B79FA7F9A42C4D37B68C5
:1057F800BA695A6100BF2037BD4680BD80B58EB0FA
:1058080002AF0346B9607A60FB81002387F82F3026
:10581800002387F82E300023BB62002387F82D3041
:10582800002387F82730002387F82630724B1B683F
:10583800002B04D0704B9B88FA899A4205D36F4895
:10584800FCF72EFC4FF0FF33D1E06B4B1968FA8957
:1058580013465B001344DB000B44BB62FB8918460C
:10586800FEF7E8FA034687F8273097F82730002B29
:1058780006D0BB6A1B8A0133BA6AD289934201D126
:10588800012300E0002387F82630002387F82D3015
:1058980093E0BB6A196897F82D201346DB009B1A22
:1058A8009B000B443B6201F033F8F8610023BB61B5
:1058B80097F82730002B03D0BB6A1B8A002B01D135
:1058C800012300E00023FB75FB7D002B3CD097F8FB
:1058D8002D301946B86AFEF7E3FA02463B6A1A61A8
:1058E8003B6A1B690121184601F022F8B861BB6ABE
:1058F8005B69B3F1FF3F09D0BB6A5B69B9691846B8
:1059080001F0BAFD02463B6ADA6005E0B86901F0C9
:1059180039FA02463B6ADA603B6ADB68002B0DD035
:105928003B6ADA68FB691A443B6A5A6197F82D307A
:10593800BA681946B86AFFF7D5FE05E0012387F86B
:105948002E30F62387F82F3097F82E30002B2FD1E2
:105958003B6ADB68002B2BD0BB6ADA88284B1B8894
:105968009A4202D0386AFFF7FBFE97F82630002BE0
:105978001ED03B6A1B690121184600F0D9FFB861A7
:105988003B6ADA683B6A1B69F9890193FB690093F2
:10599800BB69786800F0CEFD034687F82F3097F989
:1059A8002F30002B04D03B6ADB68184601F05EFA02
:1059B80097F82D30013387F82D30BB6A1B7997F89B
:1059C8002D209A4204D297F82E30002B3FF461AF75
:1059D800BB6A1B8A0133BA6AD28993FBF2F101FBD5
:1059E80002F29B1A9AB2BB6A1A8297F92F301846AC
:1059F8003037BD4680BD00BFB80300203CF3000827
:105A08003800002080B586B000AF03463960FB80BF
:105A180013467B710023FB75FB881846FEF7BEF81A
:105A2800394B1B68002B64D0374B9B88002B60D008
:105A38000023BB82344B1B683B610023BB824FE0D1
:105A4800BA8A13465B001344DB001A463B691344C9
:105A58001B7A03F00203002B3FD1BA8A13465B007E
:105A68001344DB001A463B6913445B79032B34D19A
:105A7800BA8A13465B001344DB001A463B69134499
:105A8800DB88FA889A4228D1BB8A1946002000F0A0
:105A980037FD0346FB73FB7B002B01D0002301E09D
:105AA8004FF0FF33BB607B79002B06D0BB8A1846CA
:105AB800FFF7C6FD0346FB7507E0BB8ABA6839687D
:105AC8001846FFF79BFE0346FB75FB7B002B04D0B3
